S00C00006C6162372E73726563B2
S11300000C9438000C94A9010C94BD010C94550077
S11300100C9455000C9455000C9455000C94550008
S11300200C9455000C9455000C9455000C945500F8
S11300300C9455000C9455000C9455000C945500E8
S11300400C9439020C9455000C9455000C945500F2
S11300500C9455000C9455000C9455000C945500C8
S11300600C9455000C9455000C9455000C945500B8
S113007011241FBECFEFD4E0DEBFCDBF11E0A0E05E
S1130080B1E0EEEAF0E102C005900D92A83AB107A2
S1130090D9F721E0A8EAB1E001C01D92A43BB20760
S11300A0E1F70E94CA030C9455080C94000064E024
S11300B074E084E00E94C6038091A8019091A90194
S11300C0892BD1F31092A9011092A80180E094E049
S11300D00E94C203089565E074E085E00E94C603AF
S11300E08091A8019091A901892BD1F31092A901C3
S11300F01092A80180E094E00E94C2030895CF9377
S1130100C82F0E94640265E88BE20E9477024C2F9C
S113011060EE8FE00E94A20240E660E680E60E9464
S1130120A2028FE00E94690286FF08C086E091E087
S11301309F938F930E9433040F900F90CF91089553
S1130140EF92FF920F931F93CF937C01FC01608188
S113015081E30E947702F701618185E30E947702BF
S1130160F701818190E0C696C697A4F087010E5FDF
S11301701F4FC6E3F80161918F018C2F0E94770213
S1130180CF5F2C2F30E0F701818190E0C696821773
S1130190930784F780E090E00E948902CF911F9139
S11301A00F91FF90EF9008957F928F929F92AF925C
S11301B0BF92CF92DF92EF92FF920F931F93CF9350
S11301C0DF93CDB7DEB72A970FB6F894DEBF0FBE24
S11301D0CDBF5C0181E60E946902782E1F928F9345
S11301E088E291E09F938F930E94330485E60E94F6
S11301F06902082FC82ED12C26E6C20ED11C0F90FE
S11302000F900F900F9036E6C316D104CCF07E0108
S113021083E0E80EF11C16E6CE0180959095FC0172
S1130220EC59FF4F4F01812F0E946902F70181931E
S11302307F011F5FC4018E0F9F1FC816D9069CF74C
S113024079820A838AE0FE013196D50101900D92EC
S11302508A95E1F7C5012A960FB6F894DEBF0FBE62
S1130260CDBFDF91CF911F910F91FF90EF90DF9061
S1130270CF90BF90AF909F908F907F900895CF9331
S11302800E945700C82F0E946B0094E6C99F9001FA
S11302901124220F232F221F330B245694E6899F07
S11302A0A0011124440F452F441F550B822F9CE9B4
S11302B0940FCF910895CF93DF93CDB7DEB72A97EC
S11302C00FB6F894DEBF0FBECDBF82E089838A8368
S11302D00E943F01292F990F330B2C593F4FA9013D
S11302E012F44F5F5F4F55954795082E000C990BFC
S11302F08C599F4F9C0112F42F5F3F4F35952795E2
S11303002B834C83CE0101960E94A0002A960FB63F
S1130310F894DEBF0FBECDBFDF91CF910895F8945E
S113032085B7826085BF85B78E7F85BF85B78860B6
S113033085BF85B78B7F85BF8BB780648BBF8BB739
S113034080688BBF84E681BF89B7816089BF789458
S113035008951F920F920FB60F9211248F939F93BB
S113036081E090E09093A9018093A8019F918F91DF
S11303700F900FBE0F901F9018951F920F920FB6FB
S11303800F9211242F933F934F935F936F937F9317
S11303908F939F93AF93BF93EF93FF93CF93DF9389
S11303A0CDB7DEB72A97DEBFCDBF8CE20E946902CB
S11303B082FF05C040E064E08CE20E94A2028CE26D
S11303C00E94690280FF2FC0CE0101960E94D400D2
S11303D083E491E09F938F930E94330489811F9259
S11303E08F938EE591E09F938F930E9433048A81CB
S11303F01F928F9389E691E09F938F930E94330419
S11304008B811F928F9387E791E09F938F930E9434
S1130410330440E061E08CE20E94A2020FB6F8943B
S1130420DEBF0FBECDBF8CE20E946902882344F474
S113043088E891E09F938F930E9433040F900F906C
S11304402A960FB6F894DEBF0FBECDBFDF91CF91D1
S1130450FF91EF91BF91AF919F918F917F916F9198
S11304605F914F913F912F910F900FBE0F901F906E
S113047018951F920F920FB60F9211242F933F934A
S11304804F935F936F937F938F939F93AF93BF9398
S1130490EF93FF9378940E945B01FF91EF91BF91DA
S11304A0AF919F918F917F916F915F914F913F9108
S11304B02F910F900FBE0F901F901895C49880EC49
S11304C00E949303C49A08950E9486030E945E02C8
S11304D00895CF93C82FC49883E00E9493038C2F70
S11304E00E9493030E949703C49ACF910895CF93D7
S11304F0DF93D82FC62FC49882E00E9493038D2FD8
S11305000E9493038C2F0E949303C49ADF91CF918E
S11305100895C498009721F481E80E94930310C0C1
S11305208130910521F482E80E94930309C0029767
S113053021F484E80E94930303C087E80E94930394
S1130540C49A08951F93CF93DF93182FD62FC42FE7
S1130550C49885E00E949303812F0E9493038D2FFA
S11305600E9493038C2F0E949303C49ADF91CF912E
S11305701F9108956EEA70E08EEA0E94C60361EA54
S113058070E081EA0E94C6036AED70E08AED0E9481
S1130590C60362E170E082E10E94C60368EC70E089
S11305A088EC0E94C60368EA70E088EA0E94C603E9
S11305B06FE370E08FE30E94C60365ED70E085EDA4
S11305C00E94C60360E870E080E80E94C60361E808
S11305D070E081E80E94C60360E570E080E50E9457
S11305E0C60369ED70E089ED0E94C60361E270E024
S11305F081E20E94C60360E270E080E20E94C603CA
S113060062E070E082E00E94C6036BED70E08BED67
S11306100E94C60360E370E080E30E94C6036DEAB3
S113062070E08DEA0E94C60360E070E080E00E9402
S1130630C60364EA70E084EA0E94C60366EA70E0D6
S113064086EA0E94C60363ED70E083ED0E94C60350
S113065060E070E080E00E94C6036FEA70E08FEA19
S11306600E94C6030895DF92EF92FF920F931F93A7
S1130670CF93DF93E12C6894FF24F3F80F2EF0EB73
S1130680DF2EF02D60E070E08D2D0E94C60360E047
S113069070E080E00E94C60360E070E080E10E94A8
S11306A0C6038701005C1F4FE701CE010E94C2030D
S11306B060E072E080E00E94C60360E072E080E0E7
S11306C00E94C6032196C017D10779F7D39480E816
S11306D0E80EF11CE1148CE0F806A1F6DF91CF914D
S11306E01F910F91FF90EF90DF900895CF93DF93C8
S11306F0C0E0D8E0BE0180E00E94C6032196C11587
S11307008CE0D807B9F7DF91CF91089587B3806B58
S113071087BBBE988DB180658DB96D986B986A98CA
S11307206898699808958FB9779BFECF08958FEFE5
S11307308FB9779BFECF8FB108958DE083BF089565
S113074085E287BD08955D9BFECF8CB908955F9BBC
S1130750FECF8CB1089590BD89B988E18AB98EE83D
S113076080BD67EA73E083EA93E00E94E80308959A
S113077085B7806885BF80B7806280BF80B7877E79
S113078080BF0895905FFC0180810895FB01F05FB4
S1130790808308950E948F018FE190E00E94AB0353
S11307A00E94B80387E991E09F938F930E943304DA
S11307B00E949D030E94A00380E00E947F000E948B
S11307C0BA020E9476030E9433030F900F90FFCF6A
S11307D00F931F93CF93DF93009731F46115710545
S11307E019F480E090E03AC08B01EC016EE070E017
S11307F081E090E00E942A06FC01892B91F380E8B5
S113080083830115110571F01387028781E88383BF
S11308108091AA019091AB01892B21F4F093AB0153
S1130820E093AA012097C9F0D187C08783818260B1
S113083083838091AC019091AD01892B71F4F09385
S1130840AD01E093AC018091AE019091AF01892B91
S113085021F4F093AF01E093AE01CF01DF91CF918A
S11308601F910F910895A0E0B0E0E9E3F4E00C9447
S11308702E08AE014B5F5F4FFA0161917191AF0198
S11308808091AC019091AD010E944904E2E00C9486
S11308904A08ABE0B0E0EFE4F4E00C941E086C010D
S11308A07B018A01FC0117821682838181FFCCC1FE
S11308B0CE0101963C01F6019381F70193FD8591E8
S11308C093FF81917F01882309F4BAC1853239F4F9
S11308D093FD859193FF81917F01853229F4B601BF
S11308E090E00E948407E7CF912C212C312CFFE16A
S11308F0F315D8F08B3279F038F4803279F0833202
S1130900A1F4232D20611DC08D3261F0803369F480
S1130910232D216016C0832D8260382EE32DE460E0
S11309203E2E2AC0F32DF8601DC037FC2DC020EDEB
S1130930280F2A3040F08E32B9F436FC81C1232DC1
S11309402064322E19C036FE06C08AE0989E200D1F
S11309501124922E11C0EAE02E9E200D1124222E85
S1130960F32DF0623F2E08C08C3621F4832D80686D
S1130970382E02C0883641F4F70193FD859193FF28
S113098081917F018111B3CF982F9F7D955493302E
S113099028F40C5F1F4F9FE399830DC0833631F019
S11309A0833771F0833509F059C021C0F801808183
S11309B089830E5F1F4F88248394912C530113C0A5
S11309C02801F2E04F0E511CF801A080B18036FEE0
S11309D003C0692D70E002C06FEF7FEFC5010E9474
S11309E079074C018201F32DFF773F2E16C02801B1
S11309F022E0420E511CF801A080B18036FE03C0F3
S1130A00692D70E002C06FEF7FEFC5010E94670798
S1130A104C01F32DF0683F2E820133FC1BC0822D64
S1130A2090E088169906B0F4B60180E290E00E9446
S1130A3084072A94F4CFF50137FC859137FE819120
S1130A405F01B60190E00E94840721102A9421E0FE
S1130A50821A91088114910471F7E8C0843611F068
S1130A60893641F5F80137FE07C0608171818281C2
S1130A7093810C5F1F4F08C060817181072E000CA9
S1130A80880B990B0E5F1F4FF32DFF763F2E97FFB8
S1130A9009C090958095709561957F4F8F4F9F4FBA
S1130AA0F0683F2E2AE030E0A3010E94C007882EA0
S1130AB0861845C0853731F4232D2F7EB22E2AE0C7
S1130AC030E025C0932D997FB92E8F36C1F018F4EC
S1130AD0883579F0B5C0803719F0883721F0B0C077
S1130AE0E92FE061BE2EB4FE0DC0FB2DF460BF2ED5
S1130AF009C034FE0AC0292F2660B22E06C028E0A1
S1130B0030E005C020E130E002C020E132E0F8012D
S1130B10B7FE07C060817181828193810C5F1F4F92
S1130B2006C06081718180E090E00E5F1F4FA301D9
S1130B300E94C007882E8618FB2DFF773F2E36FEB5
S1130B400DC0232D2E7FA22E891458F434FE0BC021
S1130B5032FC09C0832D8E7EA82E05C0B82CA32C90
S1130B6003C0B82C01C0B92CA4FE0FC0FE01E80DCF
S1130B70F11D8081803321F49A2D997EA92E09C01C
S1130B80A2FE06C0B394B39404C08A2D867809F0FB
S1130B90B394A3FC11C0A0FE06C0B21488F4280CC0
S1130BA0922C9B180EC0B21460F4B60180E290E05F
S1130BB00E948407B394F7CFB21418F42B1802C020
S1130BC0982C212CA4FE10C0B60180E390E00E9472
S1130BD08407A2FE17C0A1FC03C088E790E002C00E
S1130BE088E590E0B6010CC08A2D867859F0A1FE04
S1130BF002C08BE201C080E2A7FC8DE2B60190E066
S1130C000E948407891438F4B60180E390E00E94BE
S1130C1084079A94F7CF8A94F301E80DF11D80813B
S1130C20B60190E00E9484078110F5CF222009F4D8
S1130C3042CEB60180E290E00E9484072A94F6CF67
S1130C40F6018681978102C08FEF9FEF2B96E2E138
S1130C500C943A080F931F93CF93DF93869F8001E0
S1130C60879F100D969F100D1124C8010E944606FF
S1130C70EC01009729F0A80160E070E00E9472077F
S1130C80CE01DF91CF911F910F9108950F931F9380
S1130C90CF93DF938230910510F482E090E0E091ED
S1130CA0B201F091B30120E030E0A0E0B0E0309771
S1130CB019F1408151810281138148175907C8F005
S1130CC08417950769F4109731F012960C931297D4
S1130CD013961C9327C00093B2011093B30122C052
S1130CE02115310519F04217530718F49A01BD0173
S1130CF0EF01DF01F801DBCF21153105F9F0281BE5
S1130D00390B2430310580F48A819B81611571058A
S1130D1021F0FB019383828304C09093B3018093F9
S1130D20B201FE01329644C0FE01E20FF31F81932B
S1130D30919322503109398328833AC02091B0011C
S1130D403091B101232B41F4209102013091030130
S1130D503093B1012093B001209100013091010141
S1130D602115310541F42DB73EB74091040150914E
S1130D700501241B350BE091B001F091B101E2179C
S1130D80F307A0F42E1B3F0B2817390778F0AC01AA
S1130D904E5F5F4F2417350748F04E0F5F1F509387
S1130DA0B1014093B0018193919302C0E0E0F0E07F
S1130DB0CF01DF91CF911F910F910895CF93DF93CE
S1130DC0009709F481C0FC01329713821282A0912A
S1130DD0B201B091B301109781F420813181820F67
S1130DE0931F2091B0013091B1012817390751F5B3
S1130DF0F093B101E093B00167C0ED0120E030E071
S1130E00CE17DF0740F44A815B819E0141155105ED
S1130E10F1F0EA01F5CFD383C28340815181840F7D
S1130E20951FC817D90759F488819981840F951F94
S1130E300296918380838A819B8193838283211587
S1130E40310529F4F093B301E093B2013DC0E90107
S1130E50FB83EA8349915991C40FD51FEC17FD0711
S1130E6061F480819181840F951F0296E901998331
S1130E708883828193819B838A83E0E0F0E01296E9
S1130E808D919C911397009719F0FD01DC01F7CF28
S1130E908D919C9111979D012E5F3F4F820F931F5F
S1130EA02091B0013091B1012817390769F43097C6
S1130EB029F41092B3011092B20102C0138212827B
S1130EC0B093B101A093B001DF91CF910895FC01DB
S1130ED00590615070400110D8F7809590958E0F61
S1130EE09F1F0895DC0101C06D9341505040E0F70D
S1130EF00895FC016150704001900110D8F780956D
S1130F0090958E0F9F1F08950F931F93CF93DF9398
S1130F10FB01238121FD03C08FEF9FEF2CC022FF33
S1130F2016C046815781248135814217530744F402
S1130F30A081B1819D012F5F3F4F318320838C932A
S1130F40268137812F5F3F4F3783268314C08B015F
S1130F50EC01FB010084F185E02D0995892BE1F674
S1130F60D80116968D919C911797019617969C938C
S1130F708E931697CE01DF91CF911F910F91089513
S1130F80FA01AA27283051F1203181F1E8946F93B6
S1130F906E7F6E5F7F4F8F4F9F4FAF4FB1E03ED05C
S1130FA0B4E03CD0670F781F891F9A1FA11D680FFA
S1130FB0791F8A1F911DA11D6A0F711D811D911D2D
S1130FC0A11D20D009F468943F912AE0269F1124A2
S1130FD03019305D3193DEF6CF010895462F477006
S1130FE0405D4193B3E00FD0C9F7F6CF462F4F7061
S1130FF0405D4A3318F0495D31FD4052419302D0BF
S1131000A9F7EACFB4E0A695979587957795679564
S1131010BA95C9F700976105710508959B01AC0164
S11310200A2E06945795479537952795BA95C9F78B
S1131030620F731F841F951FA01D08952F923F9266
S11310404F925F926F927F928F929F92AF92BF92D4
S1131050CF92DF92EF92FF920F931F93CF93DF9380
S1131060CDB7DEB7CA1BDB0B0FB6F894DEBF0FBEDD
S1131070CDBF09942A88398848885F846E847D842A
S11310808C849B84AA84B984C884DF80EE80FD802C
S11310900C811B81AA81B981CE0FD11D0FB6F894A2
S11110A0DEBF0FBECDBFED010895F894FFCF63
S11310AE0000B401200043414E20636F6E74726FD2
S11310BE6C6C657220696E206C6F6F706261636B0D
S11310CE206D6F64650A0D007265636965766564EB
S11310DE207570706572204944203D2025235820C8
S11310EE0A0D002D2D2D204D6573736167652072D9
S11310FE65636965766564202D2D2D0A0D004944BE
S113110E3A20252358200A0D004C656E6774683A00
S113111E202564200A0D00446174615B305D203D1E
S113112E20252358200A0D0043414E2042555320BA
S113113E4552524F5221000A5374617274696E679C
S10B114E2E2E2E2E200A0D00A6
S9030000FC
