:10000000C2C00000DFC00000DDC00000FCC1000075
:10001000D9C00000D7C00000D5C00000D3C0000088
:10002000D1C00000CFC00000CDC00000CBC0000098
:10003000C9C00000C7C00000C5C00000C3C00000A8
:10004000C1C00000BFC00000BDC00000BBC00000B8
:10005000B9C00000B7C00000B5C00000B3C00000C8
:10006000B1C00000AFC00000ADC00000ABC00000D8
:10007000A9C00000A7C00000A5C00000A3C00000E8
:10008000A1C000009FC000009DC000009BC00000F8
:1000900099C0000097C0000095C00000C1C20000D8
:1000A00091C000008FC000008DC000008BC0000018
:1000B00089C0000087C0000085C0000083C0000028
:1000C00081C000007FC000007DC000007BC0000038
:1000D00079C0000077C0000075C0000073C0000048
:1000E00071C000002E03800380038003800380031F
:1000F000800380032E03800380038003800380033A
:100100008003800330038003800380038003800327
:1001100080038003800380038003800380038003C7
:100120008003800330038003800380038003800307
:1001300080038003800380038003800380038003A7
:10014000800380037C03800380038003800380039B
:1001500080038003590380038003800380038003AE
:100160008003800380038003800380038003800377
:10017000800380034D03800380038003800380039A
:10018000800380036B0311241FBECFEFD1E2DEBFDB
:10019000CDBF00E00CBF12E0A0E0B2E0EEE4F0E181
:1001A00000E00BBF02C007900D92A839B107D9F744
:1001B00022E0A8E9B2E001C01D92A93AB207E1F736
:1001C000D5D243C71DCFCF93C82F9BD165E08BE21B
:1001D000A6D145E865E08BE2B1D18BE295D11F92C3
:1001E0008F9387E092E09F938F932DD34C2F60EEF7
:1001F0008FE0A4D140E660E680E6A0D18FE084D114
:100200000F900F900F900F9086FF07C083E292E04F
:100210009F938F9318D30F900F90CF9108957F9253
:100220008F929F92AF92BF92CF92DF92EF92FF9206
:100230000F931F93CF93DF93CDB7DEB72A970FB6F7
:10024000F894DEBF0FBECDBF5C0181E65DD1782E94
:1002500085E65AD1082FC82ED12C26E6C20ED11C15
:1002600036E6C316D104C4F07E0183E0E80EF11C2B
:1002700016E6CE0180959095FC01EC59FF4F4F0199
:10028000812F42D1F70181937F011F5FC4018E0F3F
:100290009F1FC816D906A4F779820A838AE0FE0157
:1002A0003196D50101900D928A95E1F7C5012A9604
:1002B0000FB6F894DEBF0FBECDBFDF91CF911F9177
:1002C0000F91FF90EF90DF90CF90BF90AF909F90F5
:1002D0008F907F90089578D1E1E0F1E080818A6786
:1002E0008083E7E0F1E0808180830895CF93DF93FE
:1002F00000D0CDB7DEB790E599831A828B8363E097
:10030000CE0101966BD10F900F900F90DF91CF919E
:100310000895CF93DF93EB01E2E0F1E090819061EB
:100320009083E4DF219731F4E2E0F1E080818260A4
:10033000808305C0E2E0F1E080818D7F8083DF91E2
:10034000CF910895EF92FF920F931F93CF93DF9376
:10035000C2E0D1E088818F7D88838881877F888310
:1003600024E12A95F1F706E011E0F8018081E82EFA
:10037000F12C1F928F9385E492E09F938F9363D229
:10038000888188608883F4E1FA95F1F7F80180812B
:10039000082F10E01F928F9380E592E09F938F9338
:1003A00052D2888180628883902F88272DB73EB7EC
:1003B000285F3F4F0FB6F8943EBF0FBE2DBF8E0D86
:1003C0009F1DDF91CF911F910F91FF90EF900895A6
:1003D0008098ECE7F0E08081806E8083EAE7F0E0CF
:1003E0008081856280838081806C80830895F89409
:1003F000E9E6F0E080818F7E808380818062808367
:10040000EA9A789408951F920F920FB60F921124D2
:100410000BB60F922F933F934F935F936F937F93FE
:100420008F939F93AF93BF93EF93FF93CF93DF93FC
:10043000CDB7DEB72A97DEBFCDBF8CE265D082FF95
:1004400004C040E064E08CE279D08CE25DD080FFB3
:1004500036C0CE010196E3DE99818B81913061F443
:100460001F928F938BE592E09F938F93ECD10F9027
:100470000F900F900F901FC09230B1F47894833397
:1004800050F090E0C297982F990F990F60E070E0BC
:10049000890F3FDF10C0982F990F990F890F61E0E6
:1004A00070E0809536DF07C08AE692E09F938F93D5
:1004B000CAD10F900F9040E061E08CE23FD08CE217
:1004C00023D02A960FB6F894DEBF0FBECDBFDF91C2
:1004D000CF91FF91EF91BF91AF919F918F917F91BC
:1004E0006F915F914F913F912F910F900BBE0F90A5
:1004F0000FBE0F901F9018952F9880EC59D02F9A0F
:10050000089542D0F9CF0895CF93C82F2F9883E054
:100510004FD08C2F4DD051D02F9ACF910895CF939B
:10052000DF93D82FC62F2F9882E042D08D2F40D056
:100530008C2F3ED02F9ADF91CF9108951F93CF93A8
:10054000DF93182FD62FC42F2F9885E031D0812F1D
:100550002FD08D2F2DD08C2F2BD02F9ADF91CF9194
:100560001F910895269AE0E8F0E0808182628083FE
:10057000E1E8F0E080818A61808380E49CE99093E7
:10058000870080938600089584B1876884B9239892
:100590008CB580658CBD8CB58F7D8CBD8CB5877F0F
:1005A0008CBD8CB58B7F8CBD8CB581608CBD089566
:1005B0008EBD0DB407FEFDCF08958FEF8EBD0DB437
:1005C00007FEFDCF8EB508958CE08093B8008FEFC5
:1005D0008093BB0084E08093BC000895DC01ECEBC9
:1005E000F0E0908190FDFDCF60939A028C91809312
:1005F0009B0280FD0CC0623050F0FD013196ACE9E9
:10060000B2E081E091919D938F5F6813FBCF1092D0
:10061000990288EF8093060285EA8093BC000895D2
:100620001F920F920FB60F9211240BB60F922F93B9
:100630003F938F939F93AF93BF93EF93FF93E0917B
:10064000B9008E2F90E0FC013897E135F10508F0F4
:1006500057C08827EE58FF4F8F4FA3C010929802C3
:10066000E091980280919A02E81770F481E08E0F71
:1006700080939802F0E0E556FD4F80818093BB00A7
:1006800085E88093BC0043C080919902816080938B
:10069000990284E98093BC003AC0E091980281E01D
:1006A0008E0F809398028091BB00F0E0E556FD4FDD
:1006B00080832091980230E080919A0290E0019727
:1006C0002817390724F485EC8093BC0020C085E806
:1006D0008093BC001CC08091BB00E0919802F0E0C8
:1006E000E556FD4F80838091990281608093990245
:1006F00084E98093BC000BC085EA8093BC0007C0EE
:100700008091B9008093060284E08093BC00FF9141
:10071000EF91BF91AF919F918F913F912F910F904A
:100720000BBE0F900FBE0F901F901895E0ECF0E0FD
:10073000908195FFFDCF8093C6000895E0ECF0E036
:1007400080818823ECF78091C60008959093C500BE
:100750008093C40088E18093C1008EE08093C20042
:100760006EE973E086E993E024C0089587E690E09F
:10077000EDDF82E892E09F938F9365D038DE80E0D2
:1007800022DDF0DE25DEA7DD0F900F90DBDD2FEF01
:1007900086E791E0215080409040E1F700C00000E2
:1007A000F5CFEE0FFF1F881F8BBF0790F691E02D4E
:1007B00019940F931F93CF93DF93009731F4611532
:1007C000710519F480E090E039C08B01EC016EE016
:1007D00070E081E090E047D2FC01892B99F380E83A
:1007E00083830115110571F01387028781E88383E4
:1007F00080919F029091A002892B21F4F093A00296
:10080000E0939F022097C9F0D187C08783818260DF
:1008100083838091A1029091A202892B71F4F093BD
:10082000A202E093A1028091A3029091A402892BDD
:1008300021F4F093A402E093A302CF01DF91CF91C2
:100840001F910F910895CF93DF93CDB7DEB7AE011F
:100850004A5F5F4FFA0161917191AF018091A102EE
:100860009091A20203D0DF91CF9108952F923F92F1
:100870004F925F926F927F928F929F92AF92BF92B0
:10088000CF92DF92EF92FF920F931F93CF93DF935C
:10089000CDB7DEB72B970FB6F894DEBF0FBECDBF36
:1008A0006C017B018A01FC0117821682838181FF22
:1008B000BFC1CE0101963C01F6019381F70193FD82
:1008C000859193FF81917F01882309F4ADC1853221
:1008D00039F493FD859193FF81917F01853221F455
:1008E000B60190E018D3E8CF912C212C312CFFE1F8
:1008F000F315D8F08B3279F038F4803279F0833206
:10090000A1F4232D20611DC08D3261F0803369F484
:10091000232D216016C0832D8260382EE32DE460E4
:100920003E2E2AC0F32DF8601DC037FC2DC020EDEF
:10093000280F2A3040F08E32B9F436FC75C1232DD1
:100940002064322E19C036FE06C08AE0989E200D23
:100950001124922E11C0EAE02E9E200D1124222E89
:10096000F32DF0623F2E08C08C3621F4832D806871
:10097000382E02C0883641F4F70193FD859193FF2C
:1009800081917F018111B3CF982F9F7D9554933032
:1009900028F40C5F1F4F9FE399830DC0833631F01D
:1009A000833771F0833509F055C020C0F80180818C
:1009B00089830E5F1F4F88248394912C530112C0AA
:1009C0002801F2E04F0E511CF801A080B18036FEE4
:1009D00003C0692D70E002C06FEF7FEFC50190D2B8
:1009E0004C018201F32DFF773F2E15C0280122E034
:1009F000420E511CF801A080B18036FE03C0692D63
:100A000070E002C06FEF7FEFC50168D24C01F32D9B
:100A1000F0683F2E820133FC19C0822D90E08816C9
:100A20009906A0F4B60180E290E075D22A94F5CF41
:100A3000F50137FC859137FE81915F01B60190E0A9
:100A40006AD221102A9421E0821A9108811491041B
:100A500079F7E1C0843611F0893639F5F80137FEAF
:100A600007C060817181828193810C5F1F4F08C034
:100A700060817181072E000C880B990B0E5F1F4F50
:100A8000F32DFF763F2E97FF09C0909580957095C6
:100A900061957F4F8F4F9F4FF0683F2E2AE030E0E7
:100AA000A30175D2882E861844C0853731F4232DD2
:100AB0002F7EB22E2AE030E025C0932D997FB92EEB
:100AC0008F36C1F018F4883579F0AEC0803719F050
:100AD000883721F0A9C0E92FE061BE2EB4FE0DC019
:100AE000FB2DF460BF2E09C034FE0AC0292F2660FA
:100AF000B22E06C028E030E005C020E130E002C0A0
:100B000020E132E0F801B7FE07C060817181828187
:100B100093810C5F1F4F06C06081718180E090E07F
:100B20000E5F1F4FA30133D2882E8618FB2DFF774F
:100B30003F2E36FE0DC0232D2E7FA22E891458F491
:100B400034FE0BC032FC09C0832D8E7EA82E05C05A
:100B5000B82CA32C03C0B82C01C0B92CA4FE0FC024
:100B6000FE01E80DF11D8081803321F49A2D997EDC
:100B7000A92E09C0A2FE06C0B394B39404C08A2D66
:100B8000867809F0B394A3FC10C0A0FE06C0B2148E
:100B900080F4280C922C9B180DC0B21458F4B601A6
:100BA00080E290E0B8D1B394F8CFB21418F42B18C7
:100BB00002C0982C212CA4FE0FC0B60180E390E067
:100BC000AAD1A2FE16C0A1FC03C088E790E002C033
:100BD00088E590E0B6010CC08A2D867851F0A1FE20
:100BE00002C08BE201C080E2A7FC8DE2B60190E07A
:100BF00092D1891430F4B60180E390E08CD19A94BC
:100C0000F8CF8A94F301E80DF11D8081B60190E0E0
:100C100082D18110F6CF222009F44ECEB60180E2B7
:100C200090E079D12A94F7CFF6018681978102C0AE
:100C30008FEF9FEF2B960FB6F894DEBF0FBECDBFA0
:100C4000DF91CF911F910F91FF90EF90DF90CF90A8
:100C5000BF90AF909F908F907F906F905F904F90DC
:100C60003F902F9008950F931F93CF93DF93869F0C
:100C70008001879F100D969F100D1124C8010DD083
:100C8000EC01009721F0A80160E070E032D1CE01C4
:100C9000DF91CF911F910F9108950F931F93CF93E1
:100CA000DF938230910510F482E090E0E091A7029A
:100CB000F091A80220E030E0A0E0B0E0309719F118
:100CC000408151810281138148175907C8F0841768
:100CD000950769F4109731F012960C9312971396BA
:100CE0001C9327C00093A7021093A80222C02115CD
:100CF000310519F04217530718F49A01BD01EF01AD
:100D0000DF01F801DBCF21153105F9F0281B390B84
:100D10002430310580F48A819B816115710521F0B1
:100D2000FB019383828304C09093A8028093A7025F
:100D3000FE01329644C0FE01E20FF31F81939193AE
:100D400022503109398328833AC02091A50230917D
:100D5000A602232B41F4209102023091030230932A
:100D6000A6022093A50220910002309101022115D4
:100D7000310541F42DB73EB7409104025091050270
:100D8000241B350BE091A502F091A602E217F307B0
:100D9000A0F42E1B3F0B2817390778F0AC014E5FEB
:100DA0005F4F2417350748F04E0F5F1F5093A60280
:100DB0004093A5028193919302C0E0E0F0E0CF015F
:100DC000DF91CF911F910F910895CF93DF930097FB
:100DD00009F481C0FC01329713821282A091A7020C
:100DE000B091A802109781F420813181820F931F66
:100DF0002091A5023091A6022817390751F5F093EA
:100E0000A602E093A50267C0ED0120E030E0CE1716
:100E1000DF0740F44A815B819E0141155105F1F0E5
:100E2000EA01F5CFD383C28340815181840F951F9E
:100E3000C817D90759F488819981840F951F0296A4
:100E4000918380838A819B819383828321153105DD
:100E500029F4F093A802E093A7023DC0E901FB83C7
:100E6000EA8349915991C40FD51FEC17FD0761F42E
:100E700080819181840F951F0296E901998388836F
:100E8000828193819B838A83E0E0F0E012968D91CA
:100E90009C911397009719F0FD01DC01F7CF8D911C
:100EA0009C9111979D012E5F3F4F820F931F2091C0
:100EB000A5023091A6022817390769F4309729F462
:100EC0001092A8021092A70202C013821282B0935D
:100ED000A602A093A502DF91CF910895FC01059091
:100EE000615070400110D8F7809590958E0F9F1F2C
:100EF0000895DC0101C06D9341505040E0F7089522
:100F0000FC016150704001900110D8F780959095D8
:100F10008E0F9F1F08950F931F93CF93DF93FB01B5
:100F2000238121FD03C08FEF9FEF2CC022FF16C04D
:100F300046815781248135814217530744F4A081AB
:100F4000B1819D012F5F3F4F318320838C93268198
:100F500037812F5F3F4F3783268314C08B01EC010D
:100F6000FB010084F185E02D1995892BE1F6D8016C
:100F700016968D919C911797019617969C938E9338
:100F80001697CE01DF91CF911F910F910895FA012D
:100F9000AA27283051F1203181F1E8946F936E7FB8
:100FA0006E5F7F4F8F4F9F4FAF4FB1E03ED0B4E0A9
:100FB0003CD0670F781F891F9A1FA11D680F791FEA
:100FC0008A1F911DA11D6A0F711D811D911DA11DFB
:100FD00020D009F468943F912AE0269F112430190B
:100FE000305D3193DEF6CF010895462F4770405DA6
:100FF0004193B3E00FD0C9F7F6CF462F4F70405D55
:101000004A3318F0495D31FD4052419302D0A9F7AF
:10101000EACFB4E0A6959795879577956795BA95A9
:10102000C9F700976105710508959B01AC010A2E6F
:1010300006945795479537952795BA95C9F7620F46
:0E104000731F841F951FA01D0895F894FFCF05
:10104E000000A9022000F8696E74657272757074E2
:10105E007320666F72206D6370203D20252358200B
:10106E000A0D0043414E20636F6E74726F6C6C6597
:10107E007220696E206C6F6F706261636B206D6F92
:10108E0064650A0D004C5342203D2025640A0D0074
:10109E004D5342203D2025640A0D004A4F595354AA
:1010AE0049434B3A2025640A0D0043414E4E4F549E
:1010BE00204944454E54494659204D4553534147C6
:1010CE0045004E6F64652032207374617274696ED0
:0810DE00672E2E2E0A0D000002
:00000001FF
