:1000000071C000008EC000008CC0000031C1000033
:1000100088C0000086C0000084C0000082C00000CC
:1000200080C000007EC000007CC000007AC00000DC
:1000300078C0000076C0000074C0000072C00000EC
:1000400070C000006EC000006CC000006AC00000FC
:1000500068C0000066C0000064C0000062C000000C
:1000600060C000005EC000005CC000005AC000001C
:1000700058C0000056C0000054C0000052C000002C
:1000800050C000004EC000004CC000004AC000003C
:1000900048C0000046C0000044C0000042C000004C
:1000A00040C000003EC000003CC000003AC000005C
:1000B00038C0000036C0000034C0000032C000006C
:1000C00030C000002EC000002CC000002AC000007C
:1000D00028C0000026C0000024C0000022C000008C
:1000E00020C0000011241FBECFEFD1E2DEBFCDBF84
:1000F00000E00CBF12E0A0E0B2E0EEE7F0E100E0CB
:100100000BBF02C007900D92A03BB107D9F722E0C8
:10011000A0EBB2E001C01D92AA3BB207E1F7BAD151
:10012000ACC76ECFCF93C82F0ED165E08BE219D14B
:1001300045E865E08BE224D18BE208D11F928F93D2
:1001400086E092E09F938F9396D34C2F60EE8FE0E2
:1001500017D140E660E680E613D18FE0F7D00F902C
:100160000F900F900F9086FF07C082E292E09F935E
:100170008F9381D30F900F90CF9108957F928F929C
:100180009F92AF92BF92CF92DF92EF92FF920F9326
:100190001F93CF93DF93CDB7DEB72A970FB6F894AE
:1001A000DEBF0FBECDBF5C0181E6D0D0782E85E6E4
:1001B000CDD0082FC82ED12C26E6C20ED11C36E693
:1001C000C316D104C4F07E0183E0E80EF11C16E6EC
:1001D000CE0180959095FC01EC59FF4F4F01812F86
:1001E000B5D0F70181937F011F5FC4018E0F9F1F60
:1001F000C816D906A4F779820A838AE0FE013196EF
:10020000D50101900D928A95E1F7C5012A960FB6A6
:10021000F894DEBF0FBECDBFDF91CF911F910F913C
:10022000FF90EF90DF90CF90BF90AF909F908F9016
:100230007F9008958098ECE7F0E08081806E808365
:10024000EAE7F0E08081856280838081806C808332
:100250000895809179000895F894E9E6F0E08081AE
:100260008F7E8083808180628083EA9A789408956B
:100270001F920F920FB60F9211240BB60F922F936D
:100280003F934F935F936F937F938F939F93AF931E
:10029000BF93EF93FF93CF93DF93CDB7DEB72A974A
:1002A000DEBFCDBF8CE252D082FF04C040E064E0EC
:1002B0008CE266D08CE24AD080FF23C0CE0101964A
:1002C0005DDF99818B81913061F41F928F9384E47B
:1002D00092E09F938F93CFD20F900F900F900F903B
:1002E0000CC0923019F490E071D007C083E592E021
:1002F0009F938F93C0D20F900F9040E061E08CE20B
:100300003FD08CE223D02A960FB6F894DEBF0FBE02
:10031000CDBFDF91CF91FF91EF91BF91AF919F91B1
:100320008F917F916F915F914F913F912F910F909E
:100330000BBE0F900FBE0F901F9018952F9880EC5A
:100340007DD02F9A089566D0F9CF0895CF93C82F06
:100350002F9883E073D08C2F71D075D02F9ACF91C6
:100360000895CF93DF93D82FC62F2F9882E066D0C1
:100370008D2F64D08C2F62D02F9ADF91CF9108956A
:100380001F93CF93DF93182FD62FC42F2F9885E07C
:1003900055D0812F53D08D2F51D08C2F4FD02F9AE5
:1003A000DF91CF911F910895269AE0E8F0E08081D7
:1003B00082628083E1E8F0E080818A61808380E46A
:1003C0009CE9909387008093860008958436910578
:1003D000C8F4BC0180E090E013D126EA3BE944E494
:1003E0005CE39CD126E636E646E65FE379D020E082
:1003F00030E04AEF54E492D1D7D070938B006093F1
:100400008A0008958BE692E09F938F9334D20F90E9
:100410000F90089584B1876884B923988CB580655E
:100420008CBD8CB58F7D8CBD8CB5877F8CBD8CB51C
:100430008B7F8CBD8CB581608CBD08958EBD0DB455
:1004400007FEFDCF08958FEF8EBD0DB407FEFDCFE3
:100450008EB50895E0ECF0E0908195FFFDCF80939C
:10046000C6000895E0ECF0E080818823ECF78091ED
:10047000C60008959093C5008093C40088E18093DE
:10048000C1008EE08093C20062E372E08AE292E0F3
:10049000A8C1089587E690E0EDDF80E992E09F93A0
:1004A0008F93E9D1D9DE80E03DDE7EDFC3DE0F90A1
:1004B0000F90C5EAD2E0CDDE1F928F93DF93CF93EA
:1004C000DAD19FEF21EE84E0915020408040E1F7A7
:1004D00000C000000F900F900F900F90ECCF50587D
:1004E000BB27AA270ED0E0C0D1D030F0D6D020F064
:1004F00031F49F3F11F41EF4C6C00EF4E095E7FB03
:10050000BCC0E92FE2D080F3BA17620773078407F3
:10051000950718F071F49EF5FAC00EF4E0950B2ED5
:10052000BA2FA02D0B01B90190010C01CA01A00145
:100530001124FF27591B99F0593F50F4503E68F1A0
:100540001A16F040A22F232F342F4427585FF3CFE1
:10055000469537952795A795F0405395C9F77EF4B2
:100560001F16BA0B620B730B840BBAF09150A1F0FB
:10057000FF0FBB1F661F771F881FC2F70EC0BA0F81
:10058000621F731F841F48F4879577956795B79509
:10059000F7959E3F08F0B3CF9395880F08F0992701
:1005A000EE0F97958795089598D088F09F5790F013
:1005B000B92F9927B751A0F0D1F0660F771F881F88
:1005C000991F1AF0BA95C9F712C0B13081F09FD0C7
:1005D000B1E008959CC0672F782F8827B85F39F065
:1005E000B93FCCF3869577956795B395D9F73EF4E7
:1005F00090958095709561957F4F8F4F9F4F08958F
:10060000E89409C097FB3EF49095809570956195AC
:100610007F4F8F4F9F4F9923A9F0F92F96E9BB2762
:100620009395F695879577956795B795F111F8CFDE
:10063000FAF4BB0F11F460FF1BC06F5F7F4F8F4F49
:100640009F4F16C0882311F096E911C0772321F03F
:100650009EE8872F762F05C0662371F096E8862FD7
:1006600070E060E02AF09A95660F771F881FDAF72E
:10067000880F9695879597F9089597F99F6780E871
:1006800070E060E008959FEF80EC089500240A94E4
:100690001616170618060906089500240A9412165D
:1006A0001306140605060895092E0394000C11F490
:1006B000882352F0BB0F40F4BF2B11F460FF04C03D
:1006C0006F5F7F4F8F4F9F4F089557FD9058440F96
:1006D000551F59F05F3F71F04795880F97FB991FA1
:1006E00061F09F3F79F0879508951216130614065E
:1006F000551FF2CF4695F1DF08C0161617061806EB
:10070000991FF1CF86957105610508940895E894C5
:10071000BB2766277727CB0197F908950BD0C4CF65
:10072000B5DF28F0BADF18F0952309F0A6CFABCFDC
:100730001124EECFCADFA0F3959FD1F3950F50E0BF
:10074000551F629FF001729FBB27F00DB11D639F83
:10075000AA27F00DB11DAA1F649F6627B00DA11D29
:10076000661F829F2227B00DA11D621F739FB00DCF
:10077000A11D621F839FA00D611D221F749F33273F
:10078000A00D611D231F849F600D211D822F762FD8
:100790006A2F11249F5750408AF0E1F088234AF0D5
:1007A000EE0FFF1FBB1F661F771F881F9150504021
:1007B000A9F79E3F510570F060CFAACF5F3FECF3E1
:1007C000983EDCF3869577956795B795F795E7950D
:1007D0009F5FC1F7FE2B880F911D9695879597F91E
:1007E00008950F931F93CF93DF93009731F4611512
:1007F000710519F480E090E039C08B01EC016EE0E6
:1008000070E081E090E047D2FC01892B99F380E809
:1008100083830115110571F01387028781E88383B3
:100820008091B0029091B102892B21F4F093B10232
:10083000E093B0022097C9F0D187C087838182609E
:1008400083838091B2029091B302892B71F4F0936B
:10085000B302E093B2028091B4029091B502892B69
:1008600021F4F093B502E093B402CF01DF91CF9170
:100870001F910F910895CF93DF93CDB7DEB7AE01EF
:100880004A5F5F4FFA0161917191AF018091B202AD
:100890009091B30203D0DF91CF9108952F923F92B0
:1008A0004F925F926F927F928F929F92AF92BF9280
:1008B000CF92DF92EF92FF920F931F93CF93DF932C
:1008C000CDB7DEB72B970FB6F894DEBF0FBECDBF06
:1008D0006C017B018A01FC0117821682838181FFF2
:1008E000BFC1CE0101963C01F6019381F70193FD52
:1008F000859193FF81917F01882309F4ADC18532F1
:1009000039F493FD859193FF81917F01853221F424
:10091000B60190E018D3E8CF912C212C312CFFE1C7
:10092000F315D8F08B3279F038F4803279F08332D5
:10093000A1F4232D20611DC08D3261F0803369F454
:10094000232D216016C0832D8260382EE32DE460B4
:100950003E2E2AC0F32DF8601DC037FC2DC020EDBF
:10096000280F2A3040F08E32B9F436FC75C1232DA1
:100970002064322E19C036FE06C08AE0989E200DF3
:100980001124922E11C0EAE02E9E200D1124222E59
:10099000F32DF0623F2E08C08C3621F4832D806841
:1009A000382E02C0883641F4F70193FD859193FFFC
:1009B00081917F018111B3CF982F9F7D9554933002
:1009C00028F40C5F1F4F9FE399830DC0833631F0ED
:1009D000833771F0833509F055C020C0F80180815C
:1009E00089830E5F1F4F88248394912C530112C07A
:1009F0002801F2E04F0E511CF801A080B18036FEB4
:100A000003C0692D70E002C06FEF7FEFC50190D287
:100A10004C018201F32DFF773F2E15C0280122E003
:100A2000420E511CF801A080B18036FE03C0692D32
:100A300070E002C06FEF7FEFC50168D24C01F32D6B
:100A4000F0683F2E820133FC19C0822D90E0881699
:100A50009906A0F4B60180E290E075D22A94F5CF11
:100A6000F50137FC859137FE81915F01B60190E079
:100A70006AD221102A9421E0821A910881149104EB
:100A800079F7E1C0843611F0893639F5F80137FE7F
:100A900007C060817181828193810C5F1F4F08C004
:100AA00060817181072E000C880B990B0E5F1F4F20
:100AB000F32DFF763F2E97FF09C090958095709596
:100AC00061957F4F8F4F9F4FF0683F2E2AE030E0B7
:100AD000A30175D2882E861844C0853731F4232DA2
:100AE0002F7EB22E2AE030E025C0932D997FB92EBB
:100AF0008F36C1F018F4883579F0AEC0803719F020
:100B0000883721F0A9C0E92FE061BE2EB4FE0DC0E8
:100B1000FB2DF460BF2E09C034FE0AC0292F2660C9
:100B2000B22E06C028E030E005C020E130E002C06F
:100B300020E132E0F801B7FE07C060817181828157
:100B400093810C5F1F4F06C06081718180E090E04F
:100B50000E5F1F4FA30133D2882E8618FB2DFF771F
:100B60003F2E36FE0DC0232D2E7FA22E891458F461
:100B700034FE0BC032FC09C0832D8E7EA82E05C02A
:100B8000B82CA32C03C0B82C01C0B92CA4FE0FC0F4
:100B9000FE01E80DF11D8081803321F49A2D997EAC
:100BA000A92E09C0A2FE06C0B394B39404C08A2D36
:100BB000867809F0B394A3FC10C0A0FE06C0B2145E
:100BC00080F4280C922C9B180DC0B21458F4B60176
:100BD00080E290E0B8D1B394F8CFB21418F42B1897
:100BE00002C0982C212CA4FE0FC0B60180E390E037
:100BF000AAD1A2FE16C0A1FC03C088E790E002C003
:100C000088E590E0B6010CC08A2D867851F0A1FEEF
:100C100002C08BE201C080E2A7FC8DE2B60190E049
:100C200092D1891430F4B60180E390E08CD19A948B
:100C3000F8CF8A94F301E80DF11D8081B60190E0B0
:100C400082D18110F6CF222009F44ECEB60180E287
:100C500090E079D12A94F7CFF6018681978102C07E
:100C60008FEF9FEF2B960FB6F894DEBF0FBECDBF70
:100C7000DF91CF911F910F91FF90EF90DF90CF9078
:100C8000BF90AF909F908F907F906F905F904F90AC
:100C90003F902F9008950F931F93CF93DF93869FDC
:100CA0008001879F100D969F100D1124C8010DD053
:100CB000EC01009721F0A80160E070E032D1CE0194
:100CC000DF91CF911F910F9108950F931F93CF93B1
:100CD000DF938230910510F482E090E0E091B80259
:100CE000F091B90220E030E0A0E0B0E0309719F1D7
:100CF000408151810281138148175907C8F0841738
:100D0000950769F4109731F012960C931297139689
:100D10001C9327C00093B8021093B90222C021157A
:100D2000310519F04217530718F49A01BD01EF017C
:100D3000DF01F801DBCF21153105F9F0281B390B54
:100D40002430310580F48A819B816115710521F081
:100D5000FB019383828304C09093B9028093B8020D
:100D6000FE01329644C0FE01E20FF31F819391937E
:100D700022503109398328833AC02091B60230913C
:100D8000B702232B41F420910202309103023093E9
:100D9000B7022093B6022091000230910102211582
:100DA000310541F42DB73EB7409104025091050240
:100DB000241B350BE091B602F091B702E217F3075E
:100DC000A0F42E1B3F0B2817390778F0AC014E5FBB
:100DD0005F4F2417350748F04E0F5F1F5093B7023F
:100DE0004093B6028193919302C0E0E0F0E0CF011E
:100DF000DF91CF911F910F910895CF93DF930097CB
:100E000009F481C0FC01329713821282A091B802CA
:100E1000B091B902109781F420813181820F931F24
:100E20002091B6023091B7022817390751F5F09397
:100E3000B702E093B60267C0ED0120E030E0CE17C4
:100E4000DF0740F44A815B819E0141155105F1F0B5
:100E5000EA01F5CFD383C28340815181840F951F6E
:100E6000C817D90759F488819981840F951F029674
:100E7000918380838A819B819383828321153105AD
:100E800029F4F093B902E093B8023DC0E901FB8375
:100E9000EA8349915991C40FD51FEC17FD0761F4FE
:100EA00080819181840F951F0296E901998388833F
:100EB000828193819B838A83E0E0F0E012968D919A
:100EC0009C911397009719F0FD01DC01F7CF8D91EC
:100ED0009C9111979D012E5F3F4F820F931F209190
:100EE000B6023091B7022817390769F4309729F410
:100EF0001092B9021092B80202C013821282B0930B
:100F0000B702A093B602DF91CF910895FC0105903E
:100F1000615070400110D8F7809590958E0F9F1FFB
:100F20000895DC0101C06D9341505040E0F70895F1
:100F3000FC016150704001900110D8F780959095A8
:100F40008E0F9F1F08950F931F93CF93DF93FB0185
:100F5000238121FD03C08FEF9FEF2CC022FF16C01D
:100F600046815781248135814217530744F4A0817B
:100F7000B1819D012F5F3F4F318320838C93268168
:100F800037812F5F3F4F3783268314C08B01EC01DD
:100F9000FB010084F185E02D1995892BE1F6D8013C
:100FA00016968D919C911797019617969C938E9308
:100FB0001697CE01DF91CF911F910F910895FA01FD
:100FC000AA27283051F1203181F1E8946F936E7F88
:100FD0006E5F7F4F8F4F9F4FAF4FB1E03ED0B4E079
:100FE0003CD0670F781F891F9A1FA11D680F791FBA
:100FF0008A1F911DA11D6A0F711D811D911DA11DCB
:1010000020D009F468943F912AE0269F11243019DA
:10101000305D3193DEF6CF010895462F4770405D75
:101020004193B3E00FD0C9F7F6CF462F4F70405D24
:101030004A3318F0495D31FD4052419302D0A9F77F
:10104000EACFB4E0A6959795879577956795BA9579
:10105000C9F700976105710508959B01AC010A2E3F
:1010600006945795479537952795BA95C9F7620F16
:0E107000731F841F951FA01D0895F894FFCFD5
:10107E000000BA022000696E746572727570747326
:10108E0020666F72206D6370203D20252358200A44
:10109E000D0043414E20636F6E74726F6C6C6572FF
:1010AE0020696E206C6F6F706261636B206D6F6470
:1010BE00650A0D004A4F59535449434B3A20256453
:1010CE000A0D0043414E4E4F54204944454E54495B
:1010DE004659204D455353414745004572726F7234
:1010EE003A2050574D2064757479206379636C658E
:1010FE0020697320746F6F206C617267650A0D0032
:10110E004E6F64652032207374617274696E672E3F
:10111E002E2E0A0D00414443203D2025640A0D0069
:00000001FF
