:100000000C94B4010C948E020C94D1010C94D10187
:100010000C94D1010C94D1010C94D1010C94D10118
:100020000C94D1010C94D1010C94D1010C94D10108
:100030000C94D1010C94D1010C94D1010C94D101F8
:100040000C94D1010C94D1010C94D1010C94D101E8
:100050000C94D1010C94D1010C94D1010C94D101D8
:100060000C94D1010C94D1010C94D1010C94D101C8
:10007000000000000000000000065F5F06000000B6
:100080000007070007070000147F7F147F7F14001C
:10009000242E6B6B3A120000466630180C66620024
:1000A000307A4F5D377A48000407030000000000F3
:1000B000001C3E63410000000041633E1C00000044
:1000C000082A3E1C1C3E2A0808083E3E080800007C
:1000D00000A0E06000000000080808080808000010
:1000E00000006060000000006030180C0603010092
:1000F0003E7F594D7F3E000042427F7F40400000DE
:10010000627359496F660000226349497F360000D7
:10011000181C16137F7F1000276745457D390000A6
:100120003C7E4B4979300000036371190F070000D2
:10013000367F49497F360000064F49693F1E00005F
:1001400000006C6C0000000000A0EC6C00000000DF
:10015000081C366341000000141414141414000029
:10016000004163361C080000020351590F060000CD
:100170003E7F415D5D1F1E007C7E13137E7C000070
:10018000417F7F49497F36001C3E63414163220025
:10019000417F7F41637F1C00417F7F495D41630058
:1001A000417F7F491D0103001C3E63415173720072
:1001B0007F7F08087F7F000000417F7F41000000B3
:1001C000307040417F3F0100417F7F081C77630012
:1001D000417F7F41406070007F7F060C067F7F007B
:1001E0007F7F060C187F7F001C3E6341633E1C002E
:1001F000417F7F49090F06001E3F21717F5E00008D
:10020000417F7F19396F460026674D597B320000C8
:1002100003417F7F410300007F7F40407F7F0000DC
:100220001F3F60603F1F00007F7F3018307F7F00DE
:1002300063771C081C776300074F78784F0700002E
:100240006773594D47637100007F7F414100000093
:100250000103060C183060000041417F7F00000060
:10026000080C0603060C0800808080808080808057
:100270000000030704000000207454543C78400040
:10028000413F7F44447C3800387C44446C28000063
:10029000307848493F7F4000387C54545C18000057
:1002A000487E7F490302000098BCA4A4F87C0400A7
:1002B000417F7F08047C780000447D7D4000000081
:1002C00040C484FD7D000000417F7F10386C4400F5
:1002D00000417F7F400000007C7C0C180C7C780083
:1002E0007C7C04047C780000387C44447C3800002A
:1002F00084FCF8A4243C1800183C24A4F8FC8400D6
:10030000447C78441C180000485C54547424000059
:1003100000043E7F442400003C7C40403C7C400084
:100320001C3C60603C1C00003C7C6030607C3C00FD
:10033000446C3810386C44009CBCA0A0FC7C0000CD
:100340004C64745C4C64000008083E774141000036
:1003500000000077770000004141773E0808000068
:10036000020301030203010011241FBECFEFD4E0FA
:10037000DEBFCDBF11E0A0E0B1E0ECE5FDE102C0E1
:1003800005900D92A236B107D9F721E0A2E6B1E0BF
:1003900001C01D92AE36B207E1F70E94E0070C944F
:1003A000AC0E0C94000064E074E084E00E94DC0772
:1003B0008091620190916301892BD1F310926301C6
:1003C0001092620180E094E00E94D807089565E0F1
:1003D00074E085E00E94DC078091620190916301E6
:1003E000892BD1F3109263011092620180E094E0B6
:1003F0000E94D807089566E074E086E00E94DC075A
:100400008091620190916301892BD1F31092630175
:100410001092620180E094E00E94D807089567E09E
:1004200074E087E00E94DC07809162019091630193
:10043000892BD1F3109263011092620180E094E065
:100440000E94D8070895CF930E94D301C82F0E941D
:10045000E701F82FE4E6EC9FC001112423E830E027
:10046000B9010E942C0A462FEF9FC0011124B90147
:100470000E942C0A8CE9840F9CE9960FCF91089575
:100480000E942302692F982F762F873F4CF4880211
:10049000A0011124660290011124241735071CF1D4
:1004A0009A304CF08802A0011124660290011124B8
:1004B00024173507D4F0773F4CF48802A0011124AB
:1004C000660290011124421753078CF07A308CF0A9
:1004D0008802C0011124660290011124821793073B
:1004E00054F084E0089580E0089581E0089583E069
:1004F000089584E0089582E00895B898B998089521
:10050000789485B7826085BF85B78E7F85BF8BB7AE
:1005100080648BBF8BB780688BBF08951F920F924A
:100520000FB60F9211248F939F9381E090E09093E8
:100530006301809362019F918F910F900FBE0F9086
:100540001F9018958F929F92AF92BF92CF92DF9299
:10055000EF92FF920F931F93CF93DF936C01DC0117
:1005600012968D919C911397181619060CF03FC0A6
:100570008601E12CF12CC0E0D0E0F601A688B78816
:10058000AC16BD06F1F445019694982C88249794F6
:100590008794B40186E091E00E94CA06B401685FC6
:1005A0007F4FF2E0AF0EB11CF501EE0FFF1FEC0D17
:1005B000FD1D0190F081E02D808D918D0E94CA0675
:1005C0000AC0D8011496ED91FC911597B701808D62
:1005D000918D0E94CA0621960E5F1F4FB0E8EB0E68
:1005E000F11CF60182819381C817D90734F2DF919B
:1005F000CF911F910F91FF90EF90DF90CF90BF9020
:10060000AF909F908F900895EC010E94400284303B
:1006100009F452C00E944002813019F108F440C030
:10062000823089F0833009F043C08E899F8901961A
:100630002A813B812817390719F41F8A1E8A38C07E
:100640009F8B8E8B35C08E899F89009731F48A816C
:100650009B8101979F8B8E8B2BC001979F8B8E8BDD
:1006600027C0EE89FF893296EE0FFF1FEC0FFD1FAA
:100670000190F081E02D82819381892BB1F40E9459
:100680009607EE89FF893296EE0FFF1FEC0FFD1FD4
:100690000190F081E02D0190F081E02D099508C0D6
:1006A0008C899D89009719F403C0EF0101C0EC010A
:1006B0000E9440028430E1F70E949607CE010E941A
:1006C000A2020E945B07A1CF0E9496070E945B07CF
:1006D0000E944002833039F467EA70E087EA90E0D4
:1006E0000E94DC07F5CF66EA70E086EA90E00E949F
:1006F000DC07EECF0CE010E0C7E1D0E06894CC243A
:10070000C1F8D12C0F2EF3E0EF2EF12CF02D03C009
:10071000F194E194F108C8010197CE9718F0D194B3
:10072000C194D108B801CE010E94E5060E945B0782
:1007300080E090EF0197F1F7CE0DDF1D0C0D1D1D30
:10074000CE0101978E37910518F7E5CFCF93DF9350
:10075000CDB7DEB766970FB6F894DEBF0FBECDBF3C
:100760000E9496070E945B071C8A1B8A1E8A1D8AAC
:100770001B821C8228EF2D8381E48E83312C212C57
:100780009CE79983A2E4AA8380E090E0A0E0B0E037
:100790008B879C87AD87BE871F86188AB0E8B98B88
:1007A000EFE3EA8B80E00E94AC070E940F02982ED4
:1007B000969496940E94FB01B82EB694B6946B81E1
:1007C0007C818D819E810E94E2086B017C01632DFA
:1007D000722D89819A810E94E2082B013C01B601A9
:1007E000C2010E941F07C601DD200CF407968C0190
:1007F000159507951595079515950795C801805589
:100800009F4FBC010E94DC07C2018F709927BC0179
:100810000E94DC07C20195958795959587959595DA
:100820008795959587954096BC010E94DC07005FEF
:100830001F4FC8019695982F882797958795840D07
:10084000951D0E94D8079927BC017E5F0E94DC0796
:100850002F85388949895A89632D722D89819A811A
:100860000E947A08362E272E89839A832B853C8511
:100870004D855E856B817C818D819E810E947A0889
:100880006B837C838D839E8320E030E040E050E0EA
:10089000632D722D89819A810E94DE08181634F02A
:1008A0008B899C8901969C8B8B8BA1C120E030E0C9
:1008B0004EEF52E4632D722D89819A810E94C50901
:1008C000882334F0AD89BE891196BE8BAD8B8FC164
:1008D00020E030E040E850E4632D722D89819A8158
:1008E0000E94DE08811149C00B2D10E0B8016C5F39
:1008F0007F4F882777FD8095982F0E9415099B01CF
:10090000AC016B817C818D819E810E94DE0818166E
:100910000CF485C0B80164507109882777FD809573
:10092000982F0E9415099B01AC016B817C818D8100
:100930009E810E94C50988230CF471C0B8018827E4
:1009400077FD8095982F0E9415099B01AC016B8162
:100950007C818D819E810E94790820E030E040E01A
:100960005EE30E94C9096B877C878D879E871F86FF
:10097000188A198ABFE3BA8B52C020E030E046EFF4
:1009800052E4632D722D89819A810E94DE088111C3
:1009900046C0092D10E0B8016C5F7F4F882777FDB6
:1009A0008095982F0E9415099B01AC016B817C8179
:1009B0008D819E810E94DE0818168CF1B80164506A
:1009C0007109882777FD8095982F0E9415099B0152
:1009D000AC016B817C818D819E810E94C509882339
:1009E000F4F0B801882777FD8095982F0E941509AB
:1009F0009B01AC016B817C818D819E810E94790875
:100A000020E030E040E05EE30E94C9096B877C870C
:100A10008D879E871F86188A198AEFEBEA8B20E064
:100A200030E040E050E06B817C818D819E810E94AE
:100A3000DE08181664F420E030E04CE752E46B81E5
:100A40007C818D819E810E94C50988234CF08B8515
:100A50009C85AD85BE85B0588B879C87AD87BE874A
:100A600003E018E0B80180E090E00E94DC07B801E4
:100A700067587F4F80E090E00E94DC0700581F4FCE
:100A800003309CE0190771F78B2D90E08C01045026
:100A900011095C01A5E0AA0EB11C292D30E0490125
:100AA000881A990AB80183E090E00E94E506B40133
:100AB000600F711F8CE790E00E94E5060F5F1F4FEB
:100AC0000A151B0579F76B817C818D819E810E94BF
:100AD000E2086F83788789879A87632D722D8981D1
:100AE0009A810E94E2084B015C016F817885C40104
:100AF0000E94E506B601C2010E941F0703E018E04C
:100B00000F2EF0EBEF2EF02DF12CB701C7010E9454
:100B1000DC0763E070E083E090E00E94DC0760E1C6
:100B200070E080E190E00E94DC07C8010E94D807D5
:100B30009927BC017E5F0E94DC076CE070E08CE0CE
:100B400090E00E94DC0767E170E087E190E00E949E
:100B5000DC07C80187589F4F0E94D8079927BC011E
:100B60007E5F0E94DC07BFEFEB1AFB0A00581F4FA5
:100B7000E8EBEE16F10449F68F81988599230CF481
:100B800007968C0115950795159507951595079569
:100B9000C80180559F4FBC010E94DC07C4018F70C3
:100BA0009927BC010E94DC07C4019595879595950E
:100BB000879595958795959587954096BC010E9458
:100BC000DC07005F1F4FC8019695982F88279795DF
:100BD0008795880D991D0E94D8079927BC017E5FD3
:100BE0000E94DC070E94B207C297E0F3DBCD0E94AF
:100BF000960762EB71E08B89805D0E949C06FC8900
:100C0000FF932B892F93A8E0B1E0BF93AF930E948D
:100C10009F0A66EC71E08D89805D0E949C060E94AF
:100C20005B07FFEF2FEF8DE1F15020408040E1F7AF
:100C300000C000000E9496070E945B070F900F9073
:100C40000F900F9095CD6EEA70E08EEA0E94DC075F
:100C500061EA70E081EA0E94DC076AED70E08AEDEB
:100C60000E94DC0762E170E082E10E94DC0768EC30
:100C700070E088EC0E94DC0768EA70E088EA0E9475
:100C8000DC076FE370E08FE30E94DC0765ED70E046
:100C900085ED0E94DC0760E870E080E80E94DC07D8
:100CA00061E870E081E80E94DC0760E570E080E5C3
:100CB0000E94DC0769ED70E089ED0E94DC0761E2CB
:100CC00070E081E20E94DC0760E270E080E20E9456
:100CD000DC0762E070E082E00E94DC076BED70E010
:100CE0008BED0E94DC0760E370E080E30E94DC078C
:100CF0006DEA70E08DEA0E94DC0760E070E080E061
:100D00000E94DC0764EA70E084EA0E94DC0766EA7D
:100D100070E086EA0E94DC0763ED70E083ED0E94DC
:100D2000DC0760E070E080E00E94DC076FEA70E0C2
:100D30008FEA0E94DC070895EF92FF920F931F93B2
:100D4000CF93DF93EB01D85F8052E82EF12CEE0CAD
:100D5000FF1CEE0CFF1CEE0CFF1CC701861B970B43
:100D600000E010E09C01205937407901F701EC0FB9
:100D7000FD1F8491BE010E94DC070F5F1F4F21966B
:100D80000830110599F7DF91CF911F910F91FF90D6
:100D9000EF9008950F931F93CF93DF93FC01808111
:100DA000882371F0C62FD72F8F010F5F1F4FBE0111
:100DB0000E949C06F80181918F0128968111F7CF3E
:100DC000DF91CF911F910F9108950F931F93CF93B0
:100DD000DF938038910570F56034710558F5EB01AB
:100DE00077230CF42796D595C795D595C795D595B6
:100DF000C7959E01220F331F220F331F220F331F6F
:100E00008B01021B130B6096D695DC2FCC27D79550
:100E1000C795C80FD91FCE010E94D80761E070E0C6
:100E20009B0102C0220F331F0A95E2F7BE01822BFD
:100E30000E94DC07DF91CF911F910F9108950F93CE
:100E40001F93CF93DF938038910580F5603471054F
:100E500068F5EB0177230CF42796D595C795D595C2
:100E6000C795D595C7959E01220F331F220F331FBB
:100E7000220F331F8B01021B130B6096D695DC2FBC
:100E8000CC27D795C795C80FD91FCE010E94D80788
:100E900061E070E09B0102C0220F331F0A95E2F768
:100EA00089010095BE0180230E94DC07DF91CF916C
:100EB0001F910F910895EF92FF920F931F93CF937D
:100EC000DF9300E018E00F2EF0EBEF2EF12CF02D69
:100ED000B7018E2D0E94DC0760E070E080E00E9488
:100EE000DC0760E170E080E10E94DC07C0E0D0E058
:100EF000CE01800F911F0E94D807682F70E07E5F9F
:100F00000E94DC072196C038D10591F78FEFE81ACF
:100F1000F80A00581F4F88EBE816F104C9F6DF9174
:100F2000CF911F910F91FF90EF900895CF93DF9392
:100F3000C0E0D8E0BE0180E00E94DC072196C11528
:100F40008CE0D807B9F7DF91CF91089585E083BF92
:100F500089B78C7F89BF08959FB7F89482BF9FBFE0
:100F6000789408959FB7F89482B79FBF789490E0E3
:100F700008955D9BFECF8CB908955F9BFECF8CB129
:100F8000089590BD89B988E18AB98EE880BD6DEB7E
:100F900077E089EB97E00E94540A089585B780684E
:100FA00085BF80B7806280BF80B7877E80BF08958D
:100FB000905FFC0180810895FB01F05F80830895BC
:100FC000CF93DF93CDB7DEB7C65BD1090FB6F894E8
:100FD000DEBF0FBECDBF8FE190E00E94C1070E942F
:100FE000CE070E9480020E947D0288E191E09F93DB
:100FF0008F930E949F0A0E9423060E94A6070E94C8
:1010000096070E945B0787E291E09A8F898F23E021
:1010100030E03C832B83188E1F8ACE01019698AB5B
:101020008FA71E8E1D8E41E351E05CAB4BAB2B9620
:101030009FAF8EAF2B9738AF2FAB26E331E02F96C3
:101040003FAF2EAF2F97FE01E15BFF4F958B848B57
:101050001382128225E431E0318F208F1E8A1D8A8F
:101060009E01255E3F4F3E832D83AE014B5C5F4F5B
:1010700058874F83FA87E987225B3F4FF901558BE9
:10108000448B138212826AE471E0718F608F66EA8A
:1010900073E071836083DE01AD57BF4F55965C935B
:1010A0004E93549713961C921E9212976FE471E020
:1010B00059967C936E9358976AE773E011967C93E8
:1010C0006E93F496558B448B138212824AE551E05D
:1010D000518F408F44E653E0518340833AAF29AFAC
:1010E000BCAFABAFFEAFEDAF0E9404030F900F900B
:1010F000FFCF5058BB27AA270ED00DC1FED030F02D
:1011000003D120F031F49F3F11F41EF4F3C00EF42C
:10111000E095E7FBE9C0E92F0FD180F3BA1762072A
:1011200073078407950718F071F49EF527C10EF434
:10113000E0950B2EBA2FA02D0B01B90190010C01E7
:10114000CA01A0011124FF27591B99F0593F50F4FF
:10115000503E68F11A16F040A22F232F342F442757
:10116000585FF3CF469537952795A795F04053954F
:10117000C9F77EF41F16BA0B620B730B840BBAF01F
:101180009150A1F0FF0FBB1F661F771F881FC2F78A
:101190000EC0BA0F621F731F841F48F4879577959E
:1011A0006795B795F7959E3F08F0B3CF9395880F55
:1011B00008F09927EE0F97958795089571D008F458
:1011C00081E0089504D06894B111D9C00895BCD0CD
:1011D00088F09F5790F0B92F9927B751A0F0D1F020
:1011E000660F771F881F991F1AF0BA95C9F712C0AA
:1011F000B13081F0C3D0B1E00895C0C0672F782F1F
:101200008827B85F39F0B93FCCF386957795679515
:10121000B395D9F73EF490958095709561957F4F81
:101220008F4F9F4F0895E89409C097FB3EF4909527
:101230008095709561957F4F8F4F9F4F9923A9F0AF
:10124000F92F96E9BB279395F6958795779567953E
:10125000B795F111F8CFFAF4BB0F11F460FF1BC082
:101260006F5F7F4F8F4F9F4F16C0882311F096E915
:1012700011C0772321F09EE8872F762F05C06623C3
:1012800071F096E8862F70E060E02AF09A95660F7C
:10129000771F881FDAF7880F9695879597F9089535
:1012A000990F0008550FAA0BE0E8FEEF1616170677
:1012B000E807F907C0F012161306E407F50798F0DF
:1012C000621B730B840B950B39F40A2661F0232BF8
:1012D000242B252B21F408950A2609F4A140A69574
:1012E0008FEF811D811D089597F99F6780E870E059
:1012F00060E008959FEF80EC089500240A9416168C
:10130000170618060906089500240A9412161306F3
:10131000140605060895092E0394000C11F4882381
:1013200052F0BB0F40F4BF2B11F460FF04C06F5F9D
:101330007F4F8F4F9F4F089557FD9058440F551F73
:1013400059F05F3F71F04795880F97FB991F61F047
:101350009F3F79F087950895121613061406551FBE
:10136000F2CF4695F1DF08C0161617061806991F2A
:10137000F1CF86957105610508940895E894BB271F
:1013800066277727CB0197F908958ADF08F48FEF56
:1013900008950BD0C0CFB1DF28F0B6DF18F0952349
:1013A00009F0A2CFA7CF1124EACFC6DFA0F3959F03
:1013B000D1F3950F50E0551F629FF001729FBB273C
:1013C000F00DB11D639FAA27F00DB11DAA1F649FE8
:1013D0006627B00DA11D661F829F2227B00DA11D9B
:1013E000621F739FB00DA11D621F839FA00D611D21
:1013F000221F749F3327A00D611D231F849F600D42
:10140000211D822F762F6A2F11249F5750408AF07A
:10141000E1F088234AF0EE0FFF1FBB1F661F771F06
:10142000881F91505040A9F79E3F510570F05CCF46
:10143000A6CF5F3FECF3983EDCF3869577956795F2
:10144000B795F795E7959F5FC1F7FE2B880F911D24
:101450009695879597F9089597FB072E16F40094B3
:1014600007D077FD09D00E94400A07FC05D03EF462
:10147000909581959F4F0895709561957F4F089540
:10148000AA1BBB1B51E107C0AA1FBB1FA617B707AA
:1014900010F0A61BB70B881F991F5A95A9F78095C6
:1014A0009095BC01CD0108950F931F93CF93DF93C7
:1014B000EC018B01009731F46115710519F480E09E
:1014C00090E038C06EE070E081E090E00E94850C12
:1014D000FC010097A1F380E883830115110571F0E9
:1014E0001387028781E8838380916401909165016D
:1014F000892B21F4F0936501E09364012097C9F0F2
:10150000D187C087838182608383809166019091B7
:101510006701892B71F4F0936701E0936601809174
:10152000680190916901892B21F4F0936901E0939E
:101530006801CF01DF91CF911F910F910895A0E035
:10154000B0E0E5EAFAE00C94850EFE013596619173
:101550007191AF0180916601909167010E94B30A79
:10156000E2E00C94A10EACE0B0E0E9EBFAE00C9400
:10157000750E7C016B018A01FC0117821682838142
:1015800081FFBDC1CE0101964C01F7019381F601A7
:1015900093FD859193FF81916F01882309F4ABC17D
:1015A000853239F493FD859193FF81916F018532E6
:1015B00029F4B70190E00E94E50DE7CF512C312CC2
:1015C00020E02032A0F48B3269F030F4803259F000
:1015D000833269F420612CC08D3239F0803339F4C4
:1015E000216026C02260246023C0286021C027FD1E
:1015F00027C030ED380F3A3078F426FF06C0FAE005
:101600005F9E300D1124532E13C08AE0389E300D9A
:101610001124332E20620CC08E3221F426FD6BC1C2
:10162000206406C08C3611F4206802C0883641F46C
:10163000F60193FD859193FF81916F018111C1CFD7
:10164000982F9F7D9554933028F40C5F1F4FFFE334
:10165000F9830DC0833631F0833771F0833509F09B
:101660005BC022C0F801808189830E5F1F4F442434
:101670004394512C540115C03801F2E06F0E711CD7
:10168000F801A080B18026FF03C0652D70E002C084
:101690006FEF7FEFC5012C870E94DA0D2C018301CB
:1016A0002C852F77222E17C03801F2E06F0E711CA7
:1016B000F801A080B18026FF03C0652D70E002C054
:1016C0006FEF7FEFC5012C870E94C80D2C012C8580
:1016D0002068222E830123FC1BC0832D90E0481636
:1016E0005906B0F4B70180E290E00E94E50D3A940B
:1016F000F4CFF50127FC859127FE81915F01B701A9
:1017000090E00E94E50D31103A94F1E04F1A510833
:101710004114510471F7E5C0843611F0893639F56A
:10172000F80127FF07C060817181828193810C5F7E
:101730001F4F08C060817181882777FD8095982FA1
:101740000E5F1F4F2F76B22E97FF09C090958095A0
:10175000709561957F4F8F4F9F4F2068B22E2AE082
:1017600030E0A4010E94170EA82EA81844C08537A7
:1017700029F42F7EB22E2AE030E025C0F22FF97F27
:10178000BF2E8F36C1F018F4883579F0B4C0803799
:1017900019F0883721F0AFC02F2F2061B22EB4FE90
:1017A0000DC08B2D8460B82E09C024FF0AC09F2F66
:1017B0009660B92E06C028E030E005C020E130E098
:1017C00002C020E132E0F801B7FE07C060817181FC
:1017D000828193810C5F1F4F06C06081718180E020
:1017E00090E00E5F1F4FA4010E94170EA82EA818AC
:1017F000FB2DFF77BF2EB6FE0BC02B2D2E7FA51421
:1018000050F4B4FE0AC0B2FC08C02B2D2E7E05C0D9
:101810007A2C2B2D03C07A2C01C0752C24FF0DC00F
:10182000FE01EA0DF11D8081803311F4297E09C08B
:1018300022FF06C07394739404C0822F867809F047
:10184000739423FD13C020FF06C05A2C731418F4A0
:10185000530C5718732C731468F4B70180E290E0AE
:101860002C870E94E50D73942C85F5CF731410F42A
:10187000371801C0312C24FF12C0B70180E390E07B
:101880002C870E94E50D2C8522FF17C021FF03C085
:1018900088E590E002C088E790E0B7010CC0822F95
:1018A000867859F021FD02C080E201C08BE227FD5D
:1018B0008DE2B70190E00E94E50DA51438F4B70160
:1018C00080E390E00E94E50D5A94F7CFAA94F401CA
:1018D000EA0DF11D8081B70190E00E94E50DA11095
:1018E000F5CF332009F451CEB70180E290E00E9499
:1018F000E50D3A94F6CFF7018681978102C08FEF0C
:101900009FEF2C96E2E10C94910E0F931F93CF93CF
:10191000DF93869F8001879F100D969F100D1124E5
:10192000C8010E94A10CEC01009729F0A80160E019
:1019300070E00E94D30DCE01DF91CF911F910F91E6
:101940000895CF93DF938230910510F482E090E008
:10195000E0916C01F0916D0120E030E0A0E0B0E09A
:10196000309739F14081518148175907B8F048172D
:10197000590771F482819381109729F013969C93F3
:101980008E9312972CC090936D0180936C0127C0A9
:101990002115310531F04217530718F0A901DB0179
:1019A00001C0EF019A01BD01DF010280F381E02D4A
:1019B000D7CF21153105F9F0281B390B243031051B
:1019C00080F48A819B816115710521F0FB0193836D
:1019D000828304C090936D0180936C01FE01329666
:1019E00044C0FE01E20FF31F81939193225031090D
:1019F000398328833AC020916A0130916B01232BEF
:101A000041F4209102013091030130936B01209346
:101A10006A0120910001309101012115310541F445
:101A20002DB73EB74091040150910501241B350BA1
:101A3000E0916A01F0916B01E217F307A0F42E1B0D
:101A40003F0B2817390778F0AC014E5F5F4F241722
:101A5000350748F04E0F5F1F50936B0140936A01AA
:101A60008193919302C0E0E0F0E0CF01DF91CF914C
:101A70000895CF93DF93009709F487C0FC01329754
:101A800013821282C0916C01D0916D01209781F474
:101A900020813181280F391F80916A0190916B015B
:101AA0008217930779F5F0936B01E0936A016DC09B
:101AB000DE0120E030E0AE17BF0750F412964D91E2
:101AC0005C9113979D014115510509F1DA01F3CF9E
:101AD000B383A28340815181840F951F8A179B078E
:101AE00071F48D919C911197840F951F02969183AB
:101AF000808312968D919C911397938382832115F5
:101B0000310529F4F0936D01E0936C013EC0D901D9
:101B10001396FC93EE9312974D915D91A40FB51F10
:101B2000EA17FB0779F480819181840F951F029653
:101B3000D90111969C938E938281938113969C93E5
:101B40008E931297E0E0F0E08A819B81009719F074
:101B5000FE01EC01F9CFCE01029628813981820F76
:101B6000931F20916A0130916B012817390769F49E
:101B7000309729F410926D0110926C0102C013820B
:101B80001282D0936B01C0936A01DF91CF910895C7
:101B9000FC010590615070400110D8F78095909538
:101BA0008E0F9F1F0895DC0101C06D93415050407E
:101BB000E0F70895FC016150704001900110D8F7E2
:101BC000809590958E0F9F1F08950F931F93CF932D
:101BD000DF93182F092FEB018B8181FD03C08FEF5D
:101BE0009FEF20C082FF10C04E815F812C813D811C
:101BF000421753077CF4E881F9819F012F5F3F4F23
:101C000039832883108306C0E885F985812F0995DB
:101C1000892B29F72E813F812F5F3F4F3F832E83F2
:101C2000812F902FDF91CF911F910F910895FA018D
:101C3000AA27283051F1203181F1E8946F936E7F0B
:101C40006E5F7F4F8F4F9F4FAF4FB1E03ED0B4E0FC
:101C50003CD0670F781F891F9A1FA11D680F791F3D
:101C60008A1F911DA11D6A0F711D811D911DA11D4E
:101C700020D009F468943F912AE0269F112430195E
:101C8000305D3193DEF6CF010895462F4770405DF9
:101C90004193B3E00FD0C9F7F6CF462F4F70405DA8
:101CA0004A3318F0495D31FD4052419302D0A9F703
:101CB000EACFB4E0A6959795879577956795BA95FD
:101CC000C9F700976105710508959B01AC010A2EC3
:101CD00006945795479537952795BA95C9F7620F9A
:101CE000731F841F951FA01D08952F923F924F923E
:101CF0005F926F927F928F929F92AF92BF92CF929C
:101D0000DF92EF92FF920F931F93CF93DF93CDB7A4
:101D1000DEB7CA1BDB0B0FB6F894DEBF0FBECDBF1C
:101D200009942A88398848885F846E847D848C84ED
:101D30009B84AA84B984C884DF80EE80FD800C81F6
:101D40001B81AA81B981CE0FD11D0FB6F894DEBFD9
:0C1D50000FBECDBFED010895F894FFCF49
:101D5C0000006E0120002D006C656674506F696E7A
:101D6C007473203D202564005374617274696E672E
:101D7C002E2E2E2E0A0D004D61696E206D656E752E
:101D8C000073756230004D6F726F66756E6B736A9F
:101D9C006F6E6572007375623200706F6E670054FF
:101DAC00686F6D61732720434400496E76657273CA
:021DBC00000025
:00000001FF
