:100000000C9438000C9437010C944B010C9455005F
:100010000C9455000C9455000C9455000C9455000C
:100020000C9455000C9455000C9455000C945500FC
:100030000C9455000C9455000C9455000C945500EC
:100040000C9455000C9455000C9455000C945500DC
:100050000C9455000C9455000C9455000C945500CC
:100060000C9455000C9455000C9455000C945500BC
:1000700011241FBECFEFD4E0DEBFCDBF12E0A0E061
:10008000B1E0E0EFFFE002C005900D92AE31B107A4
:10009000D9F722E0AEE1B2E001C01D92AA32B20768
:1000A000E1F70E9446030C94F6070C9400000E94AE
:1000B000E30165E88BE20E94F60140E460EE8FE028
:1000C0000E94210240E660E680E60E9421028FE065
:1000D0000E94E80186FF08C086E091E09F938F931D
:1000E0000E94D4030F900F9008950F931F93CF9306
:1000F000DF93EC01698181E30E94F60189811F92FF
:100100008F9388E291E09F938F930E94D40368813C
:1001100082E30E94F6018881998199279F938F93AA
:1001200086E491E09F938F930E94D4036A8185E3D4
:100130000E94F6018E01075C1F4F8DB79EB708968F
:100140000FB6F8949EBF0FBE8DBFC6E3F801619154
:100150008F018C2F0E94F601CF5FCF33B9F780E07B
:1001600090E00E940802DF91CF911F910F910895B6
:10017000AF92BF92CF92DF92EF92FF920F931F93B5
:10018000CF93DF93CDB7DEB72B970FB6F894DEBFD2
:100190000FBECDBF5C0182E60E94E801082FE82E69
:1001A000F12C81E60E94E801182FC82ED12C1F9255
:1001B0000F9383E691E09F938F930E94D4031F9245
:1001C0001F938EE791E09F938F930E94D403DC2CC2
:1001D000CC24CE0CDF1C85E60E94E801082F7E01AE
:1001E0008AE6E80EF11C0FB6F894DEBF0FBECDBF55
:1001F00016E6812F0E94E801F70181937F011F5FBE
:100200001F36B9F7DA82C9820B838BE0FE01319683
:10021000D50101900D928A95E1F7C5012B960FB695
:10022000F894DEBF0FBECDBFDF91CF911F910F912C
:10023000FF90EF90DF90CF90BF90AF900895B89867
:10024000B9980895F89485B7826085BF85B78E7F89
:1002500085BF85B7886085BF85B78B7F85BF8BB726
:1002600080648BBF8BB780688BBF789408951F9292
:100270000F920FB60F9211248F939F9381E090E01D
:1002800090931F0280931E029F918F910F900FBE3B
:100290000F901F9018951F920F920FB60F92112476
:1002A0002F933F934F935F936F937F938F939F937E
:1002B000AF93BF93EF93FF93CF93DF93CDB7DEB7A9
:1002C0002B97DEBFCDBF89E991E09F938F930E946A
:1002D000D4030E9439021F928F9387EA91E09F9383
:1002E0008F930E94D4038CE20E94E8010F900F903C
:1002F0000F900F900F900F9082FF0DC08DEA91E04C
:100300009F938F930E94D40340E064E08CE20E94AC
:1003100021020F900F908CE20E94E80180FF27C01D
:10032000CE0101960E94B80089EC91E09F938F93D3
:100330000E94D4038A818F9389818F9384EE91E008
:100340009F938F930E94D4038B811F928F938FEE84
:1003500091E09F938F930E94D40340E061E08CE290
:100360000E9421020FB6F894DEBF0FBECDBF8CE213
:100370000E94E801882344F48DEF91E09F938F93CE
:100380000E94D4030F900F902B960FB6F894DEBF07
:100390000FBECDBFDF91CF91FF91EF91BF91AF9194
:1003A0009F918F917F916F915F914F913F912F918D
:1003B0000F900FBE0F901F901895C49880EC0E946C
:1003C0000F03C49A08950E9402030E94DD0108955C
:1003D000CF93C82FC49883E00E940F038C2F0E94F4
:1003E0000F030E941303C49ACF910895CF93DF9314
:1003F000D82FC62FC49882E00E940F038D2F0E9431
:100400000F038C2F0E940F03C49ADF91CF910895A0
:10041000C498009721F481E80E940F0310C0813036
:10042000910521F482E80E940F0309C0029721F48C
:1004300084E80E940F0303C087E80E940F03C49A58
:1004400008951F93CF93DF93182FD62FC42FC498EE
:1004500085E00E940F03812F0E940F038D2F0E94C1
:100460000F038C2F0E940F03C49ADF91CF911F912D
:100470000895C49880EA0E940F030E941303C49A4F
:1004800008956EEA70E08EEA0E94420361EA70E02D
:1004900081EA0E9442036AED70E08AED0E94420305
:1004A00062E170E082E10E94420368EC70E088EC57
:1004B0000E94420368EA70E088EA0E9442036FE308
:1004C00070E08FE30E94420365ED70E085ED0E94CD
:1004D000420360E870E080E80E94420361E870E057
:1004E00081E80E94420360E570E080E50E944203DB
:1004F00069ED70E089ED0E94420361E270E081E203
:100500000E94420360E270E080E20E94420362E0E7
:1005100070E082E00E9442036BED70E08BED0E9480
:10052000420360E370E080E30E9442036DEA70E002
:100530008DEA0E94420360E070E080E00E94420386
:1005400064EA70E084EA0E94420366EA70E086EAA8
:100550000E94420363ED70E083ED0E94420360E07D
:1005600070E080E00E9442036FEA70E08FEA0E9430
:1005700042030895EF92FF920F931F93CF93DF935F
:10058000C0E0D8E00F2EF0EBEF2EF12CF02DB701EC
:100590008E2D0E94420360E070E080E00E944203E2
:1005A00060E170E080E10E9442038E0100581F4F1D
:1005B000CE010E943E03682F70E07E5F0E944203DE
:1005C0002196C017D107A1F78FEFE81AF80AE801C2
:1005D00001151C40E1F6DF91CF911F910F91FF9023
:1005E000EF900895CF93DF93C0E0D8E0BE0180E0A4
:1005F0000E9442032196C1158CE0D807B9F7DF911C
:10060000CF91089587B3806B87BBBE988DB180650D
:100610008DB96D986B986A986898699808958FB9A4
:10062000779BFECF08958FEF8FB9779BFECF8FB169
:10063000089585E083BF89B78C7F89BF08955D9B4E
:10064000FECF8CB908955F9BFECF8CB1089590BD0D
:1006500089B988E18AB98EE880BD63E273E08FE1F1
:1006600093E00E948903089585B7806885BF80B7AD
:10067000806280BF80B7877E80BF0895905FFC0155
:1006800080810895FB01F05F80830895CF93DF930D
:10069000CDB7DEB72B970FB6F894DEBF0FBECDBF38
:1006A0000E9422018FE190E00E9427030E94340300
:1006B0000E941F018CE092E09F938F930E94D403CD
:1006C0000E9419030E9457000E9441020E94F202F8
:1006D0000E94BA0280E19BEB9A83898383E08B833B
:1006E0000F900F902FEF8FE797E0215080409040C0
:1006F000E1F700C00000CE0101960E9475002FEFC7
:100700008FEF9AE4215080409040E1F700C0000054
:10071000E9CF0F931F93CF93DF93009731F46115C7
:10072000710519F480E090E03AC08B01EC016EE0B5
:1007300070E081E090E00E94CB05FC01892B91F3F1
:1007400080E883830115110571F01387028781E822
:1007500083838091200290912102892B21F4F093D0
:100760002102E09320022097C9F0D187C0878381BE
:10077000826083838091220290912302892B71F4FD
:10078000F0932302E09322028091240290912502AB
:10079000892B21F4F0932502E0932402CF01DF910D
:1007A000CF911F910F910895A0E0B0E0EAEDF3E042
:1007B0000C94CF07AE014B5F5F4FFA0161917191CD
:1007C000AF0180912202909123020E94EA03E2E0AD
:1007D0000C94EB07ABE0B0E0E0EFF3E00C94BF0764
:1007E0006C017B018A01FC0117821682838181FFE3
:1007F000CCC1CE0101963C01F6019381F70193FD36
:10080000859193FF81917F01882309F4BAC18532D4
:1008100039F493FD859193FF81917F01853229F40D
:10082000B60190E00E942507E7CF912C212C312CB6
:10083000FFE1F315D8F08B3279F038F4803279F09B
:100840008332A1F4232D20611DC08D3261F08033ED
:1008500069F4232D216016C0832D8260382EE32D8C
:10086000E4603E2E2AC0F32DF8601DC037FC2DC079
:1008700020ED280F2A3040F08E32B9F436FC81C1C9
:10088000232D2064322E19C036FE06C08AE0989EC1
:10089000200D1124922E11C0EAE02E9E200D11246D
:1008A000222EF32DF0623F2E08C08C3621F4832DCA
:1008B0008068382E02C0883641F4F70193FD859197
:1008C00093FF81917F018111B3CF982F9F7D955424
:1008D000933028F40C5F1F4F9FE399830DC083363C
:1008E00031F0833771F0833509F059C021C0F80128
:1008F000808189830E5F1F4F88248394912C53013C
:1009000013C02801F2E04F0E511CF801A080B18005
:1009100036FE03C0692D70E002C06FEF7FEFC501A6
:100920000E941A074C018201F32DFF773F2E16C05B
:10093000280122E0420E511CF801A080B18036FE51
:1009400003C0692D70E002C06FEF7FEFC5010E9408
:1009500008074C01F32DF0683F2E820133FC1BC0C9
:10096000822D90E088169906B0F4B60180E290E0FE
:100970000E9425072A94F4CFF50137FC859137FEB4
:1009800081915F01B60190E00E94250721102A9411
:1009900021E0821A91088114910471F7E8C084362D
:1009A00011F0893641F5F80137FE07C06081718189
:1009B000828193810C5F1F4F08C060817181072E77
:1009C000000C880B990B0E5F1F4FF32DFF763F2E07
:1009D00097FF09C090958095709561957F4F8F4FD7
:1009E0009F4FF0683F2E2AE030E0A3010E9461078C
:1009F000882E861845C0853731F4232D2F7EB22EE0
:100A00002AE030E025C0932D997FB92E8F36C1F0B2
:100A100018F4883579F0B5C0803719F0883721F09F
:100A2000B0C0E92FE061BE2EB4FE0DC0FB2DF46016
:100A3000BF2E09C034FE0AC0292F2660B22E06C080
:100A400028E030E005C020E130E002C020E132E0E3
:100A5000F801B7FE07C060817181828193810C5FCC
:100A60001F4F06C06081718180E090E00E5F1F4FD4
:100A7000A3010E946107882E8618FB2DFF773F2E69
:100A800036FE0DC0232D2E7FA22E891458F434FE7D
:100A90000BC032FC09C0832D8E7EA82E05C0B82C59
:100AA000A32C03C0B82C01C0B92CA4FE0FC0FE01BA
:100AB000E80DF11D8081803321F49A2D997EA92EB5
:100AC00009C0A2FE06C0B394B39404C08A2D8678F0
:100AD00009F0B394A3FC11C0A0FE06C0B21488F4C0
:100AE000280C922C9B180EC0B21460F4B60180E260
:100AF00090E00E942507B394F7CFB21418F42B1896
:100B000002C0982C212CA4FE10C0B60180E390E016
:100B10000E942507A2FE17C0A1FC03C088E790E051
:100B200002C088E590E0B6010CC08A2D867859F0A5
:100B3000A1FE02C08BE201C080E2A7FC8DE2B601FB
:100B400090E00E942507891438F4B60180E390E014
:100B50000E9425079A94F7CF8A94F301E80DF11DBE
:100B60008081B60190E00E9425078110F5CF2220F8
:100B700009F442CEB60180E290E00E9425072A9453
:100B8000F6CFF6018681978102C08FEF9FEF2B96FB
:100B9000E2E10C94DB070F931F93CF93DF93869FC3
:100BA0008001879F100D969F100D1124C8010E948F
:100BB000E705EC01009729F0A80160E070E00E94D1
:100BC0001307CE01DF91CF911F910F9108950F93DD
:100BD0001F93CF93DF938230910510F482E090E071
:100BE000E0912802F091290220E030E0A0E0B0E09E
:100BF000309719F1408151810281138148175907BB
:100C0000C8F08417950769F4109731F012960C9389
:100C1000129713961C9327C0009328021093290261
:100C200022C02115310519F04217530718F49A0113
:100C3000BD01EF01DF01F801DBCF21153105F9F02E
:100C4000281B390B2430310580F48A819B81611582
:100C5000710521F0FB019383828304C090932902E4
:100C600080932802FE01329644C0FE01E20FF31F7A
:100C70008193919322503109398328833AC020917E
:100C8000260230912702232B41F42091020130915A
:100C90000301309327022093260220910001309116
:100CA00001012115310541F42DB73EB740910401F2
:100CB00050910501241B350BE0912602F09127028B
:100CC000E217F307A0F42E1B3F0B2817390778F023
:100CD000AC014E5F5F4F2417350748F04E0F5F1F82
:100CE00050932702409326028193919302C0E0E043
:100CF000F0E0CF01DF91CF911F910F910895CF9335
:100D0000DF93009709F481C0FC01329713821282AD
:100D1000A0912802B0912902109781F4208131819D
:100D2000820F931F2091260230912702281739073E
:100D300051F5F0932702E093260267C0ED0120E011
:100D400030E0CE17DF0740F44A815B819E014115F8
:100D50005105F1F0EA01F5CFD383C283408151817F
:100D6000840F951FC817D90759F488819981840F7A
:100D7000951F0296918380838A819B8193838283CE
:100D80002115310529F4F0932902E09328023DC092
:100D9000E901FB83EA8349915991C40FD51FEC17F0
:100DA000FD0761F480819181840F951F0296E9010E
:100DB00099838883828193819B838A83E0E0F0E03A
:100DC00012968D919C911397009719F0FD01DC010B
:100DD000F7CF8D919C9111979D012E5F3F4F820F10
:100DE000931F20912602309127022817390769F4B2
:100DF000309729F4109229021092280202C013821F
:100E00001282B0932702A0932602DF91CF9108951A
:100E1000FC010590615070400110D8F780959095C5
:100E20008E0F9F1F0895DC0101C06D93415050400B
:100E3000E0F70895FC016150704001900110D8F76F
:100E4000809590958E0F9F1F08950F931F93CF93BA
:100E5000DF93FB01238121FD03C08FEF9FEF2CC0A7
:100E600022FF16C0468157812481358142175307DE
:100E700044F4A081B1819D012F5F3F4F31832083D6
:100E80008C93268137812F5F3F4F3783268314C091
:100E90008B01EC01FB010084F185E02D0995892B84
:100EA000E1F6D80116968D919C91179701961796A9
:100EB0009C938E931697CE01DF91CF911F910F9146
:100EC0000895FA01AA27283051F1203181F1E894E0
:100ED0006F936E7F6E5F7F4F8F4F9F4FAF4FB1E02D
:100EE0003ED0B4E03CD0670F781F891F9A1FA11D28
:100EF000680F791F8A1F911DA11D6A0F711D811D29
:100F0000911DA11D20D009F468943F912AE0269FED
:100F100011243019305D3193DEF6CF010895462F4C
:100F20004770405D4193B3E00FD0C9F7F6CF462F2D
:100F30004F70405D4A3318F0495D31FD4052419396
:100F400002D0A9F7EACFB4E0A69597958795779553
:100F50006795BA95C9F700976105710508959B01DA
:100F6000AC010A2E06945795479537952795BA9563
:100F7000C9F7620F731F841F951FA01D08952F923C
:100F80003F924F925F926F927F928F929F92AF9219
:100F9000BF92CF92DF92EF92FF920F931F93CF9366
:100FA000DF93CDB7DEB7CA1BDB0B0FB6F894DEBFFD
:100FB0000FBECDBF09942A88398848885F846E8423
:100FC0007D848C849B84AA84B984C884DF80EE806D
:100FD000FD800C811B81AA81B981CE0FD11D0FB676
:100FE000F894DEBF0FBECDBFED010895F894FFCF9A
:100FF00000002A02200043414E20636F6E74726F1E
:101000006C6C657220696E206C6F6F706261636BCF
:10101000206D6F64650A0D00686967686572204914
:101020004420746F2062652073656E74203D202516
:101030002358200A0D006C6F776572204944207494
:101040006F2062652073656E74203D202523582033
:101050000A0D007265636965766564206C6F77655B
:1010600072204944203D20252358200A0D00726536
:1010700063696576656420757070657220494420E7
:101080003D20252358200A0D0052656164207374A9
:10109000617475733A20002523580A0D004D65735D
:1010A000736167652073656E64742073756363652F
:1010B0007366756C6C790A0D002D2D2D204D6573AE
:1010C00073616765207265636965766564202D2D9F
:1010D0002D0A0D0049443A20252358200A0D004CC2
:1010E000656E6774683A202564200A0D0043414EFE
:1010F00020425553204552524F5221000A537461E9
:0E1100007274696E672E2E2E2E200A0D0000CE
:00000001FF
