S00C00006C6162382E73726563B1
S11300000C94B4010C94B8030C94CC030C94D1015B
S11300100C94D1010C94D1010C94D1010C94D10114
S11300200C94D1010C94D1010C94D1010C94D10104
S11300300C94D1010C94A8040C94D1010C94D1011A
S11300400C9484040C94D1010C94D1010C94D1012E
S11300500C94D1010C94D1010C94D1010C94D101D4
S11300600C94D1010C94D1010C94D1010C94D101C4
S1130070000000000000000000065F5F06000000B2
S11300800007070007070000147F7F147F7F140018
S1130090242E6B6B3A120000466630180C66620020
S11300A0307A4F5D377A48000407030000000000EF
S11300B0001C3E63410000000041633E1C00000040
S11300C0082A3E1C1C3E2A0808083E3E0808000078
S11300D000A0E0600000000008080808080800000C
S11300E000006060000000006030180C060301008E
S11300F03E7F594D7F3E000042427F7F40400000DA
S1130100627359496F660000226349497F360000D3
S1130110181C16137F7F1000276745457D390000A2
S11301203C7E4B4979300000036371190F070000CE
S1130130367F49497F360000064F49693F1E00005B
S113014000006C6C0000000000A0EC6C00000000DB
S1130150081C366341000000141414141414000025
S1130160004163361C080000020351590F060000C9
S11301703E7F415D5D1F1E007C7E13137E7C00006C
S1130180417F7F49497F36001C3E63414163220021
S1130190417F7F41637F1C00417F7F495D41630054
S11301A0417F7F491D0103001C3E6341517372006E
S11301B07F7F08087F7F000000417F7F41000000AF
S11301C0307040417F3F0100417F7F081C7763000E
S11301D0417F7F41406070007F7F060C067F7F0077
S11301E07F7F060C187F7F001C3E6341633E1C002A
S11301F0417F7F49090F06001E3F21717F5E000089
S1130200417F7F19396F460026674D597B320000C4
S113021003417F7F410300007F7F40407F7F0000D8
S11302201F3F60603F1F00007F7F3018307F7F00DA
S113023063771C081C776300074F78784F0700002A
S11302406773594D47637100007F7F41410000008F
S11302500103060C183060000041417F7F0000005C
S1130260080C0603060C0800808080808080808053
S11302700000030704000000207454543C7840003C
S1130280413F7F44447C3800387C44446C2800005F
S1130290307848493F7F4000387C54545C18000053
S11302A0487E7F490302000098BCA4A4F87C0400A3
S11302B0417F7F08047C780000447D7D400000007D
S11302C040C484FD7D000000417F7F10386C4400F1
S11302D000417F7F400000007C7C0C180C7C78007F
S11302E07C7C04047C780000387C44447C38000026
S11302F084FCF8A4243C1800183C24A4F8FC8400D2
S1130300447C78441C180000485C54547424000055
S113031000043E7F442400003C7C40403C7C400080
S11303201C3C60603C1C00003C7C6030607C3C00F9
S1130330446C3810386C44009CBCA0A0FC7C0000C9
S11303404C64745C4C64000008083E774141000032
S113035000000077770000004141773E0808000064
S1130360020301030203010011241FBECFEFD4E0F6
S1130370DEBFCDBF11E0A0E0B1E0E2EAF7E202C0E7
S113038005900D92A63CB107D9F721E0A6ECB1E0A7
S113039001C01D92A43DB207E1F70E94F90C0C9430
S11303A0CF130C94000064E074E084E00E94F50C28
S11303B08091C8019091C901892BD1F31092C90190
S11303C01092C80180E094E00E94F10C089565E069
S11303D074E085E00E94F50C8091C8019091C901F8
S11303E0892BD1F31092C9011092C80180E094E0E6
S11303F00E94F10C089566E074E086E00E94F50C1A
S11304008091C8019091C901892BD1F31092C9013F
S11304101092C80180E094E00E94F10C089567E016
S113042074E087E00E94F50C8091C8019091C901A5
S1130430892BD1F31092C9011092C80180E094E095
S11304400E94F10C0895CF93C82F0E940A0565E01D
S11304508BE20E941D054C2F60EE8FE00E94480540
S113046040E660E680E60E9448058FE00E940F05A2
S113047086FF08C086E091E09F938F930E945B0FF4
S11304800F900F90CF910895EF92FF920F931F93C7
S1130490CF937C01F894FC01608181E30E941D05E7
S11304A0F701618185E30E941D05F701818190E0D8
S11304B0C696C697A4F087010E5F1F4FC6E3F801E6
S11304C061918F018C2F0E941D05CF5F2C2F30E08E
S11304D0F701818190E0C6968217930784F780E044
S11304E090E00E942F057894CF911F910F91FF9077
S11304F0EF9008957F928F929F92AF92BF92CF9286
S1130500DF92EF92FF920F931F93CF93DF93CDB7B8
S1130510DEB72A970FB6F894DEBF0FBECDBF5C01DD
S113052081E60E940F05782E85E60E940F05082FAC
S1130530C82ED12C26E6C20ED11C36E6C316D10431
S1130540CCF07E0183E0E80EF11C16E6CE01809526
S11305509095FC01EC59FF4F4F01812F0E940F052C
S1130560F70181937F011F5FC4018E0F9F1FC8167F
S1130570D9069CF779820A838AE0FE013196D50177
S113058001900D928A95E1F7C5012A960FB6F89469
S1130590DEBF0FBECDBFDF91CF911F910F91FF90B2
S11305A0EF90DF90CF90BF90AF909F908F907F900F
S11305B00895CF930E94D301C82F0E94E70194E6C7
S11305C0C99F90011124220F232F221F330B24567D
S11305D094E6899FA0011124440F452F441F550B15
S11305E0822F9CE9940FCF9108950E94D902492F3C
S11305F0873F54F48802900111249902B001112418
S11306006217730764F425C08A304CF088029001A5
S113061011249902B001112462177307E4F0473FD3
S11306205CF48802A001112499029001112442175C
S113063053079CF483E008954A308CF08802A001AB
S113064011249902900111244217530754F482E0B3
S1130650089580E0089581E0089584E0089584E099
S1130660089584E00895CF93DF93CDB7DEB72A973A
S11306700FB6F894DEBF0FBECDBF82E089838A83B4
S11306800E94D902282F892F990F990B8B599F4FBC
S1130690E5E0F0E0BF010E94E80E362F330F822F11
S11306A0220F990B8B599F4FBF010E94E80E660FD2
S11306B06B833C83CE0101960E9444022A960FB6B6
S11306C0F894DEBF0FBECDBFDF91CF910895CF93D5
S11306D0DF93CDB7DEB72A970FB6F894DEBF0FBE0F
S11306E0CDBF83E089838A830E940F028B830E949B
S11306F0D902082E000C990B029666E070E00E9465
S1130700E80E862F880F680F660F062E000C770BF5
S11307106F597F4FCB0199230CF4019695958795DA
S11307208C8386B382708D83CE0101960E9444022D
S11307302A960FB6F894DEBF0FBECDBFDF91CF91DE
S11307400895F89485B7826085BF85B78E7F85BF8D
S113075085B7886085BF85B78B7F85BF8BB780647D
S11307608BBF8BB780688BBF84E681BF7894089574
S11307701F920F920FB60F9211248F939F9381E0D3
S113078090E09093C9018093C8019F918F910F903D
S11307900FBE0F901F9018951F920F920FB60F92D5
S11307A011240F931F932F933F934F935F936F9352
S11307B07F938F939F93AF93BF93EF93FF93CF93C5
S11307C0DF93CDB7DEB76297DEBFCDBF8CE20E9468
S11307D00F0582FF05C040E064E08CE20E944805FA
S11307E08CE20E940F0580FF62C0CE0101960E9438
S11307F07A028981803131F51B811F921F9385E52F
S113080091E09F938F93CE010B969F938F930E94B9
S1130810A10F0F900F900F900F900F900F90111148
S113082008C00E94450864E970E088E291E00E94F3
S113083083076CEB71E0CE010B960E9483070E9444
S1130840110830C08F3F71F589B78F7E89BF85E36A
S113085091E00E94710F0E9445088091C601909119
S1130860C7019F938F9385E591E09F938F938E01AA
S1130870055F1F4F1F930F930E94A10F6CE372E05B
S1130880C8010E9483076EE171E080E491E00E9458
S113089083070E9411080F900F900F900F900F90F4
S11308A00F90FFCF40E061E08CE20E9448058CE2AB
S11308B00E940F0588236CF41F928DE28F938AE4C3
S11308C091E09F938F930E945B0F0F900F900F9076
S11308D00F9062960FB6F894DEBF0FBECDBFDF91C6
S11308E0CF91FF91EF91BF91AF919F918F917F91A4
S11308F06F915F914F913F912F911F910F910F90A5
S11309000FBE0F901F9018951F920F920FB60F9263
S113091011242F933F934F935F936F937F938F9300
S11309209F93AF93BF93EF93FF930E943303FF9181
S1130930EF91BF91AF919F918F917F916F915F9153
S11309404F913F912F910F900FBE0F901F901895CC
S11309501F920F920FB60F9211240F931F932F9390
S11309603F934F935F936F937F938F939F93AF9333
S1130970BF93EF93FF93CF93DF93CDB7DEB7289761
S1130980DEBFCDBF8091C6019091C70101969093BF
S1130990C7018093C6018091C6019091C7019F93BE
S11309A08F9385E591E09F938F938E010F5F1F4F87
S11309B01F930F930E94A10F6CEB71E0C8010E947A
S11309C083070E9411080F900F900F900F900F90C3
S11309D00F9028960FB6F894DEBF0FBECDBFDF91FF
S11309E0CF91FF91EF91BF91AF919F918F917F91A3
S11309F06F915F914F913F912F911F910F910F90A4
S1130A000FBE0F901F901895C49880EC0E949F0C05
S1130A10C49A08950E94920C0E9404050895CF93ED
S1130A20C82FC49883E00E949F0C8C2F0E949F0CB7
S1130A300E94A30CC49ACF910895CF93DF93D82F2B
S1130A40C62FC49882E00E949F0C8D2F0E949F0C99
S1130A508C2F0E949F0CC49ADF91CF910895C49863
S1130A60009721F481E80E949F0C10C08130910509
S1130A7021F482E80E949F0C09C0029721F484E8C3
S1130A800E949F0C03C087E80E949F0CC49A08959B
S1130A901F93CF93DF93182FD62FC42FC49885E0CC
S1130AA00E949F0C812F0E949F0C8D2F0E949F0CEF
S1130AB08C2F0E949F0CC49ADF91CF911F910895AF
S1130AC00E9445080E9411080E94F502833039F4FF
S1130AD067EA70E087EA90E00E94F50CF5CF66EAD9
S1130AE070E086EA90E00E94F50CEECFCF93DF939E
S1130AF0CDB7DEB72A970FB6F894DEBF0FBECDBFD1
S1130B000E94450864E970E088E291E00E9483074E
S1130B100E94110884E0898381E08A83CE010196D2
S1130B200E9444020E94AC0C80E00E94B80C0E9417
S1130B3067030E94BE0C883C9105D8F3F5CFCF9291
S1130B40DF92EF92FF920F931F93CF93DF93DC0119
S1130B5012962D913C91139712161306A4F56C016D
S1130B607C0100E010E0C0E0D0E0F60186899789BE
S1130B708C179D0791F4B80188E591E00E948307E2
S1130B80D7011496ED91FC911597B801685F7F4FDA
S1130B90808D918D0E9483070AC0D7011496ED9130
S1130BA0FC911597B801808D918D0E948307219641
S1130BB000581F4FB2E0EB0EF11CF60182819381C5
S1130BC0C817D90794F2DF91CF911F910F91FF902D
S1130BD0EF90DF90CF900895EC010AE511E0898D44
S1130BE08F93888D8F931F930F930E945B0F0E94A6
S1130BF0F5020F900F900F900F90843009F451C0BC
S1130C000E94F502813019F108F440C0823089F065
S1130C10833009F042C08E899F8901962A813B81E5
S1130C202817390719F41F8A1E8A37C09F8B8E8BA9
S1130C3034C08E899F89009731F48A819B81019702
S1130C409F8B8E8B2AC001979F8B8E8B26C0EE893B
S1130C50FF893296EE0FFF1FEC0FFD1F0190F0810C
S1130C60E02D82819381892BB9F40E944508EE8995
S1130C70FF893296EE0FFF1FEC0FFD1F0190F081EC
S1130C80E02D0190F081E02D099507C08C899D89A4
S1130C90009719F0EC0101C0EF010E94F5028430C5
S1130CA0E1F70E944508CE010E949F050E941108A9
S1130CB096CFCF93DF93CDB7DEB7C65BD1090FB61E
S1130CC0F894DEBF0FBECDBF0E94E1060E94450826
S1130CD00E9411088EE691E09A8F898F23E030E01C
S1130CE03C832B83188E1F8ACE01019698AB8FA765
S1130CF01E8E1D8E48E751E05CAB4BAB46E755E0DA
S1130D005C8F4B8F2B969FAF8EAF2B9738AF2FAB4B
S1130D1024E831E02F963FAF2EAF2F97FE01E15B21
S1130D20FF4F958B848B1382128223E931E0318F3C
S1130D30208F1E8A1D8A9E01255E3F4F3E832D8390
S1130D40AE014B5C5F4F58874F83FA87E987225B7C
S1130D503F4FF901558B448B1382128268E971E08D
S1130D60718F608F65E578E071836083DE01AD5734
S1130D70BF4F55965C934E93549713961C921E92B4
S1130D80129763EA71E059967C936E9358976DEFCE
S1130D907AE011967C936E93F496558B448B138270
S1130DA012824DEA51E0518F408F40E655E0518365
S1130DB040833AAF29AFBCAFABAFFEAFEDAF0E94FB
S1130DC0EC056EEA70E08EEA0E94F50C61EA70E0D0
S1130DD081EA0E94F50C6AED70E08AED0E94F50C40
S1130DE062E170E082E10E94F50C68EC70E088EC4E
S1130DF00E94F50C68EA70E088EA0E94F50C6FE343
S1130E0070E08FE30E94F50C65ED70E085ED0E94C3
S1130E10F50C60E870E080E80E94F50C61E870E091
S1130E2081E80E94F50C60E570E080E50E94F50C15
S1130E3069ED70E089ED0E94F50C61E270E081E2F9
S1130E400E94F50C60E270E080E20E94F50C62E022
S1130E5070E082E00E94F50C6BED70E08BED0E9477
S1130E60F50C60E370E080E30E94F50C6DEA70E03D
S1130E708DEA0E94F50C60E070E080E00E94F50CC1
S1130E8064EA70E084EA0E94F50C66EA70E086EA9F
S1130E900E94F50C63ED70E083ED0E94F50C60E0B8
S1130EA070E080E00E94F50C6FEA70E08FEA0E9427
S1130EB0F50C0895EF92FF920F931F93CF93DF9356
S1130EC08052082F10E0000F111F000F111F000F98
S1130ED0111F00591F4FEB01D85F7B0188E0E80E1A
S1130EE0F81EF8018491BE010E94F50C0F5F1F4F9C
S1130EF02196CE15DF05A9F7DF91CF911F910F91B0
S1130F00FF90EF9008950F931F93CF93DF93FC010D
S1130F108081882371F08F01C62FD72F0F5F1F4F59
S1130F20BE010E945A07F80181918F012896811110
S1130F30F7CFDF91CF911F910F9108950F931F93D6
S1130F40CF93DF938038910568F56034710550F5CF
S1130F50EB0177230CF42796D595C795D595C795BE
S1130F60D595C7959E01220F331F220F331F220FE1
S1130F70331F8B01021B130B6096D695DC2FCC27F5
S1130F80D795C795C80FD91FCE010E94F10C21E057
S1130F9030E002C0220F331F0A95E2F7BE01822B14
S1130FA00E94F50CDF91CF911F910F9108950F933B
S1130FB01F93CF93DF938038910570F560347105EA
S1130FC058F5EB0177230CF42796D595C795D5955D
S1130FD0C795D595C7959E01220F331F220F331F46
S1130FE0220F331F8B01021B130B6096D695DC2F47
S1130FF0CC27D795C795C80FD91FCE010E94F10CF5
S113100021E030E002C0220F331F0A95E2F7209559
S1131010BE0182230E94F50CDF91CF911F910F91A5
S11310200895FF920F931F93CF93DF93C0E0D8E00E
S11310300F2EF0EBFF2EF02D60E070E08F2D0E945C
S1131040F50C60E070E080E00E94F50C60E070E078
S113105080E10E94F50C8E0100581F4FCE010E94C2
S1131060F10C682F70E07E5F0E94F50C2196C0178A
S1131070D107A1F7F394E80101151C40E9F6DF91CB
S1131080CF911F910F91FF900895CF93DF93C0E00C
S1131090D8E0BE0180E00E94F50C2196C1158CE0D9
S11310A0D807B9F7DF91CF910895CF93DF93CDB7E8
S11310B0DEB769970FB6F894DEBF0FBECDBF0E94AE
S11310C045080E9411081B8A1A8A198A188A2FE176
S11310D02B831FE183E08A8319821C8A1D8A1E8A5E
S11310E09FE39F8BD12E13E0E12C1D821E821F8271
S11310F018861C861D861E86AFE3AF87B12CA12CF3
S11311000F2EF8EF9F2EF02D0F2EF1E48F2EF02DE1
S1131110712C612C0F2EFCE75F2EF02D0F2EF2E4C4
S11311204F2EF02D80E00E94C50C0E940F02869580
S113113086958C83BB818B2F90E02C81820F911D2F
S11311408D0D911D63E070E00E94E80E6B017B87BA
S11311506A870E94FB018695869589872C853D8543
S11311604E855F85672D762D852D942D0E941D0D4E
S1131170688F798F082FF92E2D813E814F815885F4
S11311806B2D7A2D892D982D0E941D0D362E272E1C
S113119089839A8320E030E0A901688D798D802FBE
S11311A09F2D0E94890D181634F08A899B89019617
S11311B09B8B8A8B01C220E030E04EEF52E4688DB5
S11311C0798D802F9F2D0E94760E882334F0A88974
S11311D0B9891196B98BA88BEFC120E030E040E8C3
S11311E050E4688D798D802F9F2D0E94890D811187
S11311F04CC0B985CB2ED12CB6016C5F7F4F072E26
S1131200000C880B990B0E94C60D9B01AC01632D49
S1131210722D89819A810E94890D18160CF485C05B
S1131220B60164507109072E000C880B990B0E94BB
S1131230C60D9B01AC01632D722D89819A810E9498
S1131240760E88230CF471C0B601DD0C880B990B63
S11312500E94C60D9B01AC01632D722D89819A8178
S11312600E941C0D20E030E040E05EE30E947B0E13
S11312706D837E838F8398872C892C878D898D87B6
S11312809E899E87AF89AF8750C020E030E046EF4B
S113129052E4688D798D802F9F2D0E94890D8111D4
S11312A044C0DD24B6016C5F7F4F072E000C880B11
S11312B0990B0E94C60D9B01AC01632D722D89818F
S11312C09A810E94890D181684F1B601645071093F
S11312D0072E000C880B990B0E94C60D9B01AC01D4
S11312E0632D722D89819A810E94760E8823ECF0F9
S11312F0B601DD0C880B990B0E94C60D9B01AC0155
S1131300632D722D89819A810E941C0D20E030E0AA
S113131040E05EE30E947B0E6D837E838F8398871B
S11313201C861D861E86BFEBBF8720E030E0A90126
S1131330632D722D89819A810E94890D181664F497
S113134020E030E04CE752E4632D722D89819A81CC
S11313500E94760E88234CF08D819E81AF81B885E2
S1131360B0588D839E83AF83B8876B2D7A2D892DDA
S1131370982D0E948E0D4B015C01672D762D852DD5
S1131380942D0E948E0D2B013C01B401C2010E94D8
S1131390D707640199201CF497E0C90ED11CD59499
S11313A0C794D594C794D594C794C60180559F4FCC
S11313B0BC010E94F50CC2018F709927BC010E94E8
S11313C0F50CC20195958795959587959595879583
S11313D0959587954096BC010E94F50CA0E1CA0E34
S11313E0D11CD694DC2CCC24D794C794C601840D8C
S11313F0951D0E94F10C9927BC017E5F0E94F50C9B
S1131400632D722D89819A810E948E0D4B015C019E
S1131410688D798D802F9F2D0E948E0D2B013C01AC
S1131420B401C2010E949E07640199201CF4B7E034
S1131430CB0ED11CD594C794D594C794D594C79496
S1131440C60180559F4FBC010E94F50CC2018F70EC
S11314509927BC010E94F50CC20195958795959535
S1131460879595958795959587954096BC010E949B
S1131470F50C20E1C20ED11CD694DC2CCC24D794DC
S1131480C794C601840D951D0E94F10C9927BC01D7
S11314907E5F0E94F50C0F2EF3E0CF2EF8E0DF2ED6
S11314A0F02DB60180E090E00E94F50CB60167587B
S11314B07F4F80E090E00E94F50CA0E8CA0ED11C9A
S11314C0B3E0CB16BCE0DB0661F70F2EFCEF8F2EEA
S11314D099249A94F02D9985A92EB12CCA84DB8481
S11314E0DD24B4016A0D7B1D812F9E2D0E949E0771
S11314F0B601680D791D8CE790E00E949E07AFEF5E
S11315008A1A9A0AB5E08B16910459F70F2EF3E064
S1131510CF2EF8E0DF2EF02D0F2EF0EBAF2EB12CF6
S1131520F02DB501C5010E94F50C612F7E2D812F90
S11315309E2D0E94F50C60E170E080E190E00E9435
S1131540F50CC6010E94F10C9927BC017E5F0E9434
S1131550F50C6CE070E08CE090E00E94F50C67E123
S113156070E087E190E00E94F50CC60187589F4F18
S11315700E94F10C9927BC017E5F0E94F50C9FEF3D
S1131580A91AB90AA0E8CA0ED11CB3E0CB16BCE074
S1131590DB0639F60E94CB0CC297E0F3988DA98D37
S11315A0DB80BC81BB83B32CA22C99808A80792EEA
S11315B06A2E502E4F2CB6CD0E94450862EB71E086
S11315C08889805D0E945A0766EC71E08A89805D93
S11315D00E945A070E9411082FEF8FEF9DE12150BE
S11315E080409040E1F700C000000E9445080E943E
S11315F01108DB80AC81AB8378CDCF93DF93CDB77B
S1131600DEB72E970FB6F894DEBF0FBECDBF1C8693
S11316101B861A861986512C412C0F2EF8EF3F2E6B
S1131620F02D0F2EF1E42F2EF02D10E000E00F2E00
S1131630FCE77F2EF02D0F2EF2E46F2EF02D812C7F
S1131640912C54011D821E8220E82F833FE33887AA
S113165059824A823B82302E072D2C82212E162D50
S113166080E00E94B80C0E940F02682F70E080E0B6
S113167090E00E94C60D20E030E040E85EE30E9466
S11316807B0E2B013C010E94FB01682F70E080E07F
S113169090E00E94C60D20E030E040E85EE30E9446
S11316A07B0E6B017C012D813E814F815885622D1B
S11316B0732D802F912F0E941D0D262E372E082F5B
S11316C0192FA501940169817A818B819C810E94E3
S11316D01D0D69837A838B839C8320E030E0A9010C
S11316E0622D732D802F912F0E94890D181634F0CE
S11316F08B859C8501969C878B87F6C020E030E023
S11317004EEF52E4622D732D802F912F0E94760E9E
S113171088233CF029853A852F5F3F4F3A872987F4
S1131720E3C020E030E040E850E4622D732D802FC8
S1131730912F0E94890D81113CC020E030E040E8E7
S113174050E4C701B6010E941D0D9B01AC016981E3
S11317507A818B819C810E94890D18160CF46EC0CD
S113176020E030E040E850E4C701B6010E941C0DBF
S11317709B01AC0169817A818B819C810E94760EE8
S113178088230CF45BC0A701960169817A818B815F
S11317909C810E941C0D20E030E040E05EE30E944A
S11317A07B0E4B015C011D821E821F823FE3388742
S11317B045C020E030E046EF52E4622D732D802FC7
S11317C0912F0E94890D811139C020E030E040E85A
S11317D050E4C301B2010E941D0D9B01AC0169815B
S11317E07A818B819C810E94890D18163CF120E03E
S11317F030E040E850E4C301B2010E941C0D9B019B
S1131800AC0169817A818B819C810E94760E882348
S1131810ACF0A301920169817A818B819C810E9441
S11318201C0D20E030E040E05EE30E947B0E4B01A3
S11318305C011D821E821F828FEB888720E030E0CE
S1131840A90169817A818B819C810E94890D181676
S113185064F420E030E04CE752E469817A818B81C2
S11318609C810E94760E882324F0B7FAB094B7F8CE
S1131870B0940E9445082CEF3FEF3E872D87C701A7
S1131880B6010E948E0D2D853E85620F731F83E085
S113189090E00E949E07C301B2010E948E0D2D8527
S11318A03E85620F731F8CE790E00E949E078D8532
S11318B09E8501969E878D87059709F769817A81B0
S11318C08B819C810E948E0D6B017C01622D732D96
S11318D0802F912F0E948E0DDC01CB01B6010E9456
S11318E09E070E941108BCCE0E94450862EB71E07D
S11318F08985805D0E945A0766EC71E08B85805D66
S11319000E945A070E9411089FEF2FEF3DE191506A
S113191020403040E1F700C000000E9445080E94CA
S1131920110879CE87B3806B87BBBE988DB1806573
S11319308DB96D986B986A986898699808958FB96D
S1131940779BFECF08958FEF8FB9779BFECF8FB132
S1131950089585E083BF08958BE48BBD1ABC89B7D5
S1131960806489BF8CE08EBD089587E087BD0895AB
S11319709FB7F89482BF9FBF789408959FB7F89457
S113198082B79FBF789490E008959FB7F89483BD81
S11319909FBF789408959FB7F89483B59FBF7894B8
S11319A090E008955D9BFECF8CB908955F9BFECFB8
S11319B08CB1089590BD89B988E18AB98EE880BD5B
S11319C066ED7CE082ED9CE00E94100F089585B7DF
S11319D0806885BF80B7806280BF80B7877E80BF04
S11319E00895905FFC0180810895FB01F05F80837E
S11319F008950E94A1038FE190E00E94DA0C0E94F6
S1131A00E70C84EB91E09F938F930E945B0F0E94FD
S1131A10A90C0E94B50C80E00E9423020E94590682
S1131A200F900F902FEF8FE797E021508040904068
S1131A30E1F700C00000F6CF5058BB27AA270E9448
S1131A40340D0C943C0E0E942E0E38F00E94350E7C
S1131A5020F039F49F3F19F426F40C942B0E0EF465
S1131A60E095E7FB0C94250EE92F0E944D0E58F3E8
S1131A70BA17620773078407950720F079F4A6F56F
S1131A800C946F0E0EF4E0950B2EBA2FA02D0B01C3
S1131A90B90190010C01CA01A0011124FF27591BAF
S1131AA099F0593F50F4503E68F11A16F040A22FB5
S1131AB0232F342F4427585FF3CF46953795279526
S1131AC0A795F0405395C9F77EF41F16BA0B620B25
S1131AD0730B840BBAF09150A1F0FF0FBB1F661F6C
S1131AE0771F881FC2F70EC0BA0F621F731F841FAF
S1131AF048F4879577956795B795F7959E3F08F0D5
S1131B00B0CF9395880F08F09927EE0F9795879596
S1131B1008950E94010E08F481E008950E94950D35
S1131B206894B1110C94700E08950E94550E88F0BB
S1131B309F5798F0B92F9927B751B0F0E1F0660F8D
S1131B40771F881F991F1AF0BA95C9F714C0B130CE
S1131B5091F00E946F0EB1E008950C946F0E672F00
S1131B60782F8827B85F39F0B93FCCF386957795FD
S1131B706795B395D9F73EF49095809570956195E6
S1131B807F4F8F4F9F4F0895E89409C097FB3EF411
S1131B9090958095709561957F4F8F4F9F4F9923B6
S1131BA0A9F0F92F96E9BB279395F6958795779534
S1131BB06795B795F111F8CFFAF4BB0F11F460FFF4
S1131BC01BC06F5F7F4F8F4F9F4F16C0882311F04C
S1131BD096E911C0772321F09EE8872F762F05C060
S1131BE0662371F096E8862F70E060E02AF09A95FB
S1131BF0660F771F881FDAF7880F9695879597F9F0
S1131C000895990F0008550FAA0BE0E8FEEF161689
S1131C101706E807F907C0F012161306E407F507DC
S1131C2098F0621B730B840B950B39F40A2661F050
S1131C30232B242B252B21F408950A2609F4A140F3
S1131C40A6958FEF811D811D089597F99F6780E800
S1131C5070E060E008959FEF80EC089500240A94FA
S1131C601616170618060906089500240A94121673
S1131C701306140605060895092E0394000C11F4A6
S1131C80882352F0BB0F40F4BF2B11F460FF04C053
S1131C906F5F7F4F8F4F9F4F089557FD9058440FAC
S1131CA0551F59F05F3F71F04795880F97FB991FB7
S1131CB061F09F3F79F08795089512161306140674
S1131CC0551FF2CF4695F1DF08C016161706180601
S1131CD0991FF1CF86957105610508940895E894DC
S1131CE0BB2766277727CB0197F908950E94010E39
S1131CF008F48FEF08950E948E0E0C943C0E0E94FF
S1131D002E0E38F00E94350E20F0952311F00C941D
S1131D10250E0C942B0E11240C94700E0E944D0E63
S1131D2070F3959FC1F3950F50E0551F629FF0012A
S1131D30729FBB27F00DB11D639FAA27F00DB11D43
S1131D40AA1F649F6627B00DA11D661F829F2227CC
S1131D50B00DA11D621F739FB00DA11D621F839F53
S1131D60A00D611D221F749F3327A00D611D231F29
S1131D70849F600D211D822F762F6A2F11249F5777
S1131D8050409AF0F1F088234AF0EE0FFF1FBB1F7A
S1131D90661F771F881F91505040A9F79E3F510539
S1131DA080F00C94250E0C94700E5F3FE4F3983E83
S1131DB0D4F3869577956795B795F795E7959F5FE3
S1131DC0C1F7FE2B880F911D9695879597F9089575
S1131DD097FB072E16F4009407D077FD09D00E94D4
S1131DE0FC0E07FC05D03EF4909581959F4F089515
S1131DF0709561957F4F0895AA1BBB1B51E107C0E5
S1131E00AA1FBB1FA617B70710F0A61BB70B881F86
S1131E10991F5A95A9F780959095BC01CD01089515
S1131E200F931F93CF93DF93009731F461157105DE
S1131E3019F480E090E03AC08B01EC016EE070E0B0
S1131E4081E090E00E94A411FC01892B91F380E8C9
S1131E5083830115110571F01387028781E8838359
S1131E608091CA019091CB01892B21F4F093CB018D
S1131E70E093CA012097C9F0D187C087838182602B
S1131E8083838091CC019091CD01892B71F4F093DF
S1131E90CD01E093CC018091CE019091CF01892BAB
S1131EA021F4F093CF01E093CE01CF01DF91CF91E4
S1131EB01F910F910895A0E0B0E0E1E6FFE00C94DB
S1131EC0A813AE014B5F5F4FFA0161917191AF01AD
S1131ED08091CC019091CD010E94C30FE2E00C945B
S1131EE0C4130F931F93CF93DF93E091CC01F09130
S1131EF0CD01238121FF1BC08C01D0E0C0E0F8019B
S1131F0081918F016091CC017091CD01DB01189614
S1131F10ED91FC911997882331F00995892B79F378
S1131F20DFEFCFEFECCF8AE00995892B19F08FEF23
S1131F309FEF02C08D2F9C2FDF91CF911F910F91A6
S1131F400895AEE0B0E0E7EAFFE00C94A6130D8933
S1131F501E8986E08C831A8309838FEF9FE79E8313
S1131F608D83AE01475E5F4F6F89788DCE010196F8
S1131F700E94C30FEF81F885E00FF11F10822E96A7
S1131F80E4E00C94C213ABE0B0E0E9ECFFE00C94A5
S1131F9098136C017B018A01FC01178216828381EC
S1131FA081FFCCC1CE0101963C01F6019381F7017A
S1131FB093FD859193FF81917F01882309F4BAC130
S1131FC0853239F493FD859193FF81917F018532A8
S1131FD029F4B60190E00E94FE12E7CF912C212C47
S1131FE0312CFFE1F315D8F08B3279F038F48032DC
S1131FF079F08332A1F4232D20611DC08D3261F06C
S1132000803369F4232D216016C0832D8260382E1D
S1132010E32DE4603E2E2AC0F32DF8601DC037FC8A
S11320202DC020ED280F2A3040F08E32B9F436FC52
S113203081C1232D2064322E19C036FE06C08AE0E9
S1132040989E200D1124922E11C0EAE02E9E200DA0
S11320501124222EF32DF0623F2E08C08C3621F479
S1132060832D8068382E02C0883641F4F70193FD31
S1132070859193FF81917F018111B3CF982F9F7D2B
S11320809554933028F40C5F1F4F9FE399830DC040
S1132090833631F0833771F0833509F059C021C09C
S11320A0F801808189830E5F1F4F88248394912CCB
S11320B0530113C02801F2E04F0E511CF801A08017
S11320C0B18036FE03C0692D70E002C06FEF7FEF70
S11320D0C5010E94F3124C018201F32DFF773F2EBC
S11320E016C0280122E0420E511CF801A080B180E4
S11320F036FE03C0692D70E002C06FEF7FEFC501AB
S11321000E94E1124C01F32DF0683F2E820133FC52
S11321101BC0822D90E088169906B0F4B60180E2C7
S113212090E00E94FE122A94F4CFF50137FC8591C9
S113213037FE81915F01B60190E00E94FE122110EA
S11321402A9421E0821A91088114910471F7E8C05D
S1132150843611F0893641F5F80137FE07C06081F5
S11321607181828193810C5F1F4F08C060817181EE
S1132170072E000C880B990B0E5F1F4FF32DFF7673
S11321803F2E97FF09C090958095709561957F4F7C
S11321908F4F9F4FF0683F2E2AE030E0A3010E944A
S11321A03A13882E861845C0853731F4232D2F7EA7
S11321B0B22E2AE030E025C0932D997FB92E8F36B8
S11321C0C1F018F4883579F0B5C0803719F0883734
S11321D021F0B0C0E92FE061BE2EB4FE0DC0FB2D8E
S11321E0F460BF2E09C034FE0AC0292F2660B22E27
S11321F006C028E030E005C020E130E002C020E164
S113220032E0F801B7FE07C0608171818281938159
S11322100C5F1F4F06C06081718180E090E00E5F0B
S11322201F4FA3010E943A13882E8618FB2DFF77B7
S11322303F2E36FE0DC0232D2E7FA22E891458F476
S113224034FE0BC032FC09C0832D8E7EA82E05C03F
S1132250B82CA32C03C0B82C01C0B92CA4FE0FC009
S1132260FE01E80DF11D8081803321F49A2D997EC1
S1132270A92E09C0A2FE06C0B394B39404C08A2D4B
S1132280867809F0B394A3FC11C0A0FE06C0B21472
S113229088F4280C922C9B180EC0B21460F4B6017A
S11322A080E290E00E94FE12B394F7CFB21418F4C7
S11322B02B1802C0982C212CA4FE10C0B60180E378
S11322C090E00E94FE12A2FE17C0A1FC03C088E7A2
S11322D090E002C088E590E0B6010CC08A2D8678B3
S11322E059F0A1FE02C08BE201C080E2A7FC8DE29E
S11322F0B60190E00E94FE12891438F4B60180E31E
S113230090E00E94FE129A94F7CF8A94F301E80DAC
S1132310F11D8081B60190E00E94FE128110F5CF7C
S1132320222009F442CEB60180E290E00E94FE121F
S11323302A94F6CFF6018681978102C08FEF9FEF32
S11323402B96E2E10C94B4130F931F93CF93DF9376
S1132350869F8001879F100D969F100D1124C80140
S11323600E94C011EC01009729F0A80160E070E020
S11323700E94EC12CE01DF91CF911F910F9108952D
S11323800F931F93CF93DF938230910510F482E073
S113239090E0E091D201F091D30120E030E0A0E0A0
S11323A0B0E0309719F140815181028113814817BF
S11323B05907C8F08417950769F4109731F01296FD
S11323C00C93129713961C9327C00093D201109379
S11323D0D30122C02115310519F04217530718F40F
S11323E09A01BD01EF01DF01F801DBCF21153105B1
S11323F0F9F0281B390B2430310580F48A819B8144
S11324006115710521F0FB019383828304C09093CD
S1132410D3018093D201FE01329644C0FE01E20F43
S1132420F31F8193919322503109398328833AC051
S11324302091D0013091D101232B41F4209102014C
S1132440309103013093D1012093D00120910001F8
S1132450309101012115310541F42DB73EB740916A
S1132460040150910501241B350BE091D001F0913A
S1132470D101E217F307A0F42E1B3F0B28173907ED
S113248078F0AC014E5F5F4F2417350748F04E0FCC
S11324905F1F5093D1014093D0018193919302C067
S11324A0E0E0F0E0CF01DF91CF911F910F9108950B
S11324B0CF93DF93009709F481C0FC013297138214
S11324C01282A091D201B091D301109781F420819E
S11324D03181820F931F2091D0013091D1012817AF
S11324E0390751F5F093D101E093D00167C0ED01B4
S11324F020E030E0CE17DF0740F44A815B819E0183
S113250041155105F1F0EA01F5CFD383C28340812F
S11325105181840F951FC817D90759F4888199816F
S1132520840F951F0296918380838A819B81938374
S113253082832115310529F4F093D301E093D2016C
S11325403DC0E901FB83EA8349915991C40FD51F2A
S1132550EC17FD0761F480819181840F951F029629
S1132560E90199838883828193819B838A83E0E054
S1132570F0E012968D919C911397009719F0FD014C
S1132580DC01F7CF8D919C9111979D012E5F3F4FF8
S1132590820F931F2091D0013091D1012817390760
S11325A069F4309729F41092D3011092D20102C039
S11325B013821282B093D101A093D001DF91CF9105
S11325C00895FC010590615070400110D8F7809582
S11325D090958E0F9F1F0895DC0101C06D934150AB
S11325E05040E0F70895FC016150704001900110E3
S11325F0D8F7809590958E0F9F1F08950F931F9382
S1132600CF93DF93FB01238121FD03C08FEF9FEF65
S11326102CC022FF16C04681578124813581421780
S1132620530744F4A081B1819D012F5F3F4F318353
S113263020838C93268137812F5F3F4F37832683F6
S113264014C08B01EC01FB010084F185E02D099598
S1132650892BE1F6D80116968D919C9117970196D6
S113266017969C938E931697CE01DF91CF911F916D
S11326700F910895FA01AA27283051F1203181F1F0
S1132680E8946F936E7F6E5F7F4F8F4F9F4FAF4F76
S1132690B1E03ED0B4E03CD0670F781F891F9A1F89
S11326A0A11D680F791F8A1F911DA11D6A0F711D3D
S11326B0811D911DA11D20D009F468943F912AE049
S11326C0269F11243019305D3193DEF6CF01089531
S11326D0462F4770405D4193B3E00FD0C9F7F6CF62
S11326E0462F4F70405D4A3318F0495D31FD40522A
S11326F0419302D0A9F7EACFB4E0A69597958795C0
S113270077956795BA95C9F700976105710508959E
S11327109B01AC010A2E069457954795379527954A
S1132720BA95C9F7620F731F841F951FA01D0895E2
S11327302F923F924F925F926F927F928F929F92CD
S1132740AF92BF92CF92DF92EF92FF920F931F93BB
S1132750CF93DF93CDB7DEB7CA1BDB0B0FB6F8946C
S1132760DEBF0FBECDBF09942A88398848885F84AC
S11327706E847D848C849B84AA84B984C884DF801D
S1132780EE80FD800C811B81AA81B981CE0FD11D01
S11327900FB6F894DEBF0FBECDBFED010895F894D7
S10527A0FFCF65
S11327A20000D401200043414E20636F6E74726FA7
S11327B26C6C657220696E206C6F6F706261636B02
S11327C2206D6F64650A0D00506C6179696E672033
S11327D267616D650047414D45204F5645520D00D6
S11327E247414D45204F56455200434245204546F8
S11327F24C47203D202564002D0063757272656E7E
S1132802744D656E75203D20253135730D004D6183
S1132812696E206D656E75005374617274207370F5
S1132822696C6C004D6F726F66756E6B736A6F6E56
S11328326572007375623200717569636B20706F23
S11328426E6700736C6F7720706F6E6700496E76E7
S1132852657273000A5374617274696E672E2E2E48
S10928622E200A0D000007
S9030000FC
