S00C00006C6162382E73726563B1
S11300000C94B4010C94C8030C94DC030C94D1013B
S11300100C94D1010C94D1010C94D1010C94D10114
S11300200C94D1010C94D1010C94D1010C94D10104
S11300300C94D1010C94D1010C94D1010C94D101F4
S11300400C945D040C94D1010C94D1010C94D10155
S11300500C94D1010C94D1010C94D1010C94D101D4
S11300600C94D1010C94D1010C94D1010C94D101C4
S1130070000000000000000000065F5F06000000B2
S11300800007070007070000147F7F147F7F140018
S1130090242E6B6B3A120000466630180C66620020
S11300A0307A4F5D377A48000407030000000000EF
S11300B0001C3E63410000000041633E1C00000040
S11300C0082A3E1C1C3E2A0808083E3E0808000078
S11300D000A0E0600000000008080808080800000C
S11300E000006060000000006030180C060301008E
S11300F03E7F594D7F3E000042427F7F40400000DA
S1130100627359496F660000226349497F360000D3
S1130110181C16137F7F1000276745457D390000A2
S11301203C7E4B4979300000036371190F070000CE
S1130130367F49497F360000064F49693F1E00005B
S113014000006C6C0000000000A0EC6C00000000DB
S1130150081C366341000000141414141414000025
S1130160004163361C080000020351590F060000C9
S11301703E7F415D5D1F1E007C7E13137E7C00006C
S1130180417F7F49497F36001C3E63414163220021
S1130190417F7F41637F1C00417F7F495D41630054
S11301A0417F7F491D0103001C3E6341517372006E
S11301B07F7F08087F7F000000417F7F41000000AF
S11301C0307040417F3F0100417F7F081C7763000E
S11301D0417F7F41406070007F7F060C067F7F0077
S11301E07F7F060C187F7F001C3E6341633E1C002A
S11301F0417F7F49090F06001E3F21717F5E000089
S1130200417F7F19396F460026674D597B320000C4
S113021003417F7F410300007F7F40407F7F0000D8
S11302201F3F60603F1F00007F7F3018307F7F00DA
S113023063771C081C776300074F78784F0700002A
S11302406773594D47637100007F7F41410000008F
S11302500103060C183060000041417F7F0000005C
S1130260080C0603060C0800808080808080808053
S11302700000030704000000207454543C7840003C
S1130280413F7F44447C3800387C44446C2800005F
S1130290307848493F7F4000387C54545C18000053
S11302A0487E7F490302000098BCA4A4F87C0400A3
S11302B0417F7F08047C780000447D7D400000007D
S11302C040C484FD7D000000417F7F10386C4400F1
S11302D000417F7F400000007C7C0C180C7C78007F
S11302E07C7C04047C780000387C44447C38000026
S11302F084FCF8A4243C1800183C24A4F8FC8400D2
S1130300447C78441C180000485C54547424000055
S113031000043E7F442400003C7C40403C7C400080
S11303201C3C60603C1C00003C7C6030607C3C00F9
S1130330446C3810386C44009CBCA0A0FC7C0000C9
S11303404C64745C4C64000008083E774141000032
S113035000000077770000004141773E0808000064
S1130360020301030203010011241FBECFEFD4E0F6
S1130370DEBFCDBF12E0A0E0B1E0E8E0F6E202C0EB
S113038005900D92A831B107D9F722E0A8E1B2E0B7
S113039001C01D92A432B207E1F70E947E0C0C94B6
S11303A002130C94000064E074E084E00E947A0C70
S11303B08091180290911902892BD1F3109219029D
S11303C01092180280E094E00E94760C089565E093
S11303D074E085E00E947A0C8091180290911902D1
S11303E0892BD1F3109219021092180280E094E044
S11303F00E94760C089566E074E086E00E947A0C10
S11304008091180290911902892BD1F3109219024C
S11304101092180280E094E00E94760C089567E040
S113042074E087E00E947A0C80911802909119027E
S1130430892BD1F3109219021092180280E094E0F3
S11304400E94760C0895CF93C82F0E94880465E01B
S11304508BE20E949B044C2F60EE8FE00E94C60446
S113046040E660E680E60E94C6048FE00E948D04A8
S113047086FF08C086E091E09F938F930E94E00E70
S11304800F900F90CF910895EF92FF920F931F93C7
S1130490CF937C01FC01608181E30E949B04F701FE
S11304A0618185E30E949B04F701818190E0C696F7
S11304B0C697A4F087010E5F1F4FC6E3F801619150
S11304C08F018C2F0E949B04CF5F2C2F30E0F7010B
S11304D0818190E0C6968217930784F780E090E0CC
S11304E00E94AD04CF911F910F91FF90EF9008955A
S11304F07F928F929F92AF92BF92CF92DF92EF92B0
S1130500FF920F931F93CF93DF93CDB7DEB72A9754
S11305100FB6F894DEBF0FBECDBF5C0181E60E942A
S11305208D04782E1F928F9388E291E09F938F938E
S11305300E94E00E85E60E948D04082FC82ED12C5F
S113054026E6C20ED11C0F900F900F900F9036E646
S1130550C316D104CCF07E0183E0E80EF11C16E64C
S1130560CE0180959095FC01EC59FF4F4F01812FEE
S11305700E948D04F70181937F011F5FC4018E0FD8
S11305809F1FC816D9069CF779820A838AE0FE0168
S11305903196D50101900D928A95E1F7C5012A960D
S11305A00FB6F894DEBF0FBECDBFDF91CF911F9180
S11305B00F91FF90EF90DF90CF90BF90AF909F90FE
S11305C08F907F900895CF930E94D301C82F0E94EB
S11305D0E70194E6C99F90011124220F232F221FC3
S11305E0330B245694E6899FA0011124440F452F10
S11305F0441F550B822F9CE9940FCF9108950E94BC
S1130600E302492F873F54F4880290011124990290
S1130610B00111246217730764F425C08A304CF0CA
S11306208802900111249902B00111246217730702
S1130630E4F0473F5CF48802A00111249902900180
S11306401124421753079CF483E008954A308CF038
S11306508802A00111249902900111244217530722
S113066054F482E0089580E0089581E0089584E0E0
S1130670089584E0089584E00895CF93DF93CDB77F
S1130680DEB72A970FB6F894DEBF0FBECDBF82E067
S113069089838A830E94E302492F990F550B4B5992
S11306A05F4F9A0112F42D5F3F4F3595279535958D
S11306B02795220F082E000C990B8B599F4FAC01E4
S11306C012F44D5F5F4F5595479555954795440FE7
S11306D04B832C83CE0101960E9444022A960FB6C6
S11306E0F894DEBF0FBECDBFDF91CF910895CF93B5
S11306F0DF93CDB7DEB72A970FB6F894DEBF0FBEEF
S1130700CDBF83E089838A830E940F028B830E947A
S1130710E302082E000C990B029666E070E00E943A
S11307206D0E862F880F680F660F062E000C770B50
S11307306F597F4FCB0199230CF4019695958795BA
S11307408C8386B382708D83CE0101960E9444020D
S11307502A960FB6F894DEBF0FBECDBFDF91CF91BE
S11307600895F89485B7826085BF85B78E7F85BF6D
S113077085B7886085BF85B78B7F85BF8BB780645D
S11307808BBF8BB780688BBF84E681BF7894089554
S11307901F920F920FB60F9211248F939F9381E0B3
S11307A090E090931902809318029F918F910F907B
S11307B00FBE0F901F9018951F920F920FB60F92B5
S11307C011242F933F934F935F936F937F938F9352
S11307D09F93AF93BF93EF93FF93CF93DF93CDB7E3
S11307E0DEB72A97DEBFCDBF8CE20E948D0482FF64
S11307F005C040E064E08CE20E94C6048CE20E94E2
S11308008D0480FF2FC0CE0101960E94780283E4FC
S113081091E09F938F930E94E00E89811F928F93A2
S11308208EE591E09F938F930E94E00E8A811F9240
S11308308F9389E691E09F938F930E94E00E8B81C2
S11308401F928F9387E791E09F938F930E94E00E0E
S113085040E061E08CE20E94C6040FB6F894DEBF6B
S11308600FBECDBF8CE20E948D0488236CF488E80F
S113087091E09F938F930E94E00E40E060E88CE249
S11308800E94C6040F900F902A960FB6F894DEBF0C
S11308900FBECDBFDF91CF91FF91EF91BF91AF918B
S11308A09F918F917F916F915F914F913F912F9184
S11308B00F900FBE0F901F9018951F920F920FB6B6
S11308C00F9211242F933F934F935F936F937F93D2
S11308D08F939F93AF93BF93EF93FF9378940E946A
S11308E03D03FF91EF91BF91AF919F918F917F91C4
S11308F06F915F914F913F912F910F900FBE0F9089
S11309001F901895C49880EC0E942D0CC49A0895E9
S11309100E94200C0E9482040895CF93C82FC4988B
S113092083E00E942D0C8C2F0E942D0C0E94310C10
S1130930C49ACF910895CF93DF93D82FC62FC4982C
S113094082E00E942D0C8D2F0E942D0C8C2F0E9472
S11309502D0CC49ADF91CF910895C498009721F487
S113096081E80E942D0C10C08130910521F482E8A9
S11309700E942D0C09C0029721F484E80E942D0CDA
S113098003C087E80E942D0CC49A08951F93CF9347
S1130990DF93182FD62FC42FC49885E00E942D0C06
S11309A0812F0E942D0C8D2F0E942D0C8C2F0E94C4
S11309B02D0CC49ADF91CF911F9108950E94BE0718
S11309C00E948A070E94FF02833039F467EA70E0CC
S11309D087EA90E00E947A0CF5CF66EA70E086EA36
S11309E090E00E947A0CEECFCF93DF93CDB7DEB7C1
S11309F02A970FB6F894DEBF0FBECDBF0E94BE0784
S1130A0060E871E08DE891E00E94FC060E948A078C
S1130A1084E0898381E08A83CE0101960E944402A6
S1130A200E9477030E94430C84369105D8F3F8CFD3
S1130A30CF92DF92EF92FF920F931F93CF93DF93A6
S1130A40DC0112962D913C91139712161306A4F50E
S1130A506C017C0100E010E0C0E0D0E0F601868982
S1130A6097898C179D0791F4B8018AE991E00E9457
S1130A70FC06D7011496ED91FC911597B801685FB7
S1130A807F4F808D918D0E94FC060AC0D701149679
S1130A90ED91FC911597B801808D918D0E94FC0613
S1130AA0219600581F4FB2E0EB0EF11CF601828133
S1130AB09381C817D90794F2DF91CF911F910F91B9
S1130AC0FF90EF90DF90CF900895EC010CE911E0D6
S1130AD0898D8F93888D8F931F930F930E94E00EBF
S1130AE00E94FF020F900F900F900F90843009F432
S1130AF051C00E94FF02813019F108F440C08230D5
S1130B0089F0833009F042C08E899F8901962A8139
S1130B103B812817390719F41F8A1E8A37C09F8B17
S1130B208E8B34C08E899F89009731F48A819B8192
S1130B3001979F8B8E8B2AC001979F8B8E8B26C02B
S1130B40EE89FF893296EE0FFF1FEC0FFD1F019017
S1130B50F081E02D82819381892BB9F40E94BE0734
S1130B60EE89FF893296EE0FFF1FEC0FFD1F0190F7
S1130B70F081E02D0190F081E02D099507C08C896A
S1130B809D89009719F0EC0101C0EF010E94FF025A
S1130B908430E1F70E94BE07CE010E9418050E942E
S1130BA08A0796CFCF93DF93CDB7DEB7C65BD10963
S1130BB00FB6F894DEBF0FBECDBF0E945A060E9446
S1130BC0BE070E948A0780EB91E09A8F898F23E009
S1130BD030E03C832B83188E1F8ACE01019698AB9C
S1130BE08FA71E8E1D8E4AEB51E05CAB4BAB44EFDE
S1130BF054E05C8F4B8F2B969FAF8EAF2B9738AF03
S1130C002FAB26EC31E02F963FAF2EAF2F97FE018E
S1130C10E15BFF4F958B848B1382128225ED31E0CB
S1130C20318F208F1E8A1D8A9E01255E3F4F3E8391
S1130C302D83AE014B5C5F4F58874F83FA87E9875A
S1130C40225B3F4FF901558B448B138212826AED6C
S1130C5071E0718F608F6EEC77E071836083DE01E9
S1130C60AD57BF4F55965C934E93549713961C9271
S1130C701E92129765EE71E059967C936E93589785
S1130C8069E77AE011967C936E93F496558B448BC6
S1130C90138212824FEE51E0518F408F4EED54E09B
S1130CA0518340833AAF29AFBCAFABAFFEAFEDAFDA
S1130CB00E9465056EEA70E08EEA0E947A0C61EA91
S1130CC070E081EA0E947A0C6AED70E08AED0E947D
S1130CD07A0C62E170E082E10E947A0C68EC70E0C8
S1130CE088EC0E947A0C68EA70E088EA0E947A0C28
S1130CF06FE370E08FE30E947A0C65ED70E085EDA0
S1130D000E947A0C60E870E080E80E947A0C61E846
S1130D1070E081E80E947A0C60E570E080E50E9452
S1130D207A0C69ED70E089ED0E947A0C61E270E062
S1130D3081E20E947A0C60E270E080E20E947A0C08
S1130D4062E070E082E00E947A0C6BED70E08BED63
S1130D500E947A0C60E370E080E30E947A0C6DEAF2
S1130D6070E08DEA0E947A0C60E070E080E00E94FE
S1130D707A0C64EA70E084EA0E947A0C66EA70E015
S1130D8086EA0E947A0C63ED70E083ED0E947A0C8F
S1130D9060E070E080E00E947A0C6FEA70E08FEA15
S1130DA00E947A0C0895EF92FF920F931F93CF93B2
S1130DB0DF938052082F10E0000F111F000F111F46
S1130DC0000F111F00591F4FEB01D85F7B0188E012
S1130DD0E80EF81EF8018491BE010E947A0C0F5FA0
S1130DE01F4F2196CE15DF05A9F7DF91CF911F91F3
S1130DF00F91FF90EF9008950F931F93CF93DF937C
S1130E00FC018081882371F08F01C62FD72F0F5FDB
S1130E101F4FBE010E94D306F80181918F012896CD
S1130E208111F7CFDF91CF911F910F9108950F9307
S1130E301F93CF93DF938038910568F56034710573
S1130E4050F5EB0177230CF42796D595C795D595E6
S1130E50C795D595C7959E01220F331F220F331FC7
S1130E60220F331F8B01021B130B6096D695DC2FC8
S1130E70CC27D795C795C80FD91FCE010E94760CF1
S1130E8021E030E002C0220F331F0A95E2F7BE01D1
S1130E90822B0E947A0CDF91CF911F910F910895BC
S1130EA00F931F93CF93DF938038910570F56034CF
S1130EB0710558F5EB0177230CF42796D595C79562
S1130EC0D595C795D595C7959E01220F331F220F3F
S1130ED0331F220F331F8B01021B130B6096D69511
S1130EE0DC2FCC27D795C795C80FD91FCE010E94F8
S1130EF0760C21E030E002C0220F331F0A95E2F79E
S1130F002095BE0182230E947A0CDF91CF911F911C
S1130F100F910895FF920F931F93CF93DF93C0E037
S1130F20D8E00F2EF0EBFF2EF02D60E070E08F2D57
S1130F300E947A0C60E070E080E00E947A0C60E02D
S1130F4070E080E10E947A0C8E0100581F4FCE01A0
S1130F500E94760C682F70E07E5F0E947A0C2196C6
S1130F60C017D107A1F7F394E80101151C40E9F675
S1130F70DF91CF911F910F91FF900895CF93DF934D
S1130F80C0E0D8E0BE0180E00E947A0C2196C11531
S1130F908CE0D807B9F7DF91CF910895CF93DF9311
S1130FA0CDB7DEB76E970FB6F894DEBF0FBECDBFD8
S1130FB00E94BE070E948A07188E1F8A1E8A1D8AF5
S1130FC0198E1A8E1B8E2FE32C8F1D861E861F866C
S1130FD0188A198A1A8A1B8A3FE33C8B812C912C2C
S1130FE00F2EF8EFAF2EF02D0F2EF1E4BF2EF02DC3
S1130FF0E12CF12C0F2EFCE7CF2EF02D0F2EF2E476
S1131000DF2EF02D2E2C3F2C89829A82AB82BC825B
S113101080E090E00E944A0C0E940F02082F06957F
S113102006950E94FB01182F1695169569817A8101
S11310308B819C810E94130D6D837E838F8398879F
S11310408D819E819A878987622D732D8C2D9D2D8C
S11310500E94130D2B013C016D817E81C2010E940F
S113106050078D819E81A985BA85BB230CF4079610
S11310709C013595279535952795359527953A877C
S11310802987C90180559F4FBC010E947A0CC20177
S11310908F709927BC010E947A0CC201959587959F
S11310A09595879595958795959587954096BC01D7
S11310B00E947A0C89859A8540969695982F882760
S11310C097958795840D951D0E94760C9927BC01F0
S11310D07E5F0E947A0C29893A894B895C89622D4A
S11310E0732D8C2D9D2D0E94A20C262E372EC82EDA
S11310F0D92E2D853E854F85588969817A818B81CA
S11311009C810E94A20C69837A838B839C8320E058
S113111030E0A901622D732D8C2D9D2D0E940E0DA2
S1131120181634F08F89988D0196988F8F8BC3C1D0
S113113020E030E04EEF52E4622D732D8C2D9D2D76
S11311400E94FB0D882334F0AD89BE891196BE8BB5
S1131150AD8BB1C120E030E040E850E4622D732D46
S11311608C2D9D2D0E940E0D811150C0212F30E039
S11311703A872987B9016C5F7F4F072E000C880BD3
S1131180990B0E944B0D9B01AC0169817A818B8183
S11311909C810E940E0D18160CF48EC069857A8508
S11311A064507109072E000C880B990B0E944B0D9B
S11311B09B01AC0169817A818B819C810E94FB0D2A
S11311C088230CF479C0A985BA85BD01BB0F880BAF
S11311D0990B0E944B0D9B01AC0169817A818B8133
S11311E09C810E94A10C20E030E040E05EE30E947C
S11311F0000E6D877E878F87988BB98DB98B2A8D6A
S11312002A8B3B8D3B8B8C8D8C8B56C020E030E041
S113121046EF52E4622D732D8C2D9D2D0E940E0DF0
S113122081114AC0A02FB0E0BA87A987BD016C5FC5
S11312307F4F072E000C880B990B0E944B0D9B01CE
S1131240AC0169817A818B819C810E940E0D1816F4
S11312509CF169857A8564507109072E000C880B0E
S1131260990B0E944B0D9B01AC0169817A818B81A2
S11312709C810E94FB0D8823FCF029853A85B901E5
S1131280330F880B990B0E944B0D9B01AC016981B4
S11312907A818B819C810E94A10C20E030E040E0A7
S11312A05EE30E94000E6D877E878F87988B198A74
S11312B01A8A1B8A3FEB3C8B20E030E0A90169814C
S11312C07A818B819C810E940E0D181664F420E0B3
S11312D030E04CE752E469817A818B819C810E94E1
S11312E0FB0D88234CF08D859E85AF85B889B05859
S11312F08D879E87AF87B88B69817A818B819C812A
S11313000E94130D69877A878B879C8789859A85C4
S11313109E8F8D8F99232CF49C01295F3F4F3E8F24
S11313202D8F8D8D9E8D9595879595958795959502
S113133087959E8F8D8F80559F4FBC010E947A0C9C
S1131340622D732D8C2D9D2D0E94130D4B015C017C
S1131350CB018F709927BC010E947A0CC40195952A
S113136087959595879595958795959587954096B5
S1131370BC010E947A0C8D8D9E8D40969695982F77
S1131380882797958795880D991D0E94760C992733
S1131390BC017E5F0E947A0CA3E0B8E0BE8FAD8FE3
S11313A06D8D7E8D80E090E00E947A0C6D8D7E8D37
S11313B067587F4F80E090E00E947A0C2D8D3E8D1F
S11313C020583F4F3E8F2D8F23303C4049F7812FCB
S11313D090E0DC011497BE8FAD8F7C01B5E0EB0E7D
S11313E0F11C10E0081B190B6D8D7E8D83E090E0DD
S11313F00E9417076D8D7E8D600F711F8CE790E042
S11314000E9417078D8D9E8D01969E8F8D8F8E1550
S11314109F0551F769857A85C4010E9417076D817C
S11314207E81C2010E945007A3E0B8E000EB10E007
S1131430BE83AD83B801C8010E947A0C63E070E0FA
S113144083E090E00E947A0C60E170E080E190E03B
S11314500E947A0C8D819E810E94760C9927BC0192
S11314607E5F0E947A0C6CE070E08CE090E00E9459
S11314707A0C67E170E087E190E00E947A0C8D813C
S11314809E8187589F4F0E94760C9927BC017E5FEE
S11314900E947A0C0F5F1F4F2D813E8120583F4FD1
S11314A03E832D8323303C4029F60E94500C883C17
S11314B09105DCF3ADCD0E94BE0762EB71E08D892E
S11314C0805D0E94D30666EC71E08F89805D0E9486
S11314D0D3060E948A079FEFAFEFBDE19150A04071
S11314E0B040E1F700C000000E94BE070E948A07D6
S11314F06CCDCF93DF93CDB7DEB72E970FB6F894AC
S1131500DEBF0FBECDBF1C861B861A861986512CE2
S1131510412C0F2EF8EF3F2EF02D0F2EF1E42F2E3D
S1131520F02D10E000E00F2EFCE77F2EF02D0F2EA3
S1131530F2E46F2EF02D812C912C54011D821E8219
S113154020E82F833FE3388759824A823B82302E3A
S1131550072D2C82212E162D80E00E943D0C0E9426
S11315600F02682F70E080E090E00E944B0D20E0B5
S113157030E040E85EE30E94000E2B013C010E9433
S1131580FB01682F70E080E090E00E944B0D20E0AA
S113159030E040E85EE30E94000E6B017C012D8187
S11315A03E814F815885622D732D802F912F0E948B
S11315B0A20C262E372E082F192FA501940169811C
S11315C07A818B819C810E94A20C69837A838B83AC
S11315D09C8320E030E0A901622D732D802F912F90
S11315E00E940E0D181634F08B859C8501969C87FD
S11315F08B8708C120E030E04EEF52E4622D732D5A
S1131600802F912F0E94FB0D88233CF029853A8579
S11316102F5F3F4F3A872987F5C020E030E040E84C
S113162050E4622D732D802F912F0E940E0D811195
S11316303CC020E030E040E850E4C701B6010E941D
S1131640A20C9B01AC0169817A818B819C810E94EF
S11316500E0D18160CF46EC020E030E040E850E4A3
S1131660C701B6010E94A10C9B01AC0169817A817A
S11316708B819C810E94FB0D88230CF45BC0A70125
S1131680960169817A818B819C810E94A10C20E062
S113169030E040E05EE30E94000E4B015C011D82DD
S11316A01E821F823FE3388745C020E030E046EFCA
S11316B052E4622D732D802F912F0E940E0D811103
S11316C039C020E030E040E850E4C301B2010E9498
S11316D0A20C9B01AC0169817A818B819C810E945F
S11316E00E0D18163CF120E030E040E850E4C30150
S11316F0B2010E94A10C9B01AC0169817A818B81AA
S11317009C810E94FB0D8823ACF0A30192016981A6
S11317107A818B819C810E94A10C20E030E040E022
S11317205EE30E94000E4B015C011D821E821F823B
S11317308FEB888720E030E0A90169817A818B8171
S11317409C810E940E0D181664F420E030E04CE7F2
S113175052E469817A818B819C810E94FB0D8823EC
S113176024F0B7FAB094B7F8B0940E94BE072CEFF7
S11317703FEF3E872D87C701B6010E94130D2D85CB
S11317803E85620F731F83E090E00E941707C30138
S1131790B2010E94130D2D853E85620F731F8CE7E5
S11317A090E00E9417078D859E8501969E878D8700
S11317B0059709F769817A818B819C810E94130DB9
S11317C06B017C01622D732D802F912F0E94130DCC
S11317D0DC01CB01B6010E94170780E00E943D0C9A
S11317E00E948A070E94430C93959F938F9326EF40
S11317F031E03F932F930E94E00E0F900F900F90D3
S11318000F90AACE0E94BE0762EB71E08985805DCD
S11318100E94D30666EC71E08B85805D0E94D3063E
S11318200E948A079FEF2FEF3DE191502040304006
S1131830E1F700C000000E94BE070E948A0767CE3D
S113184087B3806B87BBBE988DB180658DB96D9869
S11318506B986A986898699808958FB9779BFECFBA
S113186008958FEF8FB9779BFECF8FB1089585E0F0
S113187083BF089587E087BD08959FB7F89482BF1A
S11318809FBF789408959FB7F89482B79FBF7894C8
S113189090E008959FB7F89483BD9FBF789408950E
S11318A09FB7F89483B59FBF789490E008955D9BAB
S11318B0FECF8CB908955F9BFECF8CB1089590BD87
S11318C089B988E18AB98EE880BD6BE57CE087E55B
S11318D09CE00E94950E089585B7806885BF80B707
S11318E0806280BF80B7877E80BF0895905FFC01CF
S11318F080810895FB01F05F808308950E94B10305
S11319008FE190E00E945F0C0E946C0C87E092E0F3
S11319109F938F930E94E00E0E94370C0E943A0C12
S113192080E00E9423020E94D2050F900F902FEFB7
S11319308FE797E0215080409040E1F700C000001D
S1131940F6CF5058BB27AA270E94B90C0C94C10D9E
S11319500E94B30D38F00E94BA0D20F039F49F3F75
S113196019F426F40C94B00D0EF4E095E7FB0C94F6
S1131970AA0DE92F0E94D20D58F3BA176207730714
S11319808407950720F079F4A6F50C94F40D0EF471
S1131990E0950B2EBA2FA02D0B01B90190010C017B
S11319A0CA01A0011124FF27591B99F0593F50F493
S11319B0503E68F11A16F040A22F232F342F4427EB
S11319C0585FF3CF469537952795A795F0405395E3
S11319D0C9F77EF41F16BA0B620B730B840BBAF0B3
S11319E09150A1F0FF0FBB1F661F771F881FC2F71E
S11319F00EC0BA0F621F731F841F48F48795779532
S1131A006795B795F7959E3F08F0B0CF9395880FEB
S1131A1008F09927EE0F9795879508950E94860DF3
S1131A2008F481E008950E941A0D6894B1110C9491
S1131A30F50D08950E94DA0D88F09F5798F0B92F9C
S1131A409927B751B0F0E1F0660F771F881F991FEF
S1131A501AF0BA95C9F714C0B13091F00E94F40D90
S1131A60B1E008950C94F40D672F782F8827B85FA0
S1131A7039F0B93FCCF3869577956795B395D9F747
S1131A803EF490958095709561957F4F8F4F9F4F51
S1131A900895E89409C097FB3EF49095809570955D
S1131AA061957F4F8F4F9F4F9923A9F0F92F96E9A6
S1131AB0BB279395F695879577956795B795F1111B
S1131AC0F8CFFAF4BB0F11F460FF1BC06F5F7F4FB8
S1131AD08F4F9F4F16C0882311F096E911C07723CA
S1131AE021F09EE8872F762F05C0662371F096E8D3
S1131AF0862F70E060E02AF09A95660F771F881FA2
S1131B00DAF7880F9695879597F90895990F000845
S1131B10550FAA0BE0E8FEEF16161706E807F907BB
S1131B20C0F012161306E407F50798F0621B730B56
S1131B30840B950B39F40A2661F0232B242B252BD7
S1131B4021F408950A2609F4A140A6958FEF811D7A
S1131B50811D089597F99F6780E870E060E008951B
S1131B609FEF80EC089500240A94161617061806B1
S1131B700906089500240A9412161306140605068D
S1131B800895092E0394000C11F4882352F0BB0F1E
S1131B9040F4BF2B11F460FF04C06F5F7F4F8F4F81
S1131BA09F4F089557FD9058440F551F59F05F3FBC
S1131BB071F04795880F97FB991F61F09F3F79F06B
S1131BC087950895121613061406551FF2CF4695ED
S1131BD0F1DF08C0161617061806991FF1CF86956F
S1131BE07105610508940895E894BB276627772753
S1131BF0CB0197F908950E94860D08F48FEF08959C
S1131C000E94130E0C94C10D0E94B30D38F00E9473
S1131C10BA0D20F0952311F00C94AA0D0C94B00D7C
S1131C2011240C94F50D0E94D20D70F3959FC1F30D
S1131C30950F50E0551F629FF001729FBB27F00D76
S1131C40B11D639FAA27F00DB11DAA1F649F6627CB
S1131C50B00DA11D661F829F2227B00DA11D621F1A
S1131C60739FB00DA11D621F839FA00D611D221FD4
S1131C70749F3327A00D611D231F849F600D211DB8
S1131C80822F762F6A2F11249F5750409AF0F1F03B
S1131C9088234AF0EE0FFF1FBB1F661F771F881FA4
S1131CA091505040A9F79E3F510580F00C94AA0D25
S1131CB00C94F50D5F3FE4F3983ED4F38695779545
S1131CC06795B795F795E7959F5FC1F7FE2B880F4A
S1131CD0911D9695879597F9089597FB072E16F40D
S1131CE0009407D077FD09D00E94810E07FC05D02F
S1131CF03EF4909581959F4F0895709561957F4F1F
S1131D000895AA1BBB1B51E107C0AA1FBB1FA6173E
S1131D10B70710F0A61BB70B881F991F5A95A9F790
S1131D2080959095BC01CD0108950F931F93CF9397
S1131D30DF93009731F46115710519F480E090E0A8
S1131D403AC08B01EC016EE070E081E090E00E940B
S1131D50D710FC01892B91F380E8838301151105C9
S1131D6071F01387028781E8838380911A0290912E
S1131D701B02892B21F4F0931B02E0931A02209793
S1131D80C9F0D187C08783818260838380911C02DC
S1131D9090911D02892B71F4F0931D02E0931C02B3
S1131DA080911E0290911F02892B21F4F0931F024F
S1131DB0E0931E02CF01DF91CF911F910F910895FF
S1131DC0A0E0B0E0E6EEFEE00C94DB12AE014B5F67
S1131DD05F4FFA0161917191AF0180911C02909162
S1131DE01D020E94F60EE2E00C94F712ABE0B0E0A4
S1131DF0ECEFFEE00C94CB126C017B018A01FC0138
S1131E0017821682838181FFCCC1CE0101963C01E9
S1131E10F6019381F70193FD859193FF81917F01F1
S1131E20882309F4BAC1853239F493FD859193FF6F
S1131E3081917F01853229F4B60190E00E9431122C
S1131E40E7CF912C212C312CFFE1F315D8F08B3204
S1131E5079F038F4803279F08332A1F4232D2061B3
S1131E601DC08D3261F0803369F4232D216016C0CA
S1131E70832D8260382EE32DE4603E2E2AC0F32D9C
S1131E80F8601DC037FC2DC020ED280F2A3040F02B
S1131E908E32B9F436FC81C1232D2064322E19C050
S1131EA036FE06C08AE0989E200D1124922E11C0A1
S1131EB0EAE02E9E200D1124222EF32DF0623F2EF7
S1131EC008C08C3621F4832D8068382E02C08836F1
S1131ED041F4F70193FD859193FF81917F01811175
S1131EE0B3CF982F9F7D9554933028F40C5F1F4FE8
S1131EF09FE399830DC0833631F0833771F08335C6
S1131F0009F059C021C0F801808189830E5F1F4FF9
S1131F1088248394912C530113C02801F2E04F0EBE
S1131F20511CF801A080B18036FE03C0692D70E019
S1131F3002C06FEF7FEFC5010E9426124C0182019F
S1131F40F32DFF773F2E16C0280122E0420E511CCC
S1131F50F801A080B18036FE03C0692D70E002C094
S1131F606FEF7FEFC5010E9414124C01F32DF0684E
S1131F703F2E820133FC1BC0822D90E08816990607
S1131F80B0F4B60180E290E00E9431122A94F4CFBA
S1131F90F50137FC859137FE81915F01B60190E030
S1131FA00E94311221102A9421E0821A910881148E
S1131FB0910471F7E8C0843611F0893641F5F801CF
S1131FC037FE07C060817181828193810C5F1F4F4E
S1131FD008C060817181072E000C880B990B0E5F7D
S1131FE01F4FF32DFF763F2E97FF09C090958095E4
S1131FF0709561957F4F8F4F9F4FF0683F2E2AE079
S113200030E0A3010E946D12882E861845C08537E2
S113201031F4232D2F7EB22E2AE030E025C0932DFB
S1132020997FB92E8F36C1F018F4883579F0B5C090
S1132030803719F0883721F0B0C0E92FE061BE2E57
S1132040B4FE0DC0FB2DF460BF2E09C034FE0AC0DF
S1132050292F2660B22E06C028E030E005C020E11A
S113206030E002C020E132E0F801B7FE07C0608131
S11320707181828193810C5F1F4F06C060817181E1
S113208080E090E00E5F1F4FA3010E946D12882E26
S11320908618FB2DFF773F2E36FE0DC0232D2E7F95
S11320A0A22E891458F434FE0BC032FC09C0832DCF
S11320B08E7EA82E05C0B82CA32C03C0B82C01C05A
S11320C0B92CA4FE0FC0FE01E80DF11D8081803300
S11320D021F49A2D997EA92E09C0A2FE06C0B394BC
S11320E0B39404C08A2D867809F0B394A3FC11C07C
S11320F0A0FE06C0B21488F4280C922C9B180EC0C3
S1132100B21460F4B60180E290E00E943112B394FC
S1132110F7CFB21418F42B1802C0982C212CA4FE6B
S113212010C0B60180E390E00E943112A2FE17C0F5
S1132130A1FC03C088E790E002C088E590E0B60106
S11321400CC08A2D867859F0A1FE02C08BE201C032
S113215080E2A7FC8DE2B60190E00E94311289145E
S113216038F4B60180E390E00E9431129A94F7CFDC
S11321708A94F301E80DF11D8081B60190E00E947C
S113218031128110F5CF222009F442CEB60180E24B
S113219090E00E9431122A94F6CFF601868197814D
S11321A002C08FEF9FEF2B96E2E10C94E7120F939E
S11321B01F93CF93DF93869F8001879F100D969F77
S11321C0100D1124C8010E94F310EC01009729F0AE
S11321D0A80160E070E00E941F12CE01DF91CF9150
S11321E01F910F9108950F931F93CF93DF93823024
S11321F0910510F482E090E0E0912202F091230234
S113220020E030E0A0E0B0E0309719F14081518146
S11322100281138148175907C8F08417950769F498
S1132220109731F012960C93129713961C9327C0B3
S1132230009322021093230222C02115310519F0C4
S11322404217530718F49A01BD01EF01DF01F801A9
S1132250DBCF21153105F9F0281B390B243031056A
S113226080F48A819B816115710521F0FB019383C0
S1132270828304C09093230280932202FE0132964B
S113228044C0FE01E20FF31F819391932250310960
S1132290398328833AC02091200230912102232BD4
S11322A041F42091020130910301309321022093E3
S11322B0200220910001309101012115310541F4E2
S11322C02DB73EB74091040150910501241B350BF5
S11322D0E0912002F0912102E217F307A0F42E1BF3
S11322E03F0B2817390778F0AC014E5F5F4F241776
S11322F0350748F04E0F5F1F509321024093200290
S11323008193919302C0E0E0F0E0CF01DF91CF919F
S11323101F910F910895CF93DF93009709F481C023
S1132320FC01329713821282A0912202B0912302FF
S1132330109781F420813181820F931F2091200214
S1132340309121022817390751F5F0932102E093C7
S1132350200267C0ED0120E030E0CE17DF0740F433
S11323604A815B819E0141155105F1F0EA01F5CFE7
S1132370D383C28340815181840F951FC817D90725
S113238059F488819981840F951F029691838083E3
S11323908A819B81938382832115310529F4F093EB
S11323A02302E09322023DC0E901FB83EA834991C1
S11323B05991C40FD51FEC17FD0761F480819181F9
S11323C0840F951F0296E901998388838281938102
S11323D09B838A83E0E0F0E012968D919C911397A1
S11323E0009719F0FD01DC01F7CF8D919C911197B5
S11323F09D012E5F3F4F820F931F20912002309149
S113240021022817390769F4309729F4109223021E
S11324101092220202C013821282B0932102A0936E
S11324202002DF91CF910895FC0105906150704026
S11324300110D8F7809590958E0F9F1F0895DC01A9
S113244001C06D9341505040E0F70895FC01615084
S1132450704001900110D8F7809590958E0F9F1FC2
S113246008950F931F93CF93DF93FB01238121FDE5
S113247003C08FEF9FEF2CC022FF16C04681578107
S1132480248135814217530744F4A081B1819D0111
S11324902F5F3F4F318320838C93268137812F5FB9
S11324A03F4F3783268314C08B01EC01FB0100846A
S11324B0F185E02D0995892BE1F6D80116968D91C9
S11324C09C911797019617969C938E931697CE011D
S11324D0DF91CF911F910F910895FA01AA27283017
S11324E051F1203181F1E8946F936E7F6E5F7F4FDD
S11324F08F4F9F4FAF4FB1E03ED0B4E03CD0670F59
S1132500781F891F9A1FA11D680F791F8A1F911DAB
S1132510A11D6A0F711D811D911DA11D20D009F4FB
S113252068943F912AE0269F11243019305D31933D
S1132530DEF6CF010895462F4770405D4193B3E026
S11325400FD0C9F7F6CF462F4F70405D4A3318F0CD
S1132550495D31FD4052419302D0A9F7EACFB4E07E
S1132560A6959795879577956795BA95C9F7009736
S11325706105710508959B01AC010A2E06945795D7
S1132580479537952795BA95C9F7620F731F841F2E
S1132590951FA01D08952F923F924F925F926F92C4
S11325A07F928F929F92AF92BF92CF92DF92EF92DF
S11325B0FF920F931F93CF93DF93CDB7DEB7CA1B60
S11325C0DB0B0FB6F894DEBF0FBECDBF09942A888B
S11325D0398848885F846E847D848C849B84AA8433
S11325E0B984C884DF80EE80FD800C811B81AA81C0
S11325F0B981CE0FD11D0FB6F894DEBF0FBECDBF8B
S10B2600ED010895F894FFCFE9
S113260800002402200043414E20636F6E74726FF1
S11326186C6C657220696E206C6F6F706261636B9D
S1132628206D6F64650A0D0072656369657665647B
S1132638207570706572204944203D202523582058
S11326480A0D002D2D2D204D657373616765207269
S113265865636965766564202D2D2D0A0D0049444E
S11326683A20252358200A0D004C656E6774683A91
S1132678202564200A0D00446174615B305D203DAF
S113268820252358200A0D004342452100506C613F
S113269879696E672067616D65002D0063757272D4
S11326A8656E744D656E75203D20253135730D00BA
S11326B84D61696E206D656E750053746172742086
S11326C87370696C6C004D6F726F66756E6B736AAC
S11326D86F6E6572007375623200717569636B2081
S11326E8706F6E6700736C6F7720706F6E67004948
S11326F86E766572730054696D6520656C617073DC
S113270865643A202564000A5374617274696E67BB
S10B27182E2E2E2E200A0D00C6
S9030000FC
