S00C00006C6162382E73726563B1
S11300000C94B4010C949F030C94B3030C94D1018D
S11300100C94D1010C94D1010C94D1010C94D10114
S11300200C94D1010C94D1010C94D1010C94D10104
S11300300C94D1010C9456040C94D1010C94D1016C
S11300400C9432040C94D1010C94D1010C94D10180
S11300500C94D1010C94D1010C94D1010C94D101D4
S11300600C94D1010C94D1010C94D1010C94D101C4
S1130070000000000000000000065F5F06000000B2
S11300800007070007070000147F7F147F7F140018
S1130090242E6B6B3A120000466630180C66620020
S11300A0307A4F5D377A48000407030000000000EF
S11300B0001C3E63410000000041633E1C00000040
S11300C0082A3E1C1C3E2A0808083E3E0808000078
S11300D000A0E0600000000008080808080800000C
S11300E000006060000000006030180C060301008E
S11300F03E7F594D7F3E000042427F7F40400000DA
S1130100627359496F660000226349497F360000D3
S1130110181C16137F7F1000276745457D390000A2
S11301203C7E4B4979300000036371190F070000CE
S1130130367F49497F360000064F49693F1E00005B
S113014000006C6C0000000000A0EC6C00000000DB
S1130150081C366341000000141414141414000025
S1130160004163361C080000020351590F060000C9
S11301703E7F415D5D1F1E007C7E13137E7C00006C
S1130180417F7F49497F36001C3E63414163220021
S1130190417F7F41637F1C00417F7F495D41630054
S11301A0417F7F491D0103001C3E6341517372006E
S11301B07F7F08087F7F000000417F7F41000000AF
S11301C0307040417F3F0100417F7F081C7763000E
S11301D0417F7F41406070007F7F060C067F7F0077
S11301E07F7F060C187F7F001C3E6341633E1C002A
S11301F0417F7F49090F06001E3F21717F5E000089
S1130200417F7F19396F460026674D597B320000C4
S113021003417F7F410300007F7F40407F7F0000D8
S11302201F3F60603F1F00007F7F3018307F7F00DA
S113023063771C081C776300074F78784F0700002A
S11302406773594D47637100007F7F41410000008F
S11302500103060C183060000041417F7F0000005C
S1130260080C0603060C0800808080808080808053
S11302700000030704000000207454543C7840003C
S1130280413F7F44447C3800387C44446C2800005F
S1130290307848493F7F4000387C54545C18000053
S11302A0487E7F490302000098BCA4A4F87C0400A3
S11302B0417F7F08047C780000447D7D400000007D
S11302C040C484FD7D000000417F7F10386C4400F1
S11302D000417F7F400000007C7C0C180C7C78007F
S11302E07C7C04047C780000387C44447C38000026
S11302F084FCF8A4243C1800183C24A4F8FC8400D2
S1130300447C78441C180000485C54547424000055
S113031000043E7F442400003C7C40403C7C400080
S11303201C3C60603C1C00003C7C6030607C3C00F9
S1130330446C3810386C44009CBCA0A0FC7C0000C9
S11303404C64745C4C64000008083E774141000032
S113035000000077770000004141773E0808000064
S1130360020301030203010011241FBECFEFD4E0F6
S1130370DEBFCDBF11E0A0E0B1E0E2E1FAE202C0ED
S113038005900D92AE3CB107D9F721E0AEECB1E097
S113039001C01D92A43EB207E1F70E94310E0C94F5
S11303A007150C94000064E074E084E00E942D0EB4
S11303B08091D2019091D301892BD1F31092D30172
S11303C01092D20180E094E00E94290E089565E025
S11303D074E085E00E942D0E8091D2019091D301AA
S11303E0892BD1F31092D3011092D20180E094E0D2
S11303F00E94290E089566E074E086E00E942D0EA6
S11304008091D2019091D301892BD1F31092D30121
S11304101092D20180E094E00E94290E089567E0D2
S113042074E087E00E942D0E8091D2019091D30157
S1130430892BD1F31092D3011092D20180E094E081
S11304400E94290E0895CF93C82F0E94B80465E036
S11304508BE20E94CB044C2F60EE8FE00E94F604E6
S113046040E660E680E60E94F6048FE00E94BD0448
S113047086FF08C086E091E09F938F930E949310BB
S11304800F900F90CF910895EF92FF920F931F93C7
S1130490CF937C01F894FC01608181E30E94CB043A
S11304A0F701618185E30E94CB04F701818190E02B
S11304B0C696C697A4F087010E5F1F4FC6E3F801E6
S11304C061918F018C2F0E94CB04CF5F2C2F30E0E1
S11304D0F701818190E0C6968217930784F780E044
S11304E090E00E94DD047894CF911F910F91FF90CA
S11304F0EF9008957F928F929F92AF92BF92CF9286
S1130500DF92EF92FF920F931F93CF93DF93CDB7B8
S1130510DEB72A970FB6F894DEBF0FBECDBF5C01DD
S113052081E60E94BD04782E85E60E94BD04082F52
S1130530C82ED12C26E6C20ED11C36E6C316D10431
S1130540CCF07E0183E0E80EF11C16E6CE01809526
S11305509095FC01EC59FF4F4F01812F0E94BD047F
S1130560F70181937F011F5FC4018E0F9F1FC8167F
S1130570D9069CF779820A838AE0FE013196D50177
S113058001900D928A95E1F7C5012A960FB6F89469
S1130590DEBF0FBECDBFDF91CF911F910F91FF90B2
S11305A0EF90DF90CF90BF90AF909F908F907F900F
S11305B00895CF930E94D301C82F0E94E70194E6C7
S11305C0C99F90011124220F232F221F330B24567D
S11305D094E6899FA0011124440F452F441F550B15
S11305E0822F9CE9940FCF9108950E94D902492F3C
S11305F0873F54F48802900111249902B001112418
S11306006217730764F425C08A304CF088029001A5
S113061011249902B001112462177307E4F0473FD3
S11306205CF48802A001112499029001112442175C
S113063053079CF483E008954A308CF08802A001AB
S113064011249902900111244217530754F482E0B3
S1130650089580E0089581E0089584E0089584E099
S1130660089584E00895CF93DF93CDB7DEB72A973A
S11306700FB6F894DEBF0FBECDBF82E089838A83B4
S11306800E94D902282F892F990F990B8B599F4FBC
S1130690E5E0F0E0BF010E942010362F330F822FD7
S11306A0220F990B8B599F4FBF010E942010660F98
S11306B06B833C83CE0101960E9444022A960FB6B6
S11306C0F894DEBF0FBECDBFDF91CF910895CF93D5
S11306D0DF93CDB7DEB72A970FB6F894DEBF0FBE0F
S11306E0CDBF93E099839A838B836C834D83CE0132
S11306F001960E9444022A960FB6F894DEBF0FBEFC
S1130700CDBFDF91CF91089586B3827090E00895B4
S1130710F89485B7826085BF85B78E7F85BF85B71E
S1130720886085BF85B78B7F85BF8BB780648BBF9F
S11307308BB780688BBF84E681BF789408951F923D
S11307400F920FB60F9211248F939F9381E090E044
S11307509093D3018093D2019F918F910F900FBEFC
S11307600F901F9018951F920F920FB60F9211249D
S11307701F932F933F934F935F936F937F938F9325
S11307809F93AF93BF93EF93FF93CF93DF93CDB733
S1130790DEB76297DEBFCDBF8CE20E94BD0482FF4C
S11307A005C040E064E08CE20E94F6048CE20E9402
S11307B0BD0480FF3AC0CE0101960E947A0289816D
S11307C0803131F51B811F921F9388E291E09F9342
S11307D08F93CE010B969F938F930E94D9100F9005
S11307E00F900F900F900F900F90111108C00E945E
S11307F0630964E970E08BE291E00E94A1086CEB6C
S113080071E0CE010B960E94A1080E942F0908C036
S11308108F3F31F481E090E09093CF018093CE013B
S113082040E061E08CE20E94F6048CE20E94BD0488
S113083062960FB6F894DEBF0FBECDBFDF91CF91A5
S1130840FF91EF91BF91AF919F918F917F916F91A4
S11308505F914F913F912F911F910F900FBE0F9079
S11308601F9018951F920F920FB60F9211242F9379
S11308703F934F935F936F937F938F939F93AF9324
S1130880BF93EF93FF930E943303FF91EF91BF91C6
S1130890AF919F918F917F916F915F914F913F9114
S11308A02F910F900FBE0F901F9018951F920F92CB
S11308B00FB60F9211240F931F932F933F934F93CF
S11308C05F936F937F938F939F93AF93BF93EF93B4
S11308D0FF93CF93DF93CDB7DEB72897DEBFCDBFAD
S11308E08091D0019091D10101969093D101809390
S11308F0D0018091D0019091D1019F938F9388E290
S113090091E09F938F938E010F5F1F4F1F930F935F
S11309100E94D9106CEB71E0C8010E94A1080E94EA
S11309202F090F900F900F900F900F900F90289613
S11309300FB6F894DEBF0FBECDBFDF91CF91FF910C
S1130940EF91BF91AF919F918F917F916F915F9143
S11309504F913F912F911F910F910F900FBE0F90C8
S11309601F901895C49880EC0E94D70DC49A0895DE
S11309700E94CA0D0E94B2040895CF93C82FC49850
S113098083E00E94D70D8C2F0E94D70D0E94DB0DAF
S1130990C49ACF910895CF93DF93D82FC62FC498CC
S11309A082E00E94D70D8D2F0E94D70D8C2F0E94BC
S11309B0D70DC49ADF91CF910895C498009721F47C
S11309C081E80E94D70D10C08130910521F482E89E
S11309D00E94D70D09C0029721F484E80E94D70D24
S11309E003C087E80E94D70DC49A08951F93CF933C
S11309F0DF93182FD62FC42FC49885E00E94D70DFB
S1130A00812F0E94D70D8D2F0E94D70D8C2F0E940D
S1130A10D70DC49ADF91CF911F9108950E94630965
S1130A200E942F090E94F502833039F467EA70E0CE
S1130A3087EA90E00E942D0EF5CF0E94F502811105
S1130A4007C066EA70E086EA90E00E942D0E0895E1
S1130A5066EA70E086EA90E00E942D0EE3CFEF9202
S1130A60FF920F931F93CF93DF93CDB7DEB72897F1
S1130A700FB6F894DEBF0FBECDBF0E94630960E1DC
S1130A8070E088E391E00E94A1088091D9018F93DE
S1130A908091D8018F930F2EF8E2EF2EF1E0FF2E14
S1130AA0F02DFF92EF928E010F5F1F4F1F930F9354
S1130AB00E94D91060E071E0C8010E94A1088091F1
S1130AC0D7018F938091D6018F93FF92EF921F935A
S1130AD00F930E94D91060E871E0C8010E94A10838
S1130AE08091D5018F938091D4018F93FF92EF92DF
S1130AF01F930F930E94D91060E072E0C8010E9416
S1130B00A1080E942F090FB6F894DEBF0FBECDBF17
S1130B100E94F5028111FCCF28960FB6F894DEBF2F
S1130B200FBECDBFDF91CF911F910F91FF90EF903A
S1130B3008957F928F929F92AF92BF92CF92DF924D
S1130B40EF92FF920F931F93CF93DF93CDB7DEB74E
S1130B5062970FB6F894DEBF0FBECDBF1092D101DD
S1130B601092D0010E940F02882E0E9484035C011F
S1130B700E94D30124E6829FC0011124C92ED92EDC
S1130B80DD0CDD080E94630964E970E08BE291E00A
S1130B900E94A1080E942F0984E0898381E08A834E
S1130BA0CE0101960E9444020E94E40D0F2EF4E649
S1130BB07F2EF02D3BC080E00E94F00D0E940F02BA
S1130BC0982E0E94D301789EC0011124092F192F59
S1130BD0110F110B0E9484037C01892D90E0881968
S1130BE091099C0122F422273327281B390B223038
S1130BF031057CF498012C193D09C901992324F489
S1130C0088279927821B930B06971CF4AE14BF0404
S1130C1039F0A701B801892D0E9467036801892C66
S1130C200E94F60D883C9105D8F357018091CE01BE
S1130C309091CF01019709F0BECF89B78F7B89BF0F
S1130C4084E491E00E94A9100E9463098091D0017C
S1130C509091D1019F938F9388E291E09F938F931A
S1130C608E01055F1F4F1F930F930E94D9106CE3F1
S1130C7072E0C8010E94A1086EE171E08FE491E086
S1130C800E94A1080E942F091092CF011092CE0158
S1130C902091D0013091D1018091D8019091D90156
S1130CA00F900F900F900F900F900F908217930753
S1130CB0ACF42091D6013091D7013093D501209323
S1130CC0D4019093D7018093D6018091D001909163
S1130CD0D1019093D9018093D8012BC02091D001E8
S1130CE03091D1018091D6019091D7018217930759
S1130CF06CF49093D5018093D4018091D0019091AC
S1130D00D1019093D7018093D60113C02091D001D3
S1130D103091D1018091D4019091D501821793072C
S1130D2044F48091D0019091D1019093D5018093A6
S1130D30D4018FEF9FEF2CE2815090402040E1F7E7
S1130D4000C000C062960FB6F894DEBF0FBECDBFE0
S1130D50DF91CF911F910F91FF90EF90DF90CF9093
S1130D60BF90AF909F908F907F900895CF92DF9225
S1130D70EF92FF920F931F93CF93DF93DC011296B0
S1130D802D913C91139712161306A4F56C017C0166
S1130D9000E010E0C0E0D0E0F601868997898C1766
S1130DA09D0791F4B80189E591E00E94A108D7015B
S1130DB01496ED91FC911597B801685F7F4F808D73
S1130DC0918D0E94A1080AC0D7011496ED91FC915F
S1130DD01597B801808D918D0E94A1082196005825
S1130DE01F4FB2E0EB0EF11CF60182819381C8170C
S1130DF0D90794F2DF91CF911F910F91FF90EF905B
S1130E00DF90CF900895EC010BE511E0898D8F936D
S1130E10888D8F931F930F930E9493100E94F50265
S1130E200F900F900F900F90843009F454C00E94DB
S1130E30F502813041F108F1823089F0833009F004
S1130E4046C08E899F8901962A813B8128173907DC
S1130E5019F41F8A1E8A3BC09F8B8E8B38C08E89E3
S1130E609F89009731F48A819B8101979F8B8E8B98
S1130E702EC001979F8B8E8B2AC08C899D890097E9
S1130E8031F1EC0124C0EE89FF893296EE0FFF1F89
S1130E90EC0FFD1F0190F081E02D82819381892B5D
S1130EA0A9F40E946309EE89FF893296EE0FFF1FB1
S1130EB0EC0FFD1F0190F081E02D0190F081E02DF9
S1130EC0099580E090EF0197F1F701C0EF010E94CE
S1130ED0F5028430E1F70E946309CE010E94B60650
S1130EE00E942F0993CFCF93DF93CDB7DEB7C65BB4
S1130EF0D1090FB6F894DEBF0FBECDBF0E94FF0725
S1130F000E9463090E942F098FE691E09A8F898FCE
S1130F1023E030E03C832B83188E1F8ACE01019698
S1130F2098AB8FA71E8E1D8E49E751E05CAB4BAB8F
S1130F3049E955E05C8F4B8F2B969FAF8EAF2B9773
S1130F4038AF2FAB25E831E02F963FAF2EAF2F9768
S1130F50FE01E15BFF4F958B848B1382128224E99F
S1130F6031E0318F208F2FE235E0318320831E8AD8
S1130F701D8A9E01255E3F4F3E832D83AE014B5C4F
S1130F805F4F58874F83FA87E987225B3F4FF90108
S1130F90558B448B1382128260EA71E0718F608FEB
S1130FA063E779E071836083DE01AD57BF4F5596E7
S1130FB05C934E93549713961C921E9212976BEA6D
S1130FC071E059967C936E9358976EE27CE011968B
S1130FD07C936E93F496558B448B1382128245EB6B
S1130FE051E0518F408F4EE055E0518340833AAF3A
S1130FF029AFBCAFABAFFEAFEDAF0E9403076EEA03
S113100070E08EEA0E942D0E61EA70E081EA0E948F
S11310102D0E6AED70E08AED0E942D0E62E170E003
S113102082E10E942D0E68EC70E088EC0E942D0E87
S113103068EA70E088EA0E942D0E6FE370E08FE3A7
S11310400E942D0E65ED70E085ED0E942D0E60E886
S113105070E080E80E942D0E61E870E081E80E9453
S11310602D0E60E570E080E50E942D0E69ED70E0C4
S113107089ED0E942D0E61E270E081E20E942D0E46
S113108060E270E080E20E942D0E62E070E082E097
S11310900E942D0E6BED70E08BED0E942D0E60E32F
S11310A070E080E30E942D0E6DEA70E08DEA0E94EC
S11310B02D0E60E070E080E00E942D0E64EA70E086
S11310C084EA0E942D0E66EA70E086EA0E942D0EE4
S11310D063ED70E083ED0E942D0E60E070E080E02F
S11310E00E942D0E6FEA70E08FEA0E942D0E089583
S11310F0EF92FF920F931F93CF93DF938052082FA9
S113110010E0000F111F000F111F000F111F0059D5
S11311101F4FEB01D85F7B0188E0E80EF81EF80151
S11311208491BE010E942D0E0F5F1F4F2196CE1594
S1131130DF05A9F7DF91CF911F910F91FF90EF90F9
S113114008950F931F93CF93DF93FC01808188232D
S113115071F08F01C62FD72F0F5F1F4FBE010E9462
S11311607808F80181918F0128968111F7CFDF91DA
S1131170CF911F910F9108950F931F93CF93DF93F6
S11311808038910568F56034710550F5EB017723DB
S11311900CF42796D595C795D595C795D595C7953C
S11311A09E01220F331F220F331F220F331F8B0187
S11311B0021B130B6096D695DC2FCC27D795C795C9
S11311C0C80FD91FCE010E94290E21E030E002C0D1
S11311D0220F331F0A95E2F7BE01822B0E942D0EC7
S11311E0DF91CF911F910F9108950F931F93CF9388
S11311F0DF938038910570F56034710558F5EB0183
S113120077230CF42796D595C795D595C795D5958D
S1131210C7959E01220F331F220F331F220F331F46
S11312208B01021B130B6096D695DC2FCC27D79528
S1131230C795C80FD91FCE010E94290E21E030E0C6
S113124002C0220F331F0A95E2F72095BE018223C4
S11312500E942D0EDF91CF911F910F910895FF925F
S11312600F931F93CF93DF93C0E0D8E00F2EF0EBE2
S1131270FF2EF02D60E070E08F2D0E942D0E60E0B7
S113128070E080E00E942D0E60E070E080E10E943A
S11312902D0E8E0100581F4FCE010E94290E682F7B
S11312A070E07E5F0E942D0E2196C017D107A1F732
S11312B0F394E80101151C40E9F6DF91CF911F91E9
S11312C00F91FF900895CF93DF93C0E0D8E0BE0163
S11312D080E00E942D0E2196C1158CE0D807B9F745
S11312E0DF91CF910895CF93DF93CDB7DEB76B979E
S11312F00FB6F894DEBF0FBECDBF0E9463090E94F3
S11313002F091D8A1C8A1B8A1A8A2FE12C831FE14C
S11313106894BB24B7F88FE18D8793E09A83198290
S11313201E8A1F8A188EAFE3A98FD12E13E0E12CF9
S11313301F82188619861A861E861F86188ABFE39E
S1131340B98BA12C912C0F2EF8EF8F2EF02D0F2E90
S1131350F1E47F2EF02D612C512C0F2EFCE74F2E43
S1131360F02D22E42E8380E00E94FD0D0E940F02E6
S1131370869586958D83AC818A2F90E0BD818B0FF5
S1131380911D8D0D911D63E070E00E9420106B0192
S11313907C876B870E94FB018B8390E08B199109FA
S11313A09C0122F422273327281B390B24303105D2
S11313B024F02B81269526952D872E853F854889F7
S11313C05989662D752D842D9E810E94550E6A8F34
S11313D07B8F082FF92E2F81388549855A856A2DF0
S11313E0792D882D972D0E94550E362E272E898310
S11313F09A8320E030E0A9016A8D7B8D802F9F2D98
S11314000E94C10E181634F08C899D8901969D8B1B
S11314108C8B02C220E030E04EEF52E46A8D7B8D6B
S1131420802F9F2D0E94AE0F882334F0AA89BB8998
S11314301196BB8BAA8BF0C120E030E040E850E469
S11314406A8D7B8D802F9F2D0E94C10E81114CC00F
S1131450BD85CB2ED12CB6016C5F7F4F072E000CBF
S1131460880B990B0E94FE0E9B01AC01632D722D1B
S113147089819A810E94C10E18160CF485C0B601A8
S113148064507109072E000C880B990B0E94FE0E04
S11314909B01AC01632D722D89819A810E94AE0F4C
S11314A088230CF471C0B601DD0C880B990B0E94E3
S11314B0FE0E9B01AC01632D722D89819A810E94DD
S11314C0540E20E030E040E05EE30E94B30F6F83EF
S11314D0788789879A872E892E878F898F87988D19
S11314E0988BA98DA98B50C020E030E046EF52E4E0
S11314F06A8D7B8D802F9F2D0E94C10E811144C067
S1131500DD24B6016C5F7F4F072E000C880B990B0E
S11315100E94FE0E9B01AC01632D722D89819A817C
S11315200E94C10E181684F1B60164507109072E89
S1131530000C880B990B0E94FE0E9B01AC01632DDD
S1131540722D89819A810E94AE0F8823ECF0B60136
S1131550DD0C880B990B0E94FE0E9B01AC01632DE0
S1131560722D89819A810E94540E20E030E040E07F
S11315705EE30E94B30F6F83788789879A871E86FC
S11315801F86188ABFEBB98B20E030E0A901632DD8
S1131590722D89819A810E94C10E181664F420E08C
S11315A030E04CE752E4632D722D89819A810E94C8
S11315B0AE0F88234CF08F819885A985BA85B058E1
S11315C08F839887A987BA876A2D792D882D972DBF
S11315D00E94C60E4B015C01662D752D842D9E81E3
S11315E00E94C60E2B013C01B401C2010E94F50801
S11315F0640199201CF497E0C90ED11CD594C794BA
S1131600D594C794D594C794C60180559F4FBC0107
S11316100E942D0EC2018F709927BC010E942D0ECD
S1131620C2019595879595958795959587959595F7
S113163087954096BC010E942D0EA0E1CA0ED11CD4
S1131640D694DC2CCC24D794C794C601840D951D64
S11316500E94290E9927BC017E5F0E942D0E632DE6
S1131660722D89819A810E94C60E4B015C016A8D9C
S11316707B8D802F9F2D0E94C60E2B013C01B4014F
S1131680C2010E94BC08640199201CF4B7E0CB0E8F
S1131690D11CD594C794D594C794D594C794C60146
S11316A080559F4FBC010E942D0EC2018F70992757
S11316B0BC010E942D0EC20195958795959587953D
S11316C095958795959587954096BC010E942D0E1A
S11316D020E1C20ED11CD694DC2CCC24D794C79420
S11316E0C601840D951D0E94290E9927BC017E5FB9
S11316F00E942D0E0F2EF3E0CF2EF8E0DF2EF02DFA
S1131700B60180E090E00E942D0EB60167587F4F2D
S113171080E090E00E942D0EA0E8CA0ED11CB3E038
S1131720CB16BCE0DB0661F70F2EFCEF8F2E99245D
S11317309A94F02D9D85A92EB12CCB84DC84DD24D4
S1131740B4016A0D7B1D812F9E2D0E94BC08B60139
S1131750680D791D8CE790E00E94BC08AFEF8A1AEF
S11317609A0AB5E08B16910459F70F2EF3E0CF2EA9
S1131770F8E0DF2EF02D0F2EF0EBAF2EB12CF02D74
S1131780B501C5010E942D0E612F7E2D812F9E2D46
S11317900E942D0E60E170E080E190E00E942D0E29
S11317A0C6010E94290E9927BC017E5F0E942D0E5E
S11317B06CE070E08CE090E00E942D0E67E170E038
S11317C087E190E00E942D0EC60187589F4F0E942A
S11317D0290E9927BC017E5F0E942D0E9FEFA91A46
S11317E0B90AA0E8CA0ED11CB3E0CB16BCE0DB06F4
S11317F039F60E94030EC297E0F39A8DAB8DDC801C
S1131800BD81BC83BB80A32C922C89807A80692EF5
S11318105A2E402EFE82A7CD0E94630962EB71E02E
S11318208A89805D0E94780866EC71E08C89805D0D
S11318300E9478080E942F092FEF8FEF9DE121501D
S113184080409040E1F700C000000E9463090E94BC
S11318502F09DC80AD81AC83BB806ACDCF93DF934D
S1131860CDB7DEB762970FB6F894DEBF0FBECDBF1B
S11318701C861B861A8619861D861E861F862FE3E4
S1131880288B812C912C54011D821E821F823FE3E0
S11318903887512C412C0F2EF8EF3F2EF02D0F2EB0
S11318A0F1E42F2EF02D10E000E00F2EFCE77F2E48
S11318B0F02D0F2EF2E46F2EF02D59824A823B82D6
S11318C0302E072D2C82212E162D80E00E94F00D43
S11318D00E940F02682F70E080E090E00E94FE0EEC
S11318E020E030E040E85EE30E94B30F2B013C01AE
S11318F00E94FB01682F70E080E090E00E94FE0EE1
S113190020E030E040E85EE30E94B30F6B017C010D
S11319102D813E814F815885622D732D802F912F0B
S11319200E94550E262E372E082F192FA50194013B
S113193069817A818B819C810E94550E69837A83A7
S11319408B839C8320E030E0A901622D732D802FCE
S1131950912F0E94C10E181634F08B859C85019638
S11319609C878B87F9C020E030E04EEF52E4622D73
S1131970732D802F912F0E94AE0F88233CF0298570
S11319803A852F5F3F4F3A872987E6C020E030E051
S113199040E850E4622D732D802F912F0E94C10ED8
S11319A081113FC020E030E040E850E4C701B601B7
S11319B00E94550E9B01AC0169817A818B819C81C7
S11319C00E94C10E18160CF471C020E030E040E80B
S11319D050E4C701B6010E94540E9B01AC01698119
S11319E07A818B819C810E94AE0F88230CF45EC0A7
S11319F0A701960169817A818B819C810E94540E92
S1131A0020E030E040E05EE30E94B30F4B015C0154
S1131A103D853D838E858E839F859F832889288776
S1131A2045C020E030E046EF52E4622D732D802F54
S1131A30912F0E94C10E811139C020E030E040E8AE
S1131A4050E4C301B2010E94550E9B01AC016981AF
S1131A507A818B819C810E94C10E18163CF120E092
S1131A6030E040E850E4C301B2010E94540E9B01EF
S1131A70AC0169817A818B819C810E94AE0F88239D
S1131A80ACF0A301920169817A818B819C810E94CF
S1131A90540E20E030E040E05EE30E94B30F4B01BF
S1131AA05C011D821E821F823FEB388720E030E0FC
S1131AB0A90169817A818B819C810E94C10E1816CB
S1131AC064F420E030E04CE752E469817A818B8150
S1131AD09C810E94AE0F882324F0B7FAB094B7F823
S1131AE0B0940E9463098CEF9FEF9A8B898BC70196
S1131AF0B6010E94C60E29893A89620F731F83E0DA
S1131B0090E00E94BC08C301B2010E94C60E29895C
S1131B103A89620F731F8CE790E00E94BC088989A0
S1131B209A8901969A8B898B059709F769817A813D
S1131B308B819C810E94C60E6B017C01622D732DEA
S1131B40802F912F0E94C60EDC01CB01B6010E94AA
S1131B50BC080E942F09B9CE0E94630962EB71E0B0
S1131B608985805D0E94780866EC71E08B85805DD4
S1131B700E9478080E942F099FEF2FEF3DE19150BA
S1131B8020403040E1F700C000000E9463090E9439
S1131B902F0977CE87B3806B87BBBE988DB18065E4
S1131BA08DB96D986B986A986898699808958FB9FB
S1131BB0779BFECF08958FEF8FB9779BFECF8FB1C0
S1131BC0089585E083BF08958BE48BBD1ABC89B763
S1131BD0806489BF8CE08EBD089587E087BD089539
S1131BE09FB7F89482BF9FBF789408959FB7F894E5
S1131BF082B79FBF789490E008959FB7F89483BD0F
S1131C009FBF789408959FB7F89483B59FBF789445
S1131C1090E008955D9BFECF8CB908955F9BFECF45
S1131C208CB1089590BD89B988E18AB98EE880BDE8
S1131C306EE07EE08AE09EE00E944810089585B739
S1131C40806885BF80B7806280BF80B7877E80BF91
S1131C500895905FFC0180810895FB01F05F80830B
S1131C6008950E9488038FE190E00E94120E0E9462
S1131C701F0E8CEB91E09F938F930E9493100E9410
S1131C80E10D0E94ED0D80E00E9423020E94730783
S1131C900F900F902FEF8FE797E0215080409040F6
S1131CA0E1F700C00000F6CF5058BB27AA270E94D6
S1131CB06C0E0C94740F0E94660F38F00E946D0F26
S1131CC020F039F49F3F19F426F40C94630F0EF4BA
S1131CD0E095E7FB0C945D0FE92F0E94850F58F304
S1131CE0BA17620773078407950720F079F4A6F5FD
S1131CF00C94A70F0EF4E0950B2EBA2FA02D0B0118
S1131D00B90190010C01CA01A0011124FF27591B3C
S1131D1099F0593F50F4503E68F11A16F040A22F42
S1131D20232F342F4427585FF3CF469537952795B3
S1131D30A795F0405395C9F77EF41F16BA0B620BB2
S1131D40730B840BBAF09150A1F0FF0FBB1F661FF9
S1131D50771F881FC2F70EC0BA0F621F731F841F3C
S1131D6048F4879577956795B795F7959E3F08F062
S1131D70B0CF9395880F08F09927EE0F9795879524
S1131D8008950E94390F08F481E008950E94CD0E51
S1131D906894B1110C94A80F08950E948D0F88F0D7
S1131DA09F5798F0B92F9927B751B0F0E1F0660F1B
S1131DB0771F881F991F1AF0BA95C9F714C0B1305C
S1131DC091F00E94A70FB1E008950C94A70F672F1C
S1131DD0782F8827B85F39F0B93FCCF3869577958B
S1131DE06795B395D9F73EF4909580957095619574
S1131DF07F4F8F4F9F4F0895E89409C097FB3EF49F
S1131E0090958095709561957F4F8F4F9F4F992343
S1131E10A9F0F92F96E9BB279395F69587957795C1
S1131E206795B795F111F8CFFAF4BB0F11F460FF81
S1131E301BC06F5F7F4F8F4F9F4F16C0882311F0D9
S1131E4096E911C0772321F09EE8872F762F05C0ED
S1131E50662371F096E8862F70E060E02AF09A9588
S1131E60660F771F881FDAF7880F9695879597F97D
S1131E700895990F0008550FAA0BE0E8FEEF161617
S1131E801706E807F907C0F012161306E407F5076A
S1131E9098F0621B730B840B950B39F40A2661F0DE
S1131EA0232B242B252B21F408950A2609F4A14081
S1131EB0A6958FEF811D811D089597F99F6780E88E
S1131EC070E060E008959FEF80EC089500240A9488
S1131ED01616170618060906089500240A94121601
S1131EE01306140605060895092E0394000C11F434
S1131EF0882352F0BB0F40F4BF2B11F460FF04C0E1
S1131F006F5F7F4F8F4F9F4F089557FD9058440F39
S1131F10551F59F05F3F71F04795880F97FB991F44
S1131F2061F09F3F79F08795089512161306140601
S1131F30551FF2CF4695F1DF08C01616170618068E
S1131F40991FF1CF86957105610508940895E89469
S1131F50BB2766277727CB0197F908950E94390F8D
S1131F6008F48FEF08950E94C60F0C94740F0E941A
S1131F70660F38F00E946D0F20F0952311F00C9439
S1131F805D0F0C94630F11240C94A80F0E94850F0D
S1131F9070F3959FC1F3950F50E0551F629FF001B8
S1131FA0729FBB27F00DB11D639FAA27F00DB11DD1
S1131FB0AA1F649F6627B00DA11D661F829F22275A
S1131FC0B00DA11D621F739FB00DA11D621F839FE1
S1131FD0A00D611D221F749F3327A00D611D231FB7
S1131FE0849F600D211D822F762F6A2F11249F5705
S1131FF050409AF0F1F088234AF0EE0FFF1FBB1F08
S1132000661F771F881F91505040A9F79E3F5105C6
S113201080F00C945D0F0C94A80F5F3FE4F3983E9E
S1132020D4F3869577956795B795F795E7959F5F70
S1132030C1F7FE2B880F911D9695879597F9089502
S113204097FB072E16F4009407D077FD09D00E9461
S1132050341007FC05D03EF4909581959F4F089568
S1132060709561957F4F0895AA1BBB1B51E107C072
S1132070AA1FBB1FA617B70710F0A61BB70B881F14
S1132080991F5A95A9F780959095BC01CD010895A3
S11320900F931F93CF93DF93009731F4611571056C
S11320A019F480E090E03AC08B01EC016EE070E03E
S11320B081E090E00E94DC12FC01892B91F380E81E
S11320C083830115110571F01387028781E88383E7
S11320D08091DA019091DB01892B21F4F093DB01EB
S11320E0E093DA012097C9F0D187C08783818260A9
S11320F083838091DC019091DD01892B71F4F0934D
S1132100DD01E093DC018091DE019091DF01892BF8
S113211021F4F093DF01E093DE01CF01DF91CF9151
S11321201F910F910895A0E0B0E0E9E9F0E10C946B
S1132130E014AE014B5F5F4FFA0161917191AF0101
S11321408091DC019091DD010E94FB10E2E00C948F
S1132150FC140F931F93CF93DF93E091DC01F09174
S1132160DD01238121FF1BC08C01D0E0C0E0F80118
S113217081918F016091DC017091DD01DB01189682
S1132180ED91FC911997882331F00995892B79F306
S1132190DFEFCFEFECCF8AE00995892B19F08FEFB1
S11321A09FEF02C08D2F9C2FDF91CF911F910F9134
S11321B00895AEE0B0E0EFEDF0E10C94DE140D898B
S11321C01E8986E08C831A8309838FEF9FE79E83A1
S11321D08D83AE01475E5F4F6F89788DCE01019686
S11321E00E94FB10EF81F885E00FF11F10822E96FC
S11321F0E4E00C94FA14ABE0B0E0E1E0F1E10C941B
S1132200D0146C017B018A01FC0117821682838140
S113221081FFCCC1CE0101963C01F6019381F70107
S113222093FD859193FF81917F01882309F4BAC1BD
S1132230853239F493FD859193FF81917F01853235
S113224029F4B60190E00E943614E7CF912C212C9A
S1132250312CFFE1F315D8F08B3279F038F4803269
S113226079F08332A1F4232D20611DC08D3261F0F9
S1132270803369F4232D216016C0832D8260382EAB
S1132280E32DE4603E2E2AC0F32DF8601DC037FC18
S11322902DC020ED280F2A3040F08E32B9F436FCE0
S11322A081C1232D2064322E19C036FE06C08AE077
S11322B0989E200D1124922E11C0EAE02E9E200D2E
S11322C01124222EF32DF0623F2E08C08C3621F407
S11322D0832D8068382E02C0883641F4F70193FDBF
S11322E0859193FF81917F018111B3CF982F9F7DB9
S11322F09554933028F40C5F1F4F9FE399830DC0CE
S1132300833631F0833771F0833509F059C021C029
S1132310F801808189830E5F1F4F88248394912C58
S1132320530113C02801F2E04F0E511CF801A080A4
S1132330B18036FE03C0692D70E002C06FEF7FEFFD
S1132340C5010E942B144C018201F32DFF773F2E0F
S113235016C0280122E0420E511CF801A080B18071
S113236036FE03C0692D70E002C06FEF7FEFC50138
S11323700E9419144C01F32DF0683F2E820133FCA6
S11323801BC0822D90E088169906B0F4B60180E255
S113239090E00E9436142A94F4CFF50137FC85911D
S11323A037FE81915F01B60190E00E94361421103E
S11323B02A9421E0821A91088114910471F7E8C0EB
S11323C0843611F0893641F5F80137FE07C0608183
S11323D07181828193810C5F1F4F08C0608171817C
S11323E0072E000C880B990B0E5F1F4FF32DFF7601
S11323F03F2E97FF09C090958095709561957F4F0A
S11324008F4F9F4FF0683F2E2AE030E0A3010E94D7
S11324107214882E861845C0853731F4232D2F7EFB
S1132420B22E2AE030E025C0932D997FB92E8F3645
S1132430C1F018F4883579F0B5C0803719F08837C1
S113244021F0B0C0E92FE061BE2EB4FE0DC0FB2D1B
S1132450F460BF2E09C034FE0AC0292F2660B22EB4
S113246006C028E030E005C020E130E002C020E1F1
S113247032E0F801B7FE07C06081718182819381E7
S11324800C5F1F4F06C06081718180E090E00E5F99
S11324901F4FA3010E947214882E8618FB2DFF770C
S11324A03F2E36FE0DC0232D2E7FA22E891458F404
S11324B034FE0BC032FC09C0832D8E7EA82E05C0CD
S11324C0B82CA32C03C0B82C01C0B92CA4FE0FC097
S11324D0FE01E80DF11D8081803321F49A2D997E4F
S11324E0A92E09C0A2FE06C0B394B39404C08A2DD9
S11324F0867809F0B394A3FC11C0A0FE06C0B21400
S113250088F4280C922C9B180EC0B21460F4B60107
S113251080E290E00E943614B394F7CFB21418F41A
S11325202B1802C0982C212CA4FE10C0B60180E305
S113253090E00E943614A2FE17C0A1FC03C088E7F5
S113254090E002C088E590E0B6010CC08A2D867840
S113255059F0A1FE02C08BE201C080E2A7FC8DE22B
S1132560B60190E00E943614891438F4B60180E371
S113257090E00E9436149A94F7CF8A94F301E80D00
S1132580F11D8081B60190E00E9436148110F5CFD0
S1132590222009F442CEB60180E290E00E94361473
S11325A02A94F6CFF6018681978102C08FEF9FEFC0
S11325B02B96E2E10C94EC140F931F93CF93DF93CB
S11325C0869F8001879F100D969F100D1124C801CE
S11325D00E94F812EC01009729F0A80160E070E075
S11325E00E942414CE01DF91CF911F910F91089581
S11325F00F931F93CF93DF938230910510F482E001
S113260090E0E091E201F091E30120E030E0A0E00D
S1132610B0E0309719F1408151810281138148174C
S11326205907C8F08417950769F4109731F012968A
S11326300C93129713961C9327C00093E2011093F6
S1132640E30122C02115310519F04217530718F48C
S11326509A01BD01EF01DF01F801DBCF211531053E
S1132660F9F0281B390B2430310580F48A819B81D1
S11326706115710521F0FB019383828304C090935B
S1132680E3018093E201FE01329644C0FE01E20FB1
S1132690F31F8193919322503109398328833AC0DF
S11326A02091E0013091E101232B41F420910201BA
S11326B0309103013093E1012093E0012091000166
S11326C0309101012115310541F42DB73EB74091F8
S11326D0040150910501241B350BE091E001F091B8
S11326E0E101E217F307A0F42E1B3F0B281739076B
S11326F078F0AC014E5F5F4F2417350748F04E0F5A
S11327005F1F5093E1014093E0018193919302C0D4
S1132710E0E0F0E0CF01DF91CF911F910F91089598
S1132720CF93DF93009709F481C0FC0132971382A1
S11327301282A091E201B091E301109781F420810B
S11327403181820F931F2091E0013091E10128171C
S1132750390751F5F093E101E093E00167C0ED0121
S113276020E030E0CE17DF0740F44A815B819E0110
S113277041155105F1F0EA01F5CFD383C2834081BD
S11327805181840F951FC817D90759F488819981FD
S1132790840F951F0296918380838A819B81938302
S11327A082832115310529F4F093E301E093E201DA
S11327B03DC0E901FB83EA8349915991C40FD51FB8
S11327C0EC17FD0761F480819181840F951F0296B7
S11327D0E90199838883828193819B838A83E0E0E2
S11327E0F0E012968D919C911397009719F0FD01DA
S11327F0DC01F7CF8D919C9111979D012E5F3F4F86
S1132800820F931F2091E0013091E10128173907CD
S113281069F4309729F41092E3011092E20102C0A6
S113282013821282B093E101A093E001DF91CF9172
S11328300895FC010590615070400110D8F780950F
S113284090958E0F9F1F0895DC0101C06D93415038
S11328505040E0F70895FC01615070400190011070
S1132860D8F7809590958E0F9F1F08950F931F930F
S1132870CF93DF93FB01238121FD03C08FEF9FEFF3
S11328802CC022FF16C0468157812481358142170E
S1132890530744F4A081B1819D012F5F3F4F3183E1
S11328A020838C93268137812F5F3F4F3783268384
S11328B014C08B01EC01FB010084F185E02D099526
S11328C0892BE1F6D80116968D919C911797019664
S11328D017969C938E931697CE01DF91CF911F91FB
S11328E00F910895FA01AA27283051F1203181F17E
S11328F0E8946F936E7F6E5F7F4F8F4F9F4FAF4F04
S1132900B1E03ED0B4E03CD0670F781F891F9A1F16
S1132910A11D680F791F8A1F911DA11D6A0F711DCA
S1132920811D911DA11D20D009F468943F912AE0D6
S1132930269F11243019305D3193DEF6CF010895BE
S1132940462F4770405D4193B3E00FD0C9F7F6CFEF
S1132950462F4F70405D4A3318F0495D31FD4052B7
S1132960419302D0A9F7EACFB4E0A695979587954D
S113297077956795BA95C9F700976105710508952C
S11329809B01AC010A2E06945795479537952795D8
S1132990BA95C9F7620F731F841F951FA01D089570
S11329A02F923F924F925F926F927F928F929F925B
S11329B0AF92BF92CF92DF92EF92FF920F931F9349
S11329C0CF93DF93CDB7DEB7CA1BDB0B0FB6F894FA
S11329D0DEBF0FBECDBF09942A88398848885F843A
S11329E06E847D848C849B84AA84B984C884DF80AB
S11329F0EE80FD800C811B81AA81B981CE0FD11D8F
S1132A000FB6F894DEBF0FBECDBFED010895F89464
S1052A10FFCFF2
S1132A120000E401200043414E20636F6E74726F24
S1132A226C6C657220696E206C6F6F706261636B8F
S1132A32206D6F64650A0D00256400506C6179692C
S1132A426E672067616D6500484947482053434FCC
S1132A525245530047414D45204F5645520D0047BC
S1132A62414D45204F564552002D006375727265E3
S1132A726E744D656E75203D20253135730D004D04
S1132A8261696E206D656E75005374617274207392
S1132A9270696C6C004D6F726F66756E6B736A6FE2
S1132AA26E657200486967682053636F72657300CC
S1132AB2717569636B20706F6E6700736C6F77203A
S1132AC2706F6E6700496E76657273000A537461A3
S1112AD27274696E672E2E2E2E200A0D0000DF
S9030000FC
