:100000000C9438000C9400010C9414010C945500CD
:100010000C9455000C9455000C9455000C9455000C
:100020000C9455000C9455000C9455000C945500FC
:100030000C9455000C9455000C9455000C945500EC
:100040000C9498010C9455000C9455000C94550098
:100050000C9455000C9455000C9455000C945500CC
:100060000C9455000C9455000C9455000C945500BC
:1000700011241FBECFEFD4E0DEBFCDBF11E0A0E062
:10008000B1E0E6E7FFE002C005900D92A83FB1079E
:10009000D9F722E0A8EFB1E001C01D92A430B20769
:1000A000E1F70E940E030C94B9070C940000CF9363
:1000B000C82F0E94C80165E88BE20E94DB014C2F2B
:1000C00060EE8FE00E94ED0140E660E680E60E946F
:1000D000ED018FE00E94CD0186FF08C086E091E02F
:1000E0009F938F930E9497030F900F90CF91089545
:1000F0007F928F929F92AF92BF92CF92DF92EF92B8
:10010000FF920F931F93CF93DF93CDB7DEB72A975C
:100110000FB6F894DEBF0FBECDBF5C0181E60E9432
:10012000CD01782E1F928F9388E291E09F938F9359
:100130000E94970385E60E94CD01082FC82ED12C7E
:1001400026E6C20ED11C0F900F900F900F9036E64E
:10015000C316D104CCF07E0183E0E80EF11C16E654
:10016000CE0180959095FC01EC59FF4F4F01812FF6
:100170000E94CD01F70181937F011F5FC4018E0FA3
:100180009F1FC816D9069CF779820A838AE0FE0170
:100190003196D50101900D928A95E1F7C5012A9615
:1001A0000FB6F894DEBF0FBECDBFDF91CF911F9188
:1001B0000F91FF90EF90DF90CF90BF90AF909F9006
:1001C0008F907F900895B898B9980895F89485B75E
:1001D000826085BF85B78E7F85BF85B7886085BF04
:1001E00085B78B7F85BF8BB780648BBF8BB78068EB
:1001F0008BBF80EA81BF89B7816089BF78940895F9
:100200001F920F920FB60F9211248F939F9381E04C
:1002100090E09093F9018093F8019F918F910F9056
:100220000FBE0F901F9018951F920F920FB60F924E
:1002300011242F933F934F935F936F937F938F93EB
:100240009F93AF93BF93EF93FF93CF93DF93CDB77C
:10025000DEB72A97DEBFCDBF8CE20E94CD0182FFC0
:100260000DC083E491E09F938F930E94970340E039
:1002700064E08CE20E94ED010F900F908CE20E94EE
:10028000CD0180FF2FC0CE0101960E9478008FE53E
:1002900091E09F938F930E94970389811F928F9380
:1002A0008AE791E09F938F930E9497038A811F9220
:1002B0008F9385E891E09F938F930E9497038B81A2
:1002C0001F928F9383E991E09F938F930E949703EE
:1002D00040E061E08CE20E94ED010FB6F894DEBFD1
:1002E0000FBECDBF8CE20E94CD01882344F484EA86
:1002F00091E09F938F930E9497030F900F902A96FF
:100300000FB6F894DEBF0FBECDBFDF91CF91FF9146
:10031000EF91BF91AF919F918F917F916F915F917D
:100320004F913F912F910F900FBE0F901F901895F6
:100330001F920F920FB60F9211242F933F934F935A
:100340005F936F937F938F939F93AF93BF93EF933D
:10035000FF9383EB91E09F938F930E9497030F90FD
:100360000F90FF91EF91BF91AF919F918F917F91EE
:100370006F915F914F913F912F910F900FBE0F9012
:100380001F901895C49880EC0E94D302C49A0895D7
:100390000E94C6020E94C2010895CF93C82FC4983C
:1003A00083E00E94D3028C2F0E94D3020E94D702C6
:1003B000C49ACF910895CF93DF93D82FC62FC498B6
:1003C00082E00E94D3028D2F0E94D3028C2F0E94C4
:1003D000D302C49ADF91CF9108951F93CF93DF93F7
:1003E000182FD62FC42FC49885E00E94D302812FE6
:1003F0000E94D3028D2F0E94D3028C2F0E94D30221
:10040000C49ADF91CF911F9108956EEA70E08EEA51
:100410000E940A0361EA70E081EA0E940A036AED21
:1004200070E08AED0E940A0362E170E082E10E94BE
:100430000A0368EC70E088EC0E940A0368EA70E046
:1004400088EA0E940A036FE370E08FE30E940A03C8
:1004500065ED70E085ED0E940A0360E870E080E8D9
:100460000E940A0361E870E081E80E940A0360E5E7
:1004700070E080E50E940A0369ED70E089ED0E945A
:100480000A0361E270E081E20E940A0360E270E028
:1004900080E20E940A0362E070E082E00E940A03A8
:1004A0006BED70E08BED0E940A0360E370E080E387
:1004B0000E940A036DEA70E08DEA0E940A0360E080
:1004C00070E080E00E940A0364EA70E084EA0E941F
:1004D0000A0366EA70E086EA0E940A0363ED70E0B0
:1004E00083ED0E940A0360E070E080E00E940A034E
:1004F0006FEA70E08FEA0E940A030895EF92FF927C
:100500000F931F93CF93DF93C0E0D8E00F2EF0EB53
:10051000EF2EF12CF02DB7018E2D0E940A0360E022
:1005200070E080E00E940A0360E170E080E10E94D8
:100530000A038E0100581F4FCE010E940603682F48
:1005400070E07E5F0E940A032196C017D107A1F7D1
:100550008FEFE81AF80AE80101151C40E1F6DF9177
:10056000CF911F910F91FF90EF900895CF93DF935C
:10057000C0E0D8E0BE0180E00E940A032196C115C8
:100580008CE0D807B9F7DF91CF91089587B3806BDE
:1005900087BBBE988DB180658DB96D986B986A9850
:1005A0006898699808958FB9779BFECF08958FEF6B
:1005B0008FB9779BFECF8FB1089585E283BF0895F1
:1005C0009FB7F89482B79FBF789490E008955D9BA1
:1005D000FECF8CB908955F9BFECF8CB1089590BD7E
:1005E00089B988E18AB98EE880BD6BEE72E087EE4A
:1005F00092E00E944C03089585B7806885BF80B75C
:10060000806280BF80B7877E80BF0895905FFC01C5
:1006100080810895FB01F05F808308950E94E600C9
:100620008FE190E00E94EF028DEB91E09F938F931A
:100630000E9497030E94FC020E94E3008BEC91E071
:100640009F938F930E9497030E94DD0280E00E9497
:1006500057000E9405020E94B6020E947E020F907F
:100660000F900F900F90CCEDD1E0F8940E94E00233
:100670009F938F93DF93CF930E9497039FEF2FEF6A
:100680008BE3915020408040E1F700C000000F90C4
:100690000F900F900F90E9CF0F931F93CF93DF939D
:1006A000009731F46115710519F480E090E03AC0CB
:1006B0008B01EC016EE070E081E090E00E948E051D
:1006C000FC01892B91F380E883830115110571F0FA
:1006D0001387028781E883838091FA019091FB015F
:1006E000892B21F4F093FB01E093FA012097C9F0E4
:1006F000D187C0878381826083838091FC01909140
:10070000FD01892B71F4F093FD01E093FC018091D0
:10071000FE019091FF01892B21F4F093FF01E093FA
:10072000FE01CF01DF91CF911F910F910895A0E0BD
:10073000B0E0EDE9F3E00C949207AE014B5F5F4F40
:10074000FA0161917191AF018091FC019091FD01DD
:100750000E94AD03E2E00C94AE07ABE0B0E0E3EB47
:10076000F3E00C9482076C017B018A01FC01178283
:100770001682838181FFCCC1CE0101963C01F60136
:100780009381F70193FD859193FF81917F018823E8
:1007900009F4BAC1853239F493FD859193FF8191B3
:1007A0007F01853229F4B60190E00E94E806E7CF88
:1007B000912C212C312CFFE1F315D8F08B3279F0FC
:1007C00038F4803279F08332A1F4232D20611DC0EA
:1007D0008D3261F0803369F4232D216016C0832DA2
:1007E0008260382EE32DE4603E2E2AC0F32DF8609F
:1007F0001DC037FC2DC020ED280F2A3040F08E326E
:10080000B9F436FC81C1232D2064322E19C036FE86
:1008100006C08AE0989E200D1124922E11C0EAE0B5
:100820002E9E200D1124222EF32DF0623F2E08C0A3
:100830008C3621F4832D8068382E02C0883641F42E
:10084000F70193FD859193FF81917F018111B3CFD2
:10085000982F9F7D9554933028F40C5F1F4F9FE392
:1008600099830DC0833631F0833771F0833509F0F9
:1008700059C021C0F801808189830E5F1F4F8824F1
:100880008394912C530113C02801F2E04F0E511CA8
:10089000F801A080B18036FE03C0692D70E002C06F
:1008A0006FEF7FEFC5010E94DD064C018201F32D41
:1008B000FF773F2E16C0280122E0420E511CF8019E
:1008C000A080B18036FE03C0692D70E002C06FEFDA
:1008D0007FEFC5010E94CB064C01F32DF0683F2E3F
:1008E000820133FC1BC0822D90E088169906B0F47B
:1008F000B60180E290E00E94E8062A94F4CFF50168
:1009000037FC859137FE81915F01B60190E00E942E
:10091000E80621102A9421E0821A9108811491049A
:1009200071F7E8C0843611F0893641F5F80137FED9
:1009300007C060817181828193810C5F1F4F08C065
:1009400060817181072E000C880B990B0E5F1F4F81
:10095000F32DFF763F2E97FF09C0909580957095F7
:1009600061957F4F8F4F9F4FF0683F2E2AE030E018
:10097000A3010E942407882E861845C0853731F4CC
:10098000232D2F7EB22E2AE030E025C0932D997FB3
:10099000B92E8F36C1F018F4883579F0B5C080379C
:1009A00019F0883721F0B0C0E92FE061BE2EB4FE07
:1009B0000DC0FB2DF460BF2E09C034FE0AC0292FE4
:1009C0002660B22E06C028E030E005C020E130E00D
:1009D00002C020E132E0F801B7FE07C060817181FA
:1009E000828193810C5F1F4F06C06081718180E01E
:1009F00090E00E5F1F4FA3010E942407882E8618E7
:100A0000FB2DFF773F2E36FE0DC0232D2E7FA22E0D
:100A1000891458F434FE0BC032FC09C0832D8E7E3D
:100A2000A82E05C0B82CA32C03C0B82C01C0B92C2B
:100A3000A4FE0FC0FE01E80DF11D8081803321F47A
:100A40009A2D997EA92E09C0A2FE06C0B394B39434
:100A500004C08A2D867809F0B394A3FC11C0A0FECF
:100A600006C0B21488F4280C922C9B180EC0B21445
:100A700060F4B60180E290E00E94E806B394F7CFFC
:100A8000B21418F42B1802C0982C212CA4FE10C00C
:100A9000B60180E390E00E94E806A2FE17C0A1FC28
:100AA00003C088E790E002C088E590E0B6010CC082
:100AB0008A2D867859F0A1FE02C08BE201C080E247
:100AC000A7FC8DE2B60190E00E94E806891438F494
:100AD000B60180E390E00E94E8069A94F7CF8A94EA
:100AE000F301E80DF11D8081B60190E00E94E80657
:100AF0008110F5CF222009F442CEB60180E290E0C9
:100B00000E94E8062A94F6CFF6018681978102C0FA
:100B10008FEF9FEF2B96E2E10C949E070F931F93AC
:100B2000CF93DF93869F8001879F100D969F100DB6
:100B30001124C8010E94AA05EC01009729F0A80120
:100B400060E070E00E94D606CE01DF91CF911F9148
:100B50000F9108950F931F93CF93DF9382309105E8
:100B600010F482E090E0E0910202F091030220E0B4
:100B700030E0A0E0B0E0309719F14081518102816E
:100B8000138148175907C8F08417950769F410971F
:100B900031F012960C93129713961C9327C0009372
:100BA00002021093030222C02115310519F04217E9
:100BB000530718F49A01BD01EF01DF01F801DBCF03
:100BC00021153105F9F0281B390B2430310580F44B
:100BD0008A819B816115710521F0FB0193838283DA
:100BE00004C09093030280930202FE01329644C037
:100BF000FE01E20FF31F8193919322503109398353
:100C000028833AC02091000230910102232B41F445
:100C100020910201309103013093010220930002E0
:100C200020910001309101012115310541F42DB7CA
:100C30003EB74091040150910501241B350BE09112
:100C40000002F0910102E217F307A0F42E1B3F0B04
:100C50002817390778F0AC014E5F5F4F241735072E
:100C600048F04E0F5F1F50930102409300028193A2
:100C7000919302C0E0E0F0E0CF01DF91CF911F91AE
:100C80000F910895CF93DF93009709F481C0FC0181
:100C9000329713821282A0910202B0910302109740
:100CA00081F420813181820F931F209100023091C5
:100CB00001022817390751F5F0930102E093000271
:100CC00067C0ED0120E030E0CE17DF0740F44A8135
:100CD0005B819E0141155105F1F0EA01F5CFD38307
:100CE000C28340815181840F951FC817D90759F4D9
:100CF00088819981840F951F0296918380838A81D0
:100D00009B81938382832115310529F4F09303029B
:100D1000E09302023DC0E901FB83EA8349915991C6
:100D2000C40FD51FEC17FD0761F480819181840FFA
:100D3000951F0296E90199838883828193819B8321
:100D40008A83E0E0F0E012968D919C9113970097D2
:100D500019F0FD01DC01F7CF8D919C9111979D0158
:100D60002E5F3F4F820F931F2091000230910102AE
:100D70002817390769F4309729F41092030210926A
:100D8000020202C013821282B0930102A0930002F9
:100D9000DF91CF910895FC010590615070400110E2
:100DA000D8F7809590958E0F9F1F0895DC0101C0A4
:100DB0006D9341505040E0F70895FC016150704040
:100DC00001900110D8F7809590958E0F9F1F089580
:100DD0000F931F93CF93DF93FB01238121FD03C06A
:100DE0008FEF9FEF2CC022FF16C0468157812481D0
:100DF00035814217530744F4A081B1819D012F5FD3
:100E00003F4F318320838C93268137812F5F3F4F63
:100E10003783268314C08B01EC01FB010084F1852C
:100E2000E02D0995892BE1F6D80116968D919C91BC
:100E30001797019617969C938E931697CE01DF9184
:100E4000CF911F910F910895FA01AA27283051F1EF
:100E5000203181F1E8946F936E7F6E5F7F4F8F4FEB
:100E60009F4FAF4FB1E03ED0B4E03CD0670F781F4A
:100E7000891F9A1FA11D680F791F8A1F911DA11D2F
:100E80006A0F711D811D911DA11D20D009F4689468
:100E90003F912AE0269F11243019305D3193DEF610
:100EA000CF010895462F4770405D4193B3E00FD0C6
:100EB000C9F7F6CF462F4F70405D4A3318F0495DB1
:100EC00031FD4052419302D0A9F7EACFB4E0A69594
:100ED0009795879577956795BA95C9F700976105B6
:100EE000710508959B01AC010A2E0694579547950C
:100EF00037952795BA95C9F7620F731F841F951F01
:100F0000A01D08952F923F924F925F926F927F9211
:100F10008F929F92AF92BF92CF92DF92EF92FF9209
:100F20000F931F93CF93DF93CDB7DEB7CA1BDB0BB5
:100F30000FB6F894DEBF0FBECDBF09942A8839885A
:100F400048885F846E847D848C849B84AA84B98461
:100F5000C884DF80EE80FD800C811B81AA81B9816D
:100F6000CE0FD11D0FB6F894DEBF0FBECDBFED0181
:060F70000895F894FFCF84
:100F760000000402200043414E20636F6E74726FBE
:100F86006C6C657220696E206C6F6F706261636B4A
:100F9600206D6F64650A0D00726563696576656428
:100FA600207570706572204944203D202523582005
:100FB6000A0D004D6573736167652073656E647411
:100FC6002073756363657366756C6C790A0D002D05
:100FD6002D2D204D657373616765207265636965A4
:100FE600766564202D2D2D0A0D0049443A202523CF
:100FF60058200A0D004C656E6774683A20256420F7
:101006000A0D00446174615B305D203D2025235844
:10101600200A0D0043414E20425553204552524F5F
:10102600522100636F6D706172650A0D000A0D6DC5
:1010360061696E4865796F6F0A0D000A53746172B3
:1010460074696E672E2E2E2E200A0D00637572723D
:10105600656E742074696D65722076616C756520A5
:081066003D202564200A0D0065
:00000001FF
