:1000000071C000008EC000008CC0000029C100003B
:1000100088C0000086C0000084C0000082C00000CC
:1000200080C000007EC000007CC000007AC00000DC
:1000300078C0000076C0000074C0000072C00000EC
:1000400070C000006EC000006CC000006AC00000FC
:1000500068C0000066C0000064C0000062C000000C
:1000600060C000005EC000005CC000005AC000001C
:1000700058C0000056C0000054C0000052C000002C
:1000800050C000004EC000004CC000004AC000003C
:1000900048C0000046C0000044C0000042C000004C
:1000A00040C000003EC000003CC000003AC000005C
:1000B00038C0000036C0000034C0000032C000006C
:1000C00030C000002EC000002CC000002AC000007C
:1000D00028C0000026C0000024C0000022C000008C
:1000E00020C0000011241FBECFEFD1E2DEBFCDBF84
:1000F00000E00CBF12E0A0E0B2E0E8E0FDE000E0CC
:100100000BBF02C007900D92A63BB107D9F722E0C2
:10011000A6EBB2E001C01D92A03CB207E1F794D17A
:10012000F1C56ECFCF93C82F1ED18BE21FD11F9286
:100130008F9386E092E09F938F93E2D165E88BE204
:1001400020D18BE213D11F928F9384E192E09F9391
:100150008F93D6D14C2F60EE8FE022D140E660E63F
:1001600080E61ED18FE002D12DB73EB7285F3F4F0A
:100170000FB6F8943EBF0FBE2DBF86FF07C081E2C9
:1001800092E09F938F93BCD10F900F90CF910895E1
:100190007F928F929F92AF92BF92CF92DF92EF9217
:1001A000FF920F931F93CF93DF93CDB7DEB72A97BC
:1001B0000FB6F894DEBF0FBECDBF5C0181E6D6D08E
:1001C000782E85E6D3D0082FC82ED12C26E6C20E75
:1001D000D11C36E6C316D104C4F07E0183E0E80EDC
:1001E000F11C16E6CE0180959095FC01EC59FF4F6D
:1001F0004F01812FBBD0F70181937F011F5FC401A5
:100200008E0F9F1FC816D906A4F779820A838AE049
:10021000FE013196D50101900D928A95E1F7C50155
:100220002A960FB6F894DEBF0FBECDBFDF91CF91F7
:100230001F910F91FF90EF90DF90CF90BF90AF9004
:100240009F908F907F900895F894E9E6F0E0808188
:100250008F7E8083808180628083EA9A789408957B
:100260001F920F920FB60F9211240BB60F921F938D
:100270002F933F934F935F936F937F938F939F93AE
:10028000AF93BF93EF93FF93CF93DF93CDB7DEB7D9
:100290002A97DEBFCDBF8CE269D082FF0BC083E41A
:1002A00092E09F938F932CD140E064E08CE278D071
:1002B0000F900F908CE25AD080FF29C0CE0101969A
:1002C00067DF19811F921F938FE592E09F938F93B1
:1002D00017D10F900F900F900F90113069F48B8110
:1002E0001F928F938FE792E09F938F9309D10F9086
:1002F0000F900F900F9007C08EE892E09F938F931E
:10030000FFD00F900F9040E061E08CE249D08CE28A
:100310002DD088233CF486EA92E09F938F93F0D00F
:100320000F900F902A960FB6F894DEBF0FBECDBF88
:10033000DF91CF91FF91EF91BF91AF919F918F91FD
:100340007F916F915F914F913F912F911F910F90EE
:100350000BBE0F900FBE0F901F9018952F9880EC3A
:1003600047D02F9A089530D0F9CF0895CF93C82F52
:100370002F9883E03DD08C2F3BD03FD02F9ACF9148
:100380000895CF93DF93D82FC62F2F9882E030D0D7
:100390008D2F2ED08C2F2CD02F9ADF91CF910895B6
:1003A0001F93CF93DF93182FD62FC42F2F9885E05C
:1003B0001FD0812F1DD08D2F1BD08C2F19D02F9A9D
:1003C000DF91CF911F91089584B1876884B92398F4
:1003D0008CB580658CBD8CB58F7D8CBD8CB5877FD1
:1003E0008CBD8CB58B7F8CBD8CB581608CBD089528
:1003F0008EBD0DB407FEFDCF08958FEF8EBD0DB4F9
:1004000007FEFDCF8EB50895E0ECF0E0908195FFFA
:10041000FDCF8093C6000895E0ECF0E08081882352
:10042000ECF78091C60008959093C5008093C400B6
:1004300088E18093C1008EE08093C2006CE072E09E
:1004400084E092E013C00895FFDE87E690E0ECDFE1
:1004500080E068DE2FEF33E284EF90E021503040FF
:1004600080409040D9F700C00000F4CF0F931F9355
:10047000CF93DF93009731F46115710519F480E093
:1004800090E039C08B01EC016EE070E081E090E01B
:1004900047D2FC01892B99F380E88383011511056C
:1004A00071F01387028781E883838091B60290916F
:1004B000B702892B21F4F093B702E093B60220979C
:1004C000C9F0D187C0878381826083838091B8021D
:1004D0009091B902892B71F4F093B902E093B802BC
:1004E0008091BA029091BB02892B21F4F093BB0258
:1004F000E093BA02CF01DF91CF911F910F91089540
:10050000CF93DF93CDB7DEB7AE014A5F5F4FFA01FD
:1005100061917191AF018091B8029091B90203D0BD
:10052000DF91CF9108952F923F924F925F926F92F9
:100530007F928F929F92AF92BF92CF92DF92EF9273
:10054000FF920F931F93CF93DF93CDB7DEB72B9717
:100550000FB6F894DEBF0FBECDBF6C017B018A01E0
:10056000FC0117821682838181FFBFC1CE010196F3
:100570003C01F6019381F70193FD859193FF8191F1
:100580007F01882309F4ADC1853239F493FD85914B
:1005900093FF81917F01853221F4B60190E018D359
:1005A000E8CF912C212C312CFFE1F315D8F08B32C0
:1005B00079F038F4803279F08332A1F4232D206170
:1005C0001DC08D3261F0803369F4232D216016C087
:1005D000832D8260382EE32DE4603E2E2AC0F32D59
:1005E000F8601DC037FC2DC020ED280F2A3040F0E8
:1005F0008E32B9F436FC75C1232D2064322E19C019
:1006000036FE06C08AE0989E200D1124922E11C05D
:10061000EAE02E9E200D1124222EF32DF0623F2EB3
:1006200008C08C3621F4832D8068382E02C08836AD
:1006300041F4F70193FD859193FF81917F01811131
:10064000B3CF982F9F7D9554933028F40C5F1F4FA4
:100650009FE399830DC0833631F0833771F0833582
:1006600009F055C020C0F801808189830E5F1F4FBB
:1006700088248394912C530112C02801F2E04F0E7C
:10068000511CF801A080B18036FE03C0692D70E0D6
:1006900002C06FEF7FEFC50190D24C018201F32DB4
:1006A000FF773F2E15C0280122E0420E511CF801B1
:1006B000A080B18036FE03C0692D70E002C06FEFEC
:1006C0007FEFC50168D24C01F32DF0683F2E820107
:1006D00033FC19C0822D90E088169906A0F4B6016B
:1006E00080E290E075D22A94F5CFF50137FC859130
:1006F00037FE81915F01B60190E06AD221102A9401
:1007000021E0821A91088114910479F7E1C08436BE
:1007100011F0893639F5F80137FE07C06081718123
:10072000828193810C5F1F4F08C060817181072E09
:10073000000C880B990B0E5F1F4FF32DFF763F2E99
:1007400097FF09C090958095709561957F4F8F4F69
:100750009F4FF0683F2E2AE030E0A30175D2882E2B
:10076000861844C0853731F4232D2F7EB22E2AE01F
:1007700030E025C0932D997FB92E8F36C1F018F443
:10078000883579F0AEC0803719F0883721F0A9C0DC
:10079000E92FE061BE2EB4FE0DC0FB2DF460BF2E2C
:1007A00009C034FE0AC0292F2660B22E06C028E0F8
:1007B00030E005C020E130E002C020E132E0F80185
:1007C000B7FE07C060817181828193810C5F1F4FEA
:1007D00006C06081718180E090E00E5F1F4FA30131
:1007E00033D2882E8618FB2DFF773F2E36FE0DC0A4
:1007F000232D2E7FA22E891458F434FE0BC032FC18
:1008000009C0832D8E7EA82E05C0B82CA32C03C052
:10081000B82C01C0B92CA4FE0FC0FE01E80DF11DDB
:100820008081803321F49A2D997EA92E09C0A2FEE1
:1008300006C0B394B39404C08A2D867809F0B394AB
:10084000A3FC10C0A0FE06C0B21480F4280C922CA9
:100850009B180DC0B21458F4B60180E290E0B8D1F4
:10086000B394F8CFB21418F42B1802C0982C212C92
:10087000A4FE0FC0B60180E390E0AAD1A2FE16C08C
:10088000A1FC03C088E790E002C088E590E0B601D3
:100890000CC08A2D867851F0A1FE02C08BE201C007
:1008A00080E2A7FC8DE2B60190E092D1891430F489
:1008B000B60180E390E08CD19A94F8CF8A94F3014A
:1008C000E80DF11D8081B60190E082D18110F6CF54
:1008D000222009F44ECEB60180E290E079D12A942C
:1008E000F7CFF6018681978102C08FEF9FEF2B969D
:1008F0000FB6F894DEBF0FBECDBFDF91CF911F9131
:100900000F91FF90EF90DF90CF90BF90AF909F90AE
:100910008F907F906F905F904F903F902F900895B1
:100920000F931F93CF93DF93869F8001879F100DB6
:10093000969F100D1124C8010DD0EC01009721F0F5
:10094000A80160E070E032D1CE01DF91CF911F911C
:100950000F9108950F931F93CF93DF9382309105EA
:1009600010F482E090E0E091BE02F091BF0220E03E
:1009700030E0A0E0B0E0309719F140815181028170
:10098000138148175907C8F08417950769F4109721
:1009900031F012960C93129713961C9327C0009374
:1009A000BE021093BF0222C02115310519F0421773
:1009B000530718F49A01BD01EF01DF01F801DBCF05
:1009C00021153105F9F0281B390B2430310580F44D
:1009D0008A819B816115710521F0FB0193838283DC
:1009E00004C09093BF028093BE02FE01329644C0C1
:1009F000FE01E20FF31F8193919322503109398355
:100A000028833AC02091BC023091BD02232B41F4CF
:100A100020910202309103023093BD022093BC0268
:100A200020910002309101022115310541F42DB7CA
:100A30003EB74091040250910502241B350BE09112
:100A4000BC02F091BD02E217F307A0F42E1B3F0B8E
:100A50002817390778F0AC014E5F5F4F2417350730
:100A600048F04E0F5F1F5093BD024093BC0281932C
:100A7000919302C0E0E0F0E0CF01DF91CF911F91B0
:100A80000F910895CF93DF93009709F481C0FC0183
:100A9000329713821282A091BE02B091BF021097CA
:100AA00081F420813181820F931F2091BC0230910B
:100AB000BD022817390751F5F093BD02E093BC023F
:100AC00067C0ED0120E030E0CE17DF0740F44A8137
:100AD0005B819E0141155105F1F0EA01F5CFD38309
:100AE000C28340815181840F951FC817D90759F4DB
:100AF00088819981840F951F0296918380838A81D2
:100B00009B81938382832115310529F4F093BF02E1
:100B1000E093BE023DC0E901FB83EA83499159910C
:100B2000C40FD51FEC17FD0761F480819181840FFC
:100B3000951F0296E90199838883828193819B8323
:100B40008A83E0E0F0E012968D919C9113970097D4
:100B500019F0FD01DC01F7CF8D919C9111979D015A
:100B60002E5F3F4F820F931F2091BC023091BD0238
:100B70002817390769F4309729F41092BF021092B0
:100B8000BE0202C013821282B093BD02A093BC02C7
:100B9000DF91CF910895FC010590615070400110E4
:100BA000D8F7809590958E0F9F1F0895DC0101C0A6
:100BB0006D9341505040E0F70895FC016150704042
:100BC00001900110D8F7809590958E0F9F1F089582
:100BD0000F931F93CF93DF93FB01238121FD03C06C
:100BE0008FEF9FEF2CC022FF16C0468157812481D2
:100BF00035814217530744F4A081B1819D012F5FD5
:100C00003F4F318320838C93268137812F5F3F4F65
:100C10003783268314C08B01EC01FB010084F1852E
:100C2000E02D1995892BE1F6D80116968D919C91AE
:100C30001797019617969C938E931697CE01DF9186
:100C4000CF911F910F910895FA01AA27283051F1F1
:100C5000203181F1E8946F936E7F6E5F7F4F8F4FED
:100C60009F4FAF4FB1E03ED0B4E03CD0670F781F4C
:100C7000891F9A1FA11D680F791F8A1F911DA11D31
:100C80006A0F711D811D911DA11D20D009F468946A
:100C90003F912AE0269F11243019305D3193DEF612
:100CA000CF010895462F4770405D4193B3E00FD0C8
:100CB000C9F7F6CF462F4F70405D4A3318F0495DB3
:100CC00031FD4052419302D0A9F7EACFB4E0A69596
:100CD0009795879577956795BA95C9F700976105B8
:100CE000710508959B01AC010A2E0694579547950E
:100CF00037952795BA95C9F7620F731F841F951F03
:080D0000A01D0895F894FFCF37
:100D08000000C00220004265666F72653A20252304
:100D1800580A0D0041667465723A202523580A0D59
:100D28000043414E20636F6E74726F6C6C65722065
:100D3800696E206C6F6F706261636B206D6F6465A4
:100D48000A0D004D6573736167652073656E647481
:100D58002073756363657366756C6C790A0D004D55
:100D6800657373616765207265636965766564207C
:100D7800776974682049443A202523580A0D004AA7
:100D88004F59535449434B3A2025640A0D004341B7
:100D98004E4E4F54204944454E54494659204D45DE
:100DA80053534147450043414E2042555320455235
:060DB800524F5221000021
:00000001FF
