S01200006E6F6465325F6C6162362E7372656376
S113000071C000008EC000008CC0000065C10000FB
S113001088C0000086C0000084C0000082C00000C8
S113002080C000007EC000007CC000007AC00000D8
S113003078C0000076C0000074C0000072C00000E8
S113004070C000006EC000006CC000006AC00000F8
S113005068C0000066C0000064C0000062C0000008
S113006060C000005EC000005CC000005AC0000018
S113007058C0000056C0000054C0000052C0000028
S113008050C000004EC000004CC000004AC0000038
S113009048C0000046C0000044C0000042C0000048
S11300A040C000003EC000003CC000003AC0000058
S11300B038C0000036C0000034C0000032C0000068
S11300C030C000002EC000002CC000002AC0000078
S11300D028C0000026C0000024C0000022C0000088
S11300E020C0000011241FBECFEFD1E2DEBFCDBF80
S11300F000E00CBF12E0A0E0B2E0E2ECFDE000E0C2
S11301000BBF02C007900D92AA3EB107D9F722E0B7
S1130110AAEEB2E001C01D92A43FB207E1F7EDD10F
S11301204EC66ECF61D18BE262D11F928F9386E06F
S113013092E09F938F9356D245E865E88BE286D18F
S11301408BE255D11F928F9384E192E09F938F931A
S113015049D240E460EE8FE079D140E660E680E683
S113016075D18FE044D12DB73EB7285F3F4F0FB60E
S1130170F8943EBF0FBE2DBF86FF07C081E292E018
S11301809F938F932FD20F900F900895FF920F9308
S11301901F93CF93DF938C01FC01608181E332D103
S11301A0F801618185E32ED1F801818190E0C69642
S11301B0C697A4F0E80122960F2EF6E3FF2EF02D49
S11301C069918F2D1FD1F3944F2D50E0F8012181B7
S11301D030E02A5C3F4F2417350794F780E090E025
S11301E020D1DF91CF911F910F91FF9008957F92BD
S11301F08F929F92AF92BF92CF92DF92EF92FF9233
S11302000F931F93CF93DF93CDB7DEB72A970FB623
S1130210F894DEBF0FBECDBF5C0181E6E8D0982E16
S11302201F928F9323E432E03F932F93DBD185E633
S1130230DED0882EE82EF12C86E6E80EF11C0F9015
S11302400F900F900F9096E6E916F104D4F08E010A
S11302500D5F1F4F0F2EF6E67F2EF02D9E01209589
S11302603095F901EC59FF4F6F01872DC0D0F8018B
S113027081938F01739496012E0F3F1FE216F306AC
S1130280A4F799828A828AE0FE013196D501019011
S11302900D928A95E1F7C5012A960FB6F894DEBF50
S11302A00FBECDBFDF91CF911F910F91FF90EF90C3
S11302B0DF90CF90BF90AF909F908F907F900895E4
S11302C0F894E9E6F0E080818F7E8083808180620B
S11302D08083EA9A789408951F920F920FB60F9232
S11302E011240BB60F922F933F934F935F936F9309
S11302F07F938F939F93AF93BF93EF93FF93CF938A
S1130300DF93CDB7DEB72A97DEBFCDBF8EE592E08F
S11303109F938F9367D18CE26AD00F900F9082FFE6
S11303200BC08AE692E09F938F935CD140E064E037
S11303308CE28CD00F900F908CE259D080FF29C0B2
S1130340CE01019654DF86E892E09F938F934AD1C1
S113035089811F928F9381EA92E09F938F9342D178
S11303608A811F928F938CEA92E09F938F933AD164
S11303708B811F928F938AEB92E09F938F9332D15C
S113038040E061E08CE262D00FB6F894DEBF0FBEAD
S1130390CDBF8CE22CD088233CF48BEC92E09F936D
S11303A08F9320D10F900F902A960FB6F894DEBF4A
S11303B00FBECDBFDF91CF91FF91EF91BF91AF9170
S11303C09F918F917F916F915F914F913F912F9169
S11303D00F900BBE0F900FBE0F901F90189528988A
S11303E080EC5FD0289A089545D0F9CF0895CF9333
S11303F0C82F289883E055D08C2F53D057D0289AF3
S1130400CF910895CF93DF93D82FC62F289882E0F9
S113041048D08D2F46D08C2F44D0289ADF91CF918D
S113042008952898009719F481E83BD00DC08130D5
S1130430910519F482E835D007C0029719F484E8CD
S113044030D002C087E82DD0289A08951F93CF9307
S1130450DF93182FD62FC42F289885E022D0812F20
S113046020D08D2F1ED08C2F1CD0289ADF91CF91B5
S11304701F91089584B1876084B923988CB58065F1
S11304808CBD8CB58F7D8CBD8CB5877F8CBD8CB5B8
S11304908B7F8CBD8CB58E7F8CBD8CB58D7F8CBDD8
S11304A008958EBD0DB407FEFDCF08958FEF8EBD68
S11304B00DB407FEFDCF8EB50895E0ECF0E0908119
S11304C095FFFDCF8093C6000895E0ECF0E08081B5
S11304D08823ECF78091C60008959093C50080931B
S11304E0C40088E18093C1008EE08093C20065E679
S11304F072E08DE592E02CC00895CF93DF93CDB7E1
S1130500DEB72A970FB6F894DEBF0FBECDBF87E6DD
S113051090E0E3DFD5DE06DE85EA898383E08A8323
S11305208CE08B838FE08C830AED12E01F930F9392
S113053059D0CE0101962ADE2FEF83ED90E32150AE
S113054080409040E1F700C000000F900F90EECF84
S11305500F931F93CF93DF93EC018B01009731F43A
S11305606115710519F480E090E037C06EE070E029
S113057081E090E036D2FC010097A9F380E8838300
S11305800115110571F01387028781E88383809137
S1130590EA029091EB02892B21F4F093EB02E093B1
S11305A0EA022097C9F0D187C08783818260838360
S11305B08091EC029091ED02892B71F4F093ED029D
S11305C0E093EC028091EE029091EF02892B21F4EA
S11305D0F093EF02E093EE02CF01DF91CF911F91F0
S11305E00F910895CF93DF93CDB7DEB7FE01369612
S11305F061917191AF018091EC029091ED0203D071
S1130600DF91CF9108952F923F924F925F926F9214
S11306107F928F929F92AF92BF92CF92DF92EF928E
S1130620FF920F931F93CF93DF93CDB7DEB72C9731
S11306300FB6F894DEBF0FBECDBF7C016B018A01FB
S1130640FC0117821682838181FFB0C1CE0101961D
S11306504C01F7019381F60193FD859193FF8191FC
S11306606F01882309F49EC1853239F493FD859185
S113067093FF81916F01853221F4B70190E00FD38C
S1130680E8CF512C312C20E02032A0F48B3269F0D9
S113069030F4803259F0833269F420612CC08D32F9
S11306A039F0803339F4216026C02260246023C0ED
S11306B0286021C027FD27C030ED380F3A3078F488
S11306C026FF06C0FAE05F9E300D1124532E13C09E
S11306D08AE0389E300D1124332E20620CC08E32F5
S11306E021F426FD5FC1206406C08C3611F4206815
S11306F002C0883641F4F60193FD859193FF819100
S11307006F018111C1CF982F9F7D9554933028F4A8
S11307100C5F1F4FFFE3F9830DC0833631F083373D
S113072071F0833509F057C021C0F80180818983B5
S11307300E5F1F4F44244394512C540114C03801BC
S1130740F2E06F0E711CF801A080B18026FF03C097
S1130750652D70E002C06FEF7FEFC5012C8794D246
S11307602C0183012C852F77222E16C03801F2E04C
S11307706F0E711CF801A080B18026FF03C0652DA7
S113078070E002C06FEF7FEFC5012C876BD22C01A4
S11307902C852068222E830123FC19C0832D90E030
S11307A048165906A0F4B70180E290E078D23A9452
S11307B0F5CFF50127FC859127FE81915F01B701F3
S11307C090E06DD231103A94F1E04F1A510841147F
S11307D0510479F7DEC0843611F0893631F5F80119
S11307E027FF07C060817181828193810C5F1F4F55
S11307F008C060817181882777FD8095982F0E5FEE
S11308001F4F2F76B22E97FF09C090958095709553
S113081061957F4F8F4F9F4F2068B22E2AE030E0C2
S1130820A4016FD2A82EA81843C0853729F42F7EBF
S1130830B22E2AE030E025C0F22FF97FBF2E8F368A
S1130840C1F018F4883579F0ADC0803719F08837D5
S113085021F0A8C02F2F2061B22EB4FE0DC08B2D25
S11308608460B82E09C024FF0AC09F2F9660B92E59
S113087006C028E030E005C020E130E002C020E1FD
S113088032E0F801B7FE07C06081718182819381F3
S11308900C5F1F4F06C06081718180E090E00E5FA5
S11308A01F4FA4012ED2A82EA818FB2DFF77BF2E10
S11308B0B6FE0BC02B2D2E7FA51450F4B4FE0AC037
S11308C0B2FC08C02B2D2E7E05C07A2C2B2D03C024
S11308D07A2C01C0752C24FF0DC0FE01EA0DF11D18
S11308E08081803311F4297E09C022FF06C07394ED
S11308F0739404C0822F867809F0739423FD12C088
S113090020FF06C05A2C731418F4530C5718732C78
S1130910731460F4B70180E290E02C87C0D1739423
S11309202C85F6CF731410F4371801C0312C24FF32
S113093011C0B70180E390E02C87B1D12C8522FF50
S113094016C021FF03C088E590E002C088E790E06C
S1130950B7010CC0822F867851F021FD02C080E2DD
S113096001C08BE227FD8DE2B70190E098D1A51478
S113097030F4B70180E390E092D15A94F8CFAA946E
S1130980F401EA0DF11D8081B70190E088D1A11036
S1130990F6CF332009F45DCEB70180E290E07FD139
S11309A03A94F7CFF7018681978102C08FEF9FEFCA
S11309B02C960FB6F894DEBF0FBECDBFDF91CF915A
S11309C01F910F91FF90EF90DF90CF90BF90AF9069
S11309D09F908F907F906F905F904F903F902F905B
S11309E008950F931F93CF93DF93869F8001879F72
S11309F0100D969F100D1124C8010DD0EC01009725
S1130A0021F0A80160E070E038D1CE01DF91CF91F0
S1130A101F910F910895CF93DF938230910510F4C5
S1130A2082E090E0E091F202F091F30220E030E005
S1130A30A0E0B0E0309739F140815181481759075F
S1130A40B8F04817590771F482819381109729F0FF
S1130A5013969C938E9312972CC09093F3028093D9
S1130A60F20227C02115310531F04217530718F05F
S1130A70A901DB0101C0EF019A01BD01DF01028080
S1130A80F381E02DD7CF21153105F9F0281B390B5F
S1130A902430310580F48A819B816115710521F030
S1130AA0FB019383828304C09093F3028093F20248
S1130AB0FE01329644C0FE01E20FF31F819391932D
S1130AC022503109398328833AC02091F0023091B1
S1130AD0F102232B41F4209102023091030230935E
S1130AE0F1022093F00220910002309101022115BD
S1130AF0310541F42DB73EB74091040250910502EF
S1130B00241B350BE091F002F091F102E217F30798
S1130B10A0F42E1B3F0B2817390778F0AC014E5F69
S1130B205F4F2417350748F04E0F5F1F5093F102B3
S1130B304093F0028193919302C0E0E0F0E0CF0192
S1130B40DF91CF910895CF93DF93009709F487C085
S1130B50FC01329713821282C091F202D091F30207
S1130B60209781F420813181280F391F8091F00270
S1130B709091F1028217930779F5F093F102E093D3
S1130B80F0026DC0DE0120E030E0AE17BF0750F484
S1130B9012964D915C9113979D014115510509F1F0
S1130BA0DA01F3CFB383A28340815181840F951F6F
S1130BB08A179B0771F48D919C911197840F951F4F
S1130BC002969183808312968D919C9113979383BF
S1130BD082832115310529F4F093F302E093F202A4
S1130BE03EC0D9011396FC93EE9312974D915D91FB
S1130BF0A40FB51FEA17FB0779F480819181840F54
S1130C00951F0296D90111969C938E9382819381AC
S1130C1013969C938E931297E0E0F0E08A819B8177
S1130C20009719F0FE01EC01F9CFCE01029628815C
S1130C303981820F931F2091F0023091F10228171D
S1130C40390769F4309729F41092F3021092F202F2
S1130C5002C013821282D093F102C093F002DF919A
S1130C60CF910895FC010590615070400110D8F7B0
S1130C70809590958E0F9F1F0895DC0101C06D93A0
S1130C8041505040E0F70895FC01615070400190DC
S1130C900110D8F7809590958E0F9F1F08950F939C
S1130CA01F93CF93DF93182F092FEB018B8181FDC5
S1130CB003C08FEF9FEF20C082FF10C04E815F8181
S1130CC02C813D81421753077CF4E881F9819F010F
S1130CD02F5F3F4F39832883108306C0E885F98549
S1130CE0812F1995892B29F72E813F812F5F3F4F43
S1130CF03F832E83812F902FDF91CF911F910F91EE
S1130D000895FA01AA27283051F1203181F1E8949D
S1130D106F936E7F6E5F7F4F8F4F9F4FAF4FB1E0EA
S1130D203ED0B4E03CD0670F781F891F9A1FA11DE5
S1130D30680F791F8A1F911DA11D6A0F711D811DE6
S1130D40911DA11D20D009F468943F912AE0269FAB
S1130D5011243019305D3193DEF6CF010895462F0A
S1130D604770405D4193B3E00FD0C9F7F6CF462FEB
S1130D704F70405D4A3318F0495D31FD4052419354
S1130D8002D0A9F7EACFB4E0A69597958795779511
S1130D906795BA95C9F700976105710508959B0198
S1130DA0AC010A2E06945795479537952795BA9521
S1130DB0C9F7620F731F841F951FA01D0895F8942F
S1050DC0FFCF5F
S1130DC20000F40220004265666F72653A20252312
S1130DD2580A0D0041667465723A202523580A0D9B
S1130DE20043414E20636F6E74726F6C6C657220A7
S1130DF2696E206C6F6F706261636B206D6F6465E6
S1130E020A0D0072656369657665642075707065A4
S1130E1272204944203D20252358200A0D00696E82
S1130E22746572727570740A0D004D65737361672F
S1130E32652073656E647420737563636573667588
S1130E426C6C790A0D002D2D2D204D65737361672D
S1130E5265207265636965766564202D2D2D0A0D02
S1130E620049443A20252358200A0D004C656E6738
S1130E7274683A202564200A0D00446174615B3071
S1130E825D203D20252358200A0D0043414E204277
S1130E925553204552524F5221006E657720697492
S10D0EA265726174696F6E0A0D0039
S9030000FC
