S01200006E6F6465325F6C6162382E7372656374
S1130000C2C00000E0C00000DEC00000A3C10000C8
S1130010DAC00000D8C00000D6C00000D4C0000080
S1130020D2C00000D0C00000CEC00000CCC0000090
S1130030CAC00000C8C00000C6C00000C4C00000A0
S1130040C2C00000C0C00000BEC00000BCC00000B0
S1130050BAC00000B8C00000B6C00000B4C00000C0
S1130060B2C00000B0C00000AEC00000ACC00000D0
S1130070AAC00000A8C00000A6C00000A4C00000E0
S1130080A2C00000A0C000009EC000009CC00000F0
S11300909AC0000098C0000096C000003BC4000055
S11300A092C0000090C000008EC000008CC0000010
S11300B08AC0000088C0000086C0000084C0000020
S11300C082C0000080C000007EC000007CC0000030
S11300D07AC0000078C0000076C0000074C0000040
S11300E072C00000A804FA04FA04FA04FA04FA0438
S11300F0FA04FA04A804FA04FA04FA04FA04FA045E
S1130100FA04FA04AA04FA04FA04FA04FA04FA044B
S1130110FA04FA04FA04FA04FA04FA04FA04FA04EB
S1130120FA04FA04AA04FA04FA04FA04FA04FA042B
S1130130FA04FA04FA04FA04FA04FA04FA04FA04CB
S1130140FA04FA04F604FA04FA04FA04FA04FA04BF
S1130150FA04FA04D304FA04FA04FA04FA04FA04D2
S1130160FA04FA04FA04FA04FA04FA04FA04FA049B
S1130170FA04FA04C704FA04FA04FA04FA04FA04BE
S1130180FA04FA04E50411241FBECFEFD1E2DEBF66
S1130190CDBF00E00CBF12E0A0E0B2E0E2E5F6E182
S11301A000E00BBF02C007900D92A43DB107D9F740
S11301B022E0A4EDB2E001C01D92AA3EB207E1F72D
S11301C04FD40C94270B1CCFCF93C82F7ED165E05E
S11301D08BE289D145E865E08BE2A9D18BE278D145
S11301E01F928F9387E092E09F938F932ED64C2F8C
S11301F060EE8FE09CD140E660E680E698D18FE027
S113020067D10F900F900F900F9086FF07C083E285
S113021092E09F938F9319D60F900F90CF910895EA
S1130220EF92FF920F931F93CF937C01F894FC01FC
S1130230608181E358D1F701618185E354D1F701ED
S1130240818190E0C696C6979CF087010E5F1F4F90
S1130250C6E3F80161918F018C2F45D1CF5F2C2F1C
S113026030E0F701818190E0C696821793078CF7FE
S113027080E090E047D17894CF911F910F91FF9047
S1130280EF9008957F928F929F92AF92BF92CF92F8
S1130290DF92EF92FF920F931F93CF93DF93CDB72B
S11302A0DEB72A970FB6F894DEBF0FBECDBF5C0150
S11302B081E60ED1782E85E60BD1082FC82ED12CDD
S11302C026E6C20ED11C36E6C316D104C4F07E0164
S11302D083E0E80EF11C16E6CE0180959095FC01B2
S11302E0EC59FF4F4F01812FF3D0F70181937F0128
S11302F01F5FC4018E0F9F1FC816D906A4F7798209
S11303000A838AE0FE013196D50101900D928A9507
S1130310E1F7C5012A960FB6F894DEBF0FBECDBF34
S1130320DF91CF911F910F91FF90EF90DF90CF90CD
S1130330BF90AF909F908F907F900895F894E9E6D6
S1130340F0E080818F7E8083808180628083EA9A5E
S1130350789408951F920F920FB60F9211240BB642
S11303600F922F933F934F935F936F937F938F934A
S11303709F93AF93BF93EF93FF93CF93DF93CDB747
S1130380DEB72A97DEBFCDBF8CE2A2D082FF04C0C5
S113039040E064E08CE2CBD08CE29AD080FF54C081
S11303A0CE0101966FDF99818B81913061F41F92A8
S11303B08F9385E492E09F938F9347D50F900F908E
S11303C00F900F903DC09230A9F4833350F090E029
S11303D0C297982F990F990F60E070E0890FF8D0B9
S11303E02FC0982F990F990F890F61E070E08095C5
S11303F0EFD026C09330A1F48093DF028C8190E08B
S113040009D28D81823031F4EBE0F1E080818F7B81
S1130410808316C0EBE0F1E080818064808310C0AB
S1130420943039F481E090E09093D7028093D6021F
S113043007C084E592E09F938F9307D50F900F90A8
S113044040E061E08CE273D08CE242D088235CF41B
S11304508CE692E09F938F93F8D440E060E88CE2BE
S113046066D00F900F902A960FB6F894DEBF0FBE99
S1130470CDBFDF91CF91FF91EF91BF91AF919F914C
S11304808F917F916F915F914F913F912F910F9039
S11304900BBE0F900FBE0F901F9018958098ECE73D
S11304A0F0E08081806E8083EAE7F0E080818562FD
S11304B080838081806C8083089580917900089581
S11304C02F9880ECDFD12F9A0895C8D1F9CF0895E1
S11304D0CF93C82F2F9883E0D5D18C2FD3D1D7D1E8
S11304E02F9ACF910895CF93DF93D82FC62F2F98AB
S11304F082E0C8D18D2FC6D18C2FC4D12F9ADF9121
S1130500CF9108952F98009719F481E8BBD10DC0BD
S11305108130910519F482E8B5D107C0029719F426
S113052084E8B0D102C087E8ADD12F9A08951F9313
S1130530CF93DF93182FD62FC42F2F9885E0A2D105
S1130540812FA0D18D2F9ED18C2F9CD12F9ADF91FA
S1130550CF911F910895B2D1E1E0F1E080818A67E3
S11305608083E7E0F1E080818083E2E0F1E0808154
S113057080618083808180628083808180648083C5
S113058080818F7B808381E28A95F1F700008081EE
S113059080648083EAE0F1E0808180648083EBE022
S11305A0F1E08081806480830895CF93DF9300D04D
S11305B0CDB7DEB790E599831A828B8363E0CE01D1
S11305C0019686D10F900F900F90DF91CF910895EF
S11305D0CF93DF93EB01E2E0F1E0908190619083AF
S11305E0E4DF219731F4E2E0F1E0808182608083EE
S11305F005C0E2E0F1E080818D7F8083DF91CF91BF
S11306000895CF93DF93E2E0F1E080818F7D8083D2
S11306108081877F808381E28A95F1F70000A6E0DC
S1130620B1E08C9191E29A95F1F70000C3ECD9E026
S11306302197F1F700C00000908198609083DDE07D
S1130640DA95F1F700002C9190E0922BDF91CF9195
S11306500895CF93DF93CDB7DEB72A970FB6F894FA
S1130660DEBF0FBECDBFCDDF6C018FEF898381E08C
S11306708A83E2E0F1E080818F7B808321E22A9506
S1130680F1F7000080818064808381E090E09093A2
S1130690D5028093D40260E070E080E099DF81E7C6
S11306A092E09F938F93D1D30F900F908091D602B5
S11306B09091D702892BD1F38AE892E09F938F938C
S11306C0C4D38091DF020F900F9000E010E0AA24C1
S11306D0AA94B12C0F2EF3E29F2EF02D80E0E1D0EE
S11306E090DF7C018091DF029501281B3109929EE5
S11306F0B001939E700D11246E197F09CB01815BAB
S11307009F4F8F39910548F0C8018B5E984C8B320E
S11307109E4628F4060F171F02C000E010E0072EC3
S1130720000C880B990B50D228EB3EE145E05DE3C9
S1130730D7D22B013C01B801012E000C880B990B78
S113074043D224E237E94FE75BE3CAD29B01AC0111
S1130750C301B201A2D12B013C01B7016C197D097F
S1130760072E000C880B990B2FD228EB3EE145E8AD
S11307705DE3B6D29B01AC01C301B2018DD1F1D1CD
S1130780DC01CB01AC019C01992324F422273327FB
S1130790281B390B4217530769F44F3F510531F0B9
S11307A02CF060E070E08FEF13DF10C060E070E0C9
S11307B00FDF0CC041305F4F2CF461E070E08FEF2D
S11307C007DF04C061E070E0822F02DF76DE84364A
S11307D050F481E090E09093D5028093D402CE014E
S11307E001961EDDFFCF63D0C297E8F3670176CF91
S11307F0269AE0E8F0E0808182628083E1E8F0E01C
S113080080818A61808380E49CE99093870080934F
S11308108600089584369105C8F4BC0180E090E018
S1130820D1D126EA3BE944E45CE35AD226E636E633
S113083046E65FE332D120E030E04AEF54E450D2A0
S113084095D170938B0060938A0008958AE992E0B1
S11308509F938F93FAD20F900F90089584B1876875
S113086084B923988CB580658CBD8CB58F7D8CBD87
S11308708CB5877F8CBD8CB58B7F8CBD8CB581602E
S11308808CBD08958EBD0DB407FEFDCF08958FEF86
S11308908EBD0DB407FEFDCF8EB5089585E085BDF0
S11308A008959FB7F89486BD9FBF789408959FB725
S11308B0F89486B59FBF789490E008958CE0809377
S11308C0B8008FEF8093BB0084E08093BC00089550
S11308D0DC01ECEBF0E0908190FDFDCF6093DA0257
S11308E08C918093DB0280FD0CC0623050F0FD01DE
S11308F03196ACEDB2E081E091919D938F5F6813E6
S1130900FBCF1092D90288EF8093060285EA809388
S1130910BC0008951F920F920FB60F9211240BB6CC
S11309200F922F933F938F939F93AF93BF93EF9324
S1130930FF93E091B9008E2F90E0FC013897E135E8
S1130940F10508F057C08827EE58FF4F8F4F2BC290
S11309501092D802E091D8028091DA02E81770F47C
S113096081E08E0F8093D802F0E0E552FD4F808144
S11309708093BB0085E88093BC0043C08091D9027A
S113098081608093D90284E98093BC003AC0E091ED
S1130990D80281E08E0F8093D8028091BB00F0E0F2
S11309A0E552FD4F80832091D80230E08091DA0235
S11309B090E001972817390724F485EC8093BC0054
S11309C020C085E88093BC001CC08091BB00E091EE
S11309D0D802F0E0E552FD4F80838091D902816016
S11309E08093D90284E98093BC000BC085EA80938C
S11309F0BC0007C08091B9008093060284E0809314
S1130A00BC00FF91EF91BF91AF919F918F913F9166
S1130A102F910F900BBE0F900FBE0F901F90189543
S1130A20E0ECF0E0908195FFFDCF8093C60008953F
S1130A30E0ECF0E080818823ECF78091C600089513
S1130A409093C5008093C40088E18093C1008EE038
S1130A508093C20068E175E080E195E0ACC108953F
S1130A6087E690E0EDDF8FEB92E09F938F93EDD1DB
S1130A7065DC80E0A9DBBCDE11DD6DDD0FDFE9DDC7
S1130A800F900F902FEF80E792E02150804090402C
S1130A90E1F700C00000F6CF5058BB27AA270ED0BC
S1130AA0E5C0D6D030F0DBD020F031F49F3F11F414
S1130AB01EF4CBC00EF4E095E7FBC1C0E92FE7D0EC
S1130AC080F3BA17620773078407950718F071F467
S1130AD09EF5FFC00EF4E0950B2EBA2FA02D0B014E
S1130AE0B90190010C01CA01A0011124FF27591B6F
S1130AF099F0593F50F4503E68F11A16F040A22F75
S1130B00232F342F4427585FF3CF469537952795E5
S1130B10A795F0405395C9F77EF41F16BA0B620BE4
S1130B20730B840BBAF09150A1F0FF0FBB1F661F2B
S1130B30771F881FC2F70EC0BA0F621F731F841F6E
S1130B4048F4879577956795B795F7959E3F08F094
S1130B50B3CF9395880F08F09927EE0F9795879553
S1130B60089504D06894B111B5C0089598D088F060
S1130B709F5790F0B92F9927B751A0F0D1F0660F85
S1130B80771F881F991F1AF0BA95C9F712C0B130A0
S1130B9081F09FD0B1E008959CC0672F782F8827FB
S1130BA0B85F39F0B93FCCF3869577956795B395DF
S1130BB0D9F73EF490958095709561957F4F8F4F4E
S1130BC09F4F0895E89409C097FB3EF49095809553
S1130BD0709561957F4F8F4F9F4F9923A9F0F92FFF
S1130BE096E9BB279395F695879577956795B7957D
S1130BF0F111F8CFFAF4BB0F11F460FF1BC06F5F63
S1130C007F4F8F4F9F4F16C0882311F096E911C074
S1130C10772321F09EE8872F762F05C0662371F095
S1130C2096E8862F70E060E02AF09A95660F771FA9
S1130C30881FDAF7880F9695879597F9089597F99D
S1130C409F6780E870E060E008959FEF80EC08956E
S1130C5000240A9416161706180609060895002497
S1130C600A9412161306140605060895092E039411
S1130C70000C11F4882352F0BB0F40F4BF2B11F485
S1130C8060FF04C06F5F7F4F8F4F9F4F089557FDE4
S1130C909058440F551F59F05F3F71F04795880FE6
S1130CA097FB991F61F09F3F79F08795089512167D
S1130CB013061406551FF2CF4695F1DF08C0161629
S1130CC017061806991FF1CF8695710561050894DA
S1130CD00895E894BB2766277727CB0197F90895F1
S1130CE00BD0C4CFB5DF28F0BADF18F0952309F094
S1130CF0A6CFABCF1124EECFCADFA0F3959FD1F3DB
S1130D00950F50E0551F629FF001729FBB27F00DB5
S1130D10B11D639FAA27F00DB11DAA1F649F66270A
S1130D20B00DA11D661F829F2227B00DA11D621F59
S1130D30739FB00DA11D621F839FA00D611D221F13
S1130D40749F3327A00D611D231F849F600D211DF7
S1130D50822F762F6A2F11249F5750408AF0E1F09A
S1130D6088234AF0EE0FFF1FBB1F661F771F881FE3
S1130D7091505040A9F79E3F510570F060CFAACF23
S1130D805F3FECF3983EDCF3869577956795B795CE
S1130D90F795E7959F5FC1F7FE2B880F911D9695F8
S1130DA0879597F90895EE0FFF1F881F8BBF079053
S1130DB0F691E02D19940F931F93CF93DF9300972F
S1130DC031F46115710519F480E090E039C08B01AC
S1130DD0EC016EE070E081E090E047D2FC01892BE9
S1130DE099F380E883830115110571F01387028755
S1130DF081E883838091E0029091E102892B21F4C0
S1130E00F093E102E093E0022097C9F0D187C08714
S1130E108381826083838091E2029091E302892B33
S1130E2071F4F093E302E093E2028091E402909182
S1130E30E502892B21F4F093E502E093E402CF016B
S1130E40DF91CF911F910F910895CF93DF93CDB789
S1130E50DEB7AE014A5F5F4FFA0161917191AF0154
S1130E608091E2029091E30203D0DF91CF91089543
S1130E702F923F924F925F926F927F928F929F92A6
S1130E80AF92BF92CF92DF92EF92FF920F931F9394
S1130E90CF93DF93CDB7DEB72B970FB6F894DEBFB1
S1130EA00FBECDBF6C017B018A01FC011782168243
S1130EB0838181FFBFC1CE0101963C01F60193817C
S1130EC0F70193FD859193FF81917F01882309F4B4
S1130ED0ADC1853239F493FD859193FF81917F01F2
S1130EE0853221F4B60190E018D3E8CF912C212C5F
S1130EF0312CFFE1F315D8F08B3279F038F48032DD
S1130F0079F08332A1F4232D20611DC08D3261F06C
S1130F10803369F4232D216016C0832D8260382E1E
S1130F20E32DE4603E2E2AC0F32DF8601DC037FC8B
S1130F302DC020ED280F2A3040F08E32B9F436FC53
S1130F4075C1232D2064322E19C036FE06C08AE0F6
S1130F50989E200D1124922E11C0EAE02E9E200DA1
S1130F601124222EF32DF0623F2E08C08C3621F47A
S1130F70832D8068382E02C0883641F4F70193FD32
S1130F80859193FF81917F018111B3CF982F9F7D2C
S1130F909554933028F40C5F1F4F9FE399830DC041
S1130FA0833631F0833771F0833509F055C020C0A2
S1130FB0F801808189830E5F1F4F88248394912CCC
S1130FC0530112C02801F2E04F0E511CF801A08019
S1130FD0B18036FE03C0692D70E002C06FEF7FEF71
S1130FE0C50190D24C018201F32DFF773F2E15C02D
S1130FF0280122E0420E511CF801A080B18036FE87
S113100003C0692D70E002C06FEF7FEFC50168D2A5
S11310104C01F32DF0683F2E820133FC19C0822D60
S113102090E088169906A0F4B60180E290E075D2AB
S11310302A94F5CFF50137FC859137FE81915F0144
S1131040B60190E06AD221102A9421E0821A910814
S11310508114910479F7E1C0843611F0893639F5A9
S1131060F80137FE07C060817181828193810C5F32
S11310701F4F08C060817181072E000C880B990BEB
S11310800E5F1F4FF32DFF763F2E97FF09C09095FB
S11310908095709561957F4F8F4F9F4FF0683F2EDD
S11310A02AE030E0A30175D2882E861844C0853723
S11310B031F4232D2F7EB22E2AE030E025C0932D6B
S11310C0997FB92E8F36C1F018F4883579F0AEC007
S11310D0803719F0883721F0A9C0E92FE061BE2ECE
S11310E0B4FE0DC0FB2DF460BF2E09C034FE0AC04F
S11310F0292F2660B22E06C028E030E005C020E18A
S113110030E002C020E132E0F801B7FE07C06081A0
S11311107181828193810C5F1F4F06C06081718150
S113112080E090E00E5F1F4FA30133D2882E861813
S1131130FB2DFF773F2E36FE0DC0232D2E7FA22ED2
S1131140891458F434FE0BC032FC09C0832D8E7E02
S1131150A82E05C0B82CA32C03C0B82C01C0B92CF0
S1131160A4FE0FC0FE01E80DF11D8081803321F43F
S11311709A2D997EA92E09C0A2FE06C0B394B394F9
S113118004C08A2D867809F0B394A3FC10C0A0FE95
S113119006C0B21480F4280C922C9B180DC0B21413
S11311A058F4B60180E290E0B8D1B394F8CFB21409
S11311B018F42B1802C0982C212CA4FE0FC0B601E1
S11311C080E390E0AAD1A2FE16C0A1FC03C088E788
S11311D090E002C088E590E0B6010CC08A2D8678C4
S11311E051F0A1FE02C08BE201C080E2A7FC8DE2B7
S11311F0B60190E092D1891430F4B60180E390E016
S11312008CD19A94F8CF8A94F301E80DF11D808172
S1131210B60190E082D18110F6CF222009F44ECE9F
S1131220B60180E290E079D12A94F7CFF601868165
S1131230978102C08FEF9FEF2B960FB6F894DEBF15
S11312400FBECDBFDF91CF911F910F91FF90EF9013
S1131250DF90CF90BF90AF909F908F907F906F90D2
S11312605F904F903F902F9008950F931F93CF93CB
S1131270DF93869F8001879F100D969F100D112488
S1131280C8010DD0EC01009721F0A80160E070E0E6
S113129032D1CE01DF91CF911F910F9108950F9319
S11312A01F93CF93DF938230910510F482E090E096
S11312B0E091E802F091E90220E030E0A0E0B0E043
S11312C0309719F1408151810281138148175907E0
S11312D0C8F08417950769F4109731F012960C93AF
S11312E0129713961C9327C00093E8021093E90207
S11312F022C02115310519F04217530718F49A0139
S1131300BD01EF01DF01F801DBCF21153105F9F053
S1131310281B390B2430310580F48A819B816115A7
S1131320710521F0FB019383828304C09093E90249
S11313308093E802FE01329644C0FE01E20FF31FDF
S11313408193919322503109398328833AC02091A3
S1131350E6023091E702232B41F4209102023091FE
S113136003023093E7022093E602209100023091B9
S113137001022115310541F42DB73EB74091040215
S113138050910502241B350BE091E602F091E7022F
S1131390E217F307A0F42E1B3F0B2817390778F048
S11313A0AC014E5F5F4F2417350748F04E0F5F1FA7
S11313B05093E7024093E6028193919302C0E0E0E8
S11313C0F0E0CF01DF91CF911F910F910895CF935A
S11313D0DF93009709F481C0FC01329713821282D3
S11313E0A091E802B091E902109781F42081318143
S11313F0820F931F2091E6023091E70228173907E4
S113140051F5F093E702E093E60267C0ED0120E0B6
S113141030E0CE17DF0740F44A815B819E0141151D
S11314205105F1F0EA01F5CFD383C28340815181A4
S1131430840F951FC817D90759F488819981840F9F
S1131440951F0296918380838A819B8193838283F3
S11314502115310529F4F093E902E093E8023DC037
S1131460E901FB83EA8349915991C40FD51FEC1715
S1131470FD0761F480819181840F951F0296E90133
S113148099838883828193819B838A83E0E0F0E05F
S113149012968D919C911397009719F0FD01DC0130
S11314A0F7CF8D919C9111979D012E5F3F4F820F35
S11314B0931F2091E6023091E7022817390769F457
S11314C0309729F41092E9021092E80202C01382C4
S11314D01282B093E702A093E602DF91CF910895C0
S11314E0FC010590615070400110D8F780959095EB
S11314F08E0F9F1F0895DC0101C06D934150504031
S1131500E0F70895FC016150704001900110D8F794
S1131510809590958E0F9F1F08950F931F93CF93DF
S1131520DF93FB01238121FD03C08FEF9FEF2CC0CC
S113153022FF16C046815781248135814217530703
S113154044F4A081B1819D012F5F3F4F31832083FB
S11315508C93268137812F5F3F4F3783268314C0B6
S11315608B01EC01FB010084F185E02D1995892B99
S1131570E1F6D80116968D919C91179701961796CE
S11315809C938E931697CE01DF91CF911F910F916B
S11315900895FA01AA27283051F1203181F1E89405
S11315A06F936E7F6E5F7F4F8F4F9F4FAF4FB1E052
S11315B03ED0B4E03CD0670F781F891F9A1FA11D4D
S11315C0680F791F8A1F911DA11D6A0F711D811D4E
S11315D0911DA11D20D009F468943F912AE0269F13
S11315E011243019305D3193DEF6CF010895462F72
S11315F04770405D4193B3E00FD0C9F7F6CF462F53
S11316004F70405D4A3318F0495D31FD40524193BB
S113161002D0A9F7EACFB4E0A69597958795779578
S11316206795BA95C9F700976105710508959B01FF
S1131630AC010A2E06945795479537952795BA9588
S1131640C9F7620F731F841F951FA01D0895F89496
S1051650FFCFC6
S11316520000EA022000F8696E7465727275707493
S11316627320666F72206D6370203D2025235820FD
S11316720A0D0043414E20636F6E74726F6C6C6589
S11316827220696E206C6F6F706261636B206D6F84
S113169264650A0D004A4F59535449434B3A202575
S11316A2640A0D0043414E4E4F54204944454E5462
S11316B2494659204D45535341474500434245212C
S11316C20077616974696E6720666F722067616D65
S11316D2652073746172740A0D0067616D6520730D
S11316E274617274696E670A0D004572726F723AA0
S11316F22050574D2064757479206379636C65209A
S1131702697320746F6F206C617267650A0D004EF5
S11317126F64652032207374617274696E672E2E51
S10717222E0A0D007A
S9030000FC
