S01200006E6F6465325F6C6162382E7372656374
S1130000C2C00000E0C00000DEC00000A3C10000C8
S1130010DAC00000D8C00000D6C00000D4C0000080
S1130020D2C00000D0C00000CEC00000CCC0000090
S1130030CAC00000C8C00000C6C00000C4C00000A0
S1130040C2C00000C0C00000BEC00000BCC00000B0
S1130050BAC00000B8C00000B6C00000B4C00000C0
S1130060B2C00000B0C00000AEC00000ACC00000D0
S1130070AAC00000A8C00000A6C00000A4C00000E0
S1130080A2C00000A0C000009EC000009CC00000F0
S11300909AC0000098C0000096C000007FC4000011
S11300A092C0000090C000008EC000008CC0000010
S11300B08AC0000088C0000086C0000084C0000020
S11300C082C0000080C000007EC000007CC0000030
S11300D07AC0000078C0000076C0000074C0000040
S11300E072C00000EC043E053E053E053E053E059B
S11300F03E053E05EC043E053E053E053E053E0537
S11301003E053E05EE043E053E053E053E053E0524
S11301103E053E053E053E053E053E053E053E05C3
S11301203E053E05EE043E053E053E053E053E0504
S11301303E053E053E053E053E053E053E053E05A3
S11301403E053E053A053E053E053E053E053E0597
S11301503E053E0517053E053E053E053E053E05AA
S11301603E053E053E053E053E053E053E053E0573
S11301703E053E050B053E053E053E053E053E0596
S11301803E053E05290511241FBECFEFD1E2DEBF97
S1130190CDBF00E00CBF13E0A0E0B2E0E0EFF6E179
S11301A000E00BBF02C007900D92AA31B107D9F746
S11301B023E0AAE1B3E001C01D92AE32B207E1F739
S11301C093D40C94760B1CCFCF93C82F7ED165E0CB
S11301D08BE289D145E865E08BE2A9D18BE278D145
S11301E01F928F9387E092E09F938F937DD64C2F3D
S11301F060EE8FE09CD140E660E680E698D18FE027
S113020067D10F900F900F900F9086FF07C083E285
S113021092E09F938F9368D60F900F90CF9108959B
S1130220EF92FF920F931F93CF937C01F894FC01FC
S1130230608181E358D1F701618185E354D1F701ED
S1130240818190E0C696C6979CF087010E5F1F4F90
S1130250C6E3F80161918F018C2F45D1CF5F2C2F1C
S113026030E0F701818190E0C696821793078CF7FE
S113027080E090E047D17894CF911F910F91FF9047
S1130280EF9008957F928F929F92AF92BF92CF92F8
S1130290DF92EF92FF920F931F93CF93DF93CDB72B
S11302A0DEB72A970FB6F894DEBF0FBECDBF5C0150
S11302B081E60ED1782E85E60BD1082FC82ED12CDD
S11302C026E6C20ED11C36E6C316D104C4F07E0164
S11302D083E0E80EF11C16E6CE0180959095FC01B2
S11302E0EC59FF4F4F01812FF3D0F70181937F0128
S11302F01F5FC4018E0F9F1FC816D906A4F7798209
S11303000A838AE0FE013196D50101900D928A9507
S1130310E1F7C5012A960FB6F894DEBF0FBECDBF34
S1130320DF91CF911F910F91FF90EF90DF90CF90CD
S1130330BF90AF909F908F907F900895F894E9E6D6
S1130340F0E080818F7E8083808180628083EA9A5E
S1130350789408951F920F920FB60F9211240BB642
S11303600F922F933F934F935F936F937F938F934A
S11303709F93AF93BF93EF93FF93CF93DF93CDB747
S1130380DEB72A97DEBFCDBF8CE2A2D082FF04C0C5
S113039040E064E08CE2CBD08CE29AD080FF54C081
S11303A0CE0101966FDF99818B81913061F41F92A8
S11303B08F9385E492E09F938F9396D50F900F903F
S11303C00F900F903DC09230A9F4833350F090E029
S11303D0C297982F990F990F60E070E0890FFED0B3
S11303E02FC0982F990F990F890F61E070E08095C5
S11303F0F5D026C09330A1F4809323038C8190E040
S11304004DD28D81823031F4EBE0F1E080818F7B3D
S1130410808316C0EBE0F1E080818064808310C0AB
S1130420943039F481E090E090931B0380931A0395
S113043007C084E592E09F938F9356D50F900F9059
S113044040E061E08CE273D08CE242D088235CF41B
S11304508CE692E09F938F9347D540E060E88CE26E
S113046066D00F900F902A960FB6F894DEBF0FBE99
S1130470CDBFDF91CF91FF91EF91BF91AF919F914C
S11304808F917F916F915F914F913F912F910F9039
S11304900BBE0F900FBE0F901F9018958098ECE73D
S11304A0F0E08081806E8083EAE7F0E080818562FD
S11304B080838081806C8083089580917900089581
S11304C02F9880EC23D22F9A08950CD2F9CF089557
S11304D0CF93C82F2F9883E019D28C2F17D21BD219
S11304E02F9ACF910895CF93DF93D82FC62F2F98AB
S11304F082E00CD28D2F0AD28C2F08D22F9ADF9152
S1130500CF9108952F98009719F481E8FFD10DC079
S11305108130910519F482E8F9D107C0029719F4E2
S113052084E8F4D102C087E8F1D12F9A08951F938B
S1130530CF93DF93182FD62FC42F2F9885E0E6D1C1
S1130540812FE4D18D2FE2D18C2FE0D12F9ADF912E
S1130550CF911F910895CF93DF9300D0CDB7DEB72D
S113056090E599831A828B8363E0CE010196F4D1DE
S11305700F900F900F90DF91CF910895E2E0F1E09A
S113058080818F7B80838FE891E00197F1F700C031
S113059000008081806480830895D4D1E1E0F1E09B
S11305A080818A678083E7E0F1E080818083E2E0F4
S11305B0F1E080818061808380818062808380819A
S11305C080648083DBDFEAE0F1E080818064808303
S11305D0EBE0F1E08081806480830895CF93DF9322
S11305E0EB01E2E0F1E0908190619083B4DF219728
S11305F031F4E2E0F1E080818260808305C0E2E0D2
S1130600F1E080818D7F8083DF91CF910895E2E0D6
S1130610F1E080818F7D80838081877F80838AE67B
S11306208A95F1F700C0A6E0B1E02C918081886042
S113063080838AE68A95F1F700C08C9190E0922B32
S11306400895EF92FF920F931F93CF93DF9381E767
S113065092E09F938F9348D461E070E08AE5BEDF17
S1130660D6DF8C012FEF80E792E02150804090404C
S1130670E1F700C000000F900F900F2EFFE7EF2E60
S1130680F2E0FF2EF02D01C08E01C1DFEC01801BD2
S1130690910B9F938F93FF92EF9226D42FEF80E7D5
S11306A092E0215080409040E1F700C000000F909C
S11306B00F900F900F900C171D0731F75FDF61E06B
S11306C070E080E08BDF8EE992E09F938F930CD4EF
S11306D00F900F90DF91CF911F910F91FF90EF90AA
S11306E008954F925F926F927F929F92AF92BF92C2
S11306F0CF92DF92EF92FF920F931F93CF93DF93EA
S1130700CDB7DEB72A970FB6F894DEBF0FBECDBFC4
S11307107EDF6C018FEF898381E08A8392DF60E062
S113072070E080E05BDF80912303E12CF12CAA24AC
S1130730AA94B12C0F2EF3E29F2EF02D80E0F5D079
S113074066DF8C01809123039501281B3109929E59
S1130750B001939E700D1124601B710BCB01815B62
S11307609F4F8F39910548F0C701845A964E893BB3
S1130770924328F4E60EF71E02C0E12CF12C072E5A
S1130780000C880B990B6FD225E236E041E05DE363
S1130790F6D22B013C01B7010F2C000C880B990BEE
S11307A062D229E93EE940E35CE3E9D29B01AC0172
S11307B0C301B201C1D12B013C01B8016C197D09FF
S11307C0072E000C880B990B4ED228E03CEA4CE132
S11307D05EE3D5D29B01AC01C301B201ACD110D20E
S11307E0DC01CB01AC019C01992324F4222733279B
S11307F0281B390B4217530769F44F3F510531F059
S11308002CF060E070E08FEFE9DE10C060E070E093
S1130810E5DE0CC041305F4F2CF461E070E08FEFF7
S1130820DDDE04C061E070E0822FD8DE46DE823374
S113083040F4CE010196F4DC10921B0310921A03CB
S113084005C079D0C297E8F3680178CF2A960FB62D
S1130850F894DEBF0FBECDBFDF91CF911F910F91F2
S1130860FF90EF90DF90CF90BF90AF909F907F90DC
S11308706F905F904F900895269AE0E8F0E08081B1
S113088082628083E1E8F0E080818A61808380E491
S11308909CE990938700809386000895843691059F
S11308A0C8F4BC0180E090E0DCD126EA3BE944E4F2
S11308B05CE365D226E636E646E65FE33DD120E01A
S11308C030E04AEF54E45BD2A0D170938B00609384
S11308D08A00089586EB92E09F938F9305D30F903F
S11308E00F90089584B1876884B923988CB5806586
S11308F08CBD8CB58F7D8CBD8CB5877F8CBD8CB544
S11309008B7F8CBD8CB581608CBD08958EBD0DB47C
S113091007FEFDCF08958FEF8EBD0DB407FEFDCF0A
S11309208EB5089585E085BD08959FB7F89486BD7A
S11309309FBF789408959FB7F89486B59FBF789425
S113094090E008958CE08093B8008FEF8093BB0013
S113095084E08093BC000895DC01ECEBF0E090812E
S113096090FDFDCF60931E038C9180931F0380FD47
S11309700CC0623050F0FD013196A0E2B3E081E09A
S113098091919D938F5F6813FBCF10921D0388EFA5
S11309908093060285EA8093BC0008951F920F920B
S11309A00FB60F9211240BB60F922F933F938F9390
S11309B09F93AF93BF93EF93FF93E091B9008E2F72
S11309C090E0FC013897E135F10508F057C088271D
S11309D0EE58FF4F8F4F36C210921C03E0911C0358
S11309E080911E03E81770F481E08E0F80931C033E
S11309F0F0E0E15EFC4F80818093BB0085E880934A
S1130A00BC0043C080911D03816080931D0384E971
S1130A108093BC003AC0E0911C0381E08E0F809368
S1130A201C038091BB00F0E0E15EFC4F80832091C9
S1130A301C0330E080911E0390E0019728173907CA
S1130A4024F485EC8093BC0020C085E88093BC002E
S1130A501CC08091BB00E0911C03F0E0E15EFC4F00
S1130A60808380911D03816080931D0384E98093BA
S1130A70BC000BC085EA8093BC0007C08091B9001C
S1130A808093060284E08093BC00FF91EF91BF91B4
S1130A90AF919F918F913F912F910F900BBE0F902B
S1130AA00FBE0F901F901895E0ECF0E0908195FF39
S1130AB0FDCF8093C6000895E0ECF0E080818823A8
S1130AC0ECF78091C60008959093C5008093C4000C
S1130AD088E18093C1008EE08093C2006CE575E0EC
S1130AE084E595E0B7C1089587E690E0EDDF8BEDEE
S1130AF092E09F938F93F8D121DC80E065DBBCDE2C
S1130B00CDDC4BDD0FDF0F900F9000EF12E0C9E05A
S1130B10D3E01F930F93E8D10F900F9080911A03A5
S1130B2090911B03892BD1F3DF93CF93DDD1D9DDD2
S1130B300F900F90EECF5058BB27AA270ED0E5C0D8
S1130B40D6D030F0DBD020F031F49F3F11F41EF406
S1130B50CBC00EF4E095E7FBC1C0E92FE7D080F3EA
S1130B60BA17620773078407950718F071F49EF5A6
S1130B70FFC00EF4E0950B2EBA2FA02D0B01B90186
S1130B8090010C01CA01A0011124FF27591B99F0FF
S1130B90593F50F4503E68F11A16F040A22F232F0B
S1130BA0342F4427585FF3CF469537952795A7955B
S1130BB0F0405395C9F77EF41F16BA0B620B730B02
S1130BC0840BBAF09150A1F0FF0FBB1F661F771F73
S1130BD0881FC2F70EC0BA0F621F731F841F48F428
S1130BE0879577956795B795F7959E3F08F0B3CFAE
S1130BF09395880F08F09927EE0F97958795089598
S1130C0004D06894B111B5C0089598D088F09F5766
S1130C1090F0B92F9927B751A0F0D1F0660F771F44
S1130C20881F991F1AF0BA95C9F712C0B13081F024
S1130C309FD0B1E008959CC0672F782F8827B85FB4
S1130C4039F0B93FCCF3869577956795B395D9F785
S1130C503EF490958095709561957F4F8F4F9F4F8F
S1130C600895E89409C097FB3EF49095809570959B
S1130C7061957F4F8F4F9F4F9923A9F0F92F96E9E4
S1130C80BB279395F695879577956795B795F11159
S1130C90F8CFFAF4BB0F11F460FF1BC06F5F7F4FF6
S1130CA08F4F9F4F16C0882311F096E911C0772308
S1130CB021F09EE8872F762F05C0662371F096E811
S1130CC0862F70E060E02AF09A95660F771F881FE0
S1130CD0DAF7880F9695879597F9089597F99F679E
S1130CE080E870E060E008959FEF80EC08950024B0
S1130CF00A941616170618060906089500240A947D
S1130D0012161306140605060895092E0394000C02
S1130D1011F4882352F0BB0F40F4BF2B11F460FF91
S1130D2004C06F5F7F4F8F4F9F4F089557FD9058BA
S1130D30440F551F59F05F3F71F04795880F97FB9B
S1130D40991F61F09F3F79F0879508951216130655
S1130D501406551FF2CF4695F1DF08C01616170684
S1130D601806991FF1CF86957105610508940895B9
S1130D70E894BB2766277727CB0197F908950BD012
S1130D80C4CFB5DF28F0BADF18F0952309F0A6CF59
S1130D90ABCF1124EECFCADFA0F3959FD1F3950F0B
S1130DA050E0551F629FF001729FBB27F00DB11DEB
S1130DB0639FAA27F00DB11DAA1F649F6627B00D7B
S1130DC0A11D661F829F2227B00DA11D621F739F64
S1130DD0B00DA11D621F839FA00D611D221F749F72
S1130DE03327A00D611D231F849F600D211D822FB9
S1130DF0762F6A2F11249F5750408AF0E1F0882300
S1130E004AF0EE0FFF1FBB1F661F771F881F91500C
S1130E105040A9F79E3F510570F060CFAACF5F3FC5
S1130E20ECF3983EDCF3869577956795B795F7953F
S1130E30E7959F5FC1F7FE2B880F911D96958795C7
S1130E4097F90895EE0FFF1F881F8BBF0790F69147
S1130E50E02D19940F931F93CF93DF93009731F4F0
S1130E606115710519F480E090E039C08B01EC0143
S1130E706EE070E081E090E047D2FC01892B99F3A9
S1130E8080E883830115110571F01387028781E8D7
S1130E9083838091240390912503892B21F4F0937B
S1130EA02503E09324032097C9F0D187C087838169
S1130EB0826083838091260390912703892B71F4A8
S1130EC0F0932703E093260380912803909129034C
S1130ED0892B21F4F0932903E0932803CF01DF91B8
S1130EE0CF911F910F910895CF93DF93CDB7DEB7C4
S1130EF0AE014A5F5F4FFA0161917191AF01809138
S1130F0026039091270303D0DF91CF9108952F9268
S1130F103F924F925F926F927F928F929F92AF9285
S1130F20BF92CF92DF92EF92FF920F931F93CF93D2
S1130F30DF93CDB7DEB72B970FB6F894DEBF0FBEA5
S1130F40CDBF6C017B018A01FC011782168283816B
S1130F5081FFBFC1CE0101963C01F6019381F701E7
S1130F6093FD859193FF81917F01882309F4ADC19D
S1130F70853239F493FD859193FF81917F01853208
S1130F8021F4B60190E018D3E8CF912C212C312C18
S1130F90FFE1F315D8F08B3279F038F4803279F030
S1130FA08332A1F4232D20611DC08D3261F0803382
S1130FB069F4232D216016C0832D8260382EE32D21
S1130FC0E4603E2E2AC0F32DF8601DC037FC2DC00E
S1130FD020ED280F2A3040F08E32B9F436FC75C16A
S1130FE0232D2064322E19C036FE06C08AE0989E56
S1130FF0200D1124922E11C0EAE02E9E200D112402
S1131000222EF32DF0623F2E08C08C3621F4832D5E
S11310108068382E02C0883641F4F70193FD85912B
S113102093FF81917F018111B3CF982F9F7D9554B8
S1131030933028F40C5F1F4F9FE399830DC08336D0
S113104031F0833771F0833509F055C020C0F801C1
S1131050808189830E5F1F4F88248394912C5301D0
S113106012C02801F2E04F0E511CF801A080B1809B
S113107036FE03C0692D70E002C06FEF7FEFC5013B
S113108090D24C018201F32DFF773F2E15C0280129
S113109022E0420E511CF801A080B18036FE03C04C
S11310A0692D70E002C06FEF7FEFC50168D24C017B
S11310B0F32DF0683F2E820133FC19C0822D90E09D
S11310C088169906A0F4B60180E290E075D22A94BD
S11310D0F5CFF50137FC859137FE81915F01B601AB
S11310E090E06AD221102A9421E0821A9108811496
S11310F0910479F7E1C0843611F0893639F5F801A5
S113110037FE07C060817181828193810C5F1F4F1C
S113111008C060817181072E000C880B990B0E5F4B
S11311201F4FF32DFF763F2E97FF09C090958095B2
S1131130709561957F4F8F4F9F4FF0683F2E2AE047
S113114030E0A30175D2882E861844C0853731F467
S1131150232D2F7EB22E2AE030E025C0932D997FD7
S1131160B92E8F36C1F018F4883579F0AEC08037C7
S113117019F0883721F0A9C0E92FE061BE2EB4FE32
S11311800DC0FB2DF460BF2E09C034FE0AC0292F08
S11311902660B22E06C028E030E005C020E130E031
S11311A002C020E132E0F801B7FE07C0608171811E
S11311B0828193810C5F1F4F06C06081718180E042
S11311C090E00E5F1F4FA30133D2882E8618FB2DAB
S11311D0FF773F2E36FE0DC0232D2E7FA22E8914BD
S11311E058F434FE0BC032FC09C0832D8E7EA82E29
S11311F005C0B82CA32C03C0B82C01C0B92CA4FE84
S11312000FC0FE01E80DF11D8081803321F49A2D79
S1131210997EA92E09C0A2FE06C0B394B39404C05B
S11312208A2D867809F0B394A3FC10C0A0FE06C0F2
S1131230B21480F4280C922C9B180DC0B21458F4EC
S1131240B60180E290E0B8D1B394F8CFB21418F4A8
S11312502B1802C0982C212CA4FE0FC0B60180E3E9
S113126090E0AAD1A2FE16C0A1FC03C088E790E0DA
S113127002C088E590E0B6010CC08A2D867851F052
S1131280A1FE02C08BE201C080E2A7FC8DE2B601A0
S113129090E092D1891430F4B60180E390E08CD1CF
S11312A09A94F8CF8A94F301E80DF11D8081B60178
S11312B090E082D18110F6CF222009F44ECEB601FF
S11312C080E290E079D12A94F7CFF6018681978164
S11312D002C08FEF9FEF2B960FB6F894DEBF0FBEC0
S11312E0CDBFDF91CF911F910F91FF90EF90DF90D1
S11312F0CF90BF90AF909F908F907F906F905F90B2
S11313004F903F902F9008950F931F93CF93DF93A7
S1131310869F8001879F100D969F100D1124C80190
S11313200DD0EC01009721F0A80160E070E032D10B
S1131330CE01DF91CF911F910F9108950F931F93C9
S1131340CF93DF938230910510F482E090E0E09136
S11313502C03F0912D0320E030E0A0E0B0E03097C2
S113136019F1408151810281138148175907C8F04E
S11313708417950769F4109731F012960C9312971D
S113138013961C9327C000932C0310932D0322C0A3
S11313902115310519F04217530718F49A01BD01BC
S11313A0EF01DF01F801DBCF21153105F9F0281B2E
S11313B0390B2430310580F48A819B8161157105D4
S11313C021F0FB019383828304C090932D038093C7
S11313D02C03FE01329644C0FE01E20FF31F8193F9
S11313E0919322503109398328833AC020912A03EA
S11313F030912B03232B41F42091020230910302FC
S113140030932B0320932A03209100023091010290
S11314102115310541F42DB73EB740910402509196
S11314200502241B350BE0912A03F0912B03E217EC
S1131430F307A0F42E1B3F0B2817390778F0AC01F3
S11314404E5F5F4F2417350748F04E0F5F1F5093D0
S11314502B0340932A038193919302C0E0E0F0E0D0
S1131460CF01DF91CF911F910F910895CF93DF9317
S1131470009709F481C0FC01329713821282A09173
S11314802C03B0912D03109781F420813181820FB8
S1131490931F20912A0330912B032817390751F504
S11314A0F0932B03E0932A0367C0ED0120E030E0C2
S11314B0CE17DF0740F44A815B819E014115510537
S11314C0F1F0EA01F5CFD383C28340815181840FC7
S11314D0951FC817D90759F488819981840F951FDE
S11314E00296918380838A819B81938382832115D1
S11314F0310529F4F0932D03E0932C033DC0E90159
S1131500FB83EA8349915991C40FD51FEC17FD075A
S113151061F480819181840F951F0296E90199837A
S11315208883828193819B838A83E0E0F0E0129632
S11315308D919C911397009719F0FD01DC01F7CF71
S11315408D919C9111979D012E5F3F4F820F931FA8
S113155020912A0330912B032817390769F4309717
S113156029F410922D0310922C0302C013821282CC
S1131570B0932B03A0932A03DF91CF910895FC012C
S11315800590615070400110D8F7809590958E0FAA
S11315909F1F0895DC0101C06D9341505040E0F756
S11315A00895FC016150704001900110D8F78095B6
S11315B090958E0F9F1F08950F931F93CF93DF93E2
S11315C0FB01238121FD03C08FEF9FEF2CC022FF7D
S11315D016C046815781248135814217530744F44C
S11315E0A081B1819D012F5F3F4F318320838C9374
S11315F0268137812F5F3F4F3783268314C08B01A9
S1131600EC01FB010084F185E02D1995892BE1F6AD
S1131610D80116968D919C911797019617969C93D5
S11316208E931697CE01DF91CF911F910F9108955C
S1131630FA01AA27283051F1203181F1E8946F93FF
S11316406E7F6E5F7F4F8F4F9F4FAF4FB1E03ED0A5
S1131650B4E03CD0670F781F891F9A1FA11D680F43
S1131660791F8A1F911DA11D6A0F711D811D911D76
S1131670A11D20D009F468943F912AE0269F1124EB
S11316803019305D3193DEF6CF010895462F47704F
S1131690405D4193B3E00FD0C9F7F6CF462F4F70AA
S11316A0405D4A3318F0495D31FD4052419302D008
S11316B0A9F7EACFB4E0A6959795879577956795AE
S11316C0BA95C9F700976105710508959B01AC01AE
S11316D00A2E06945795479537952795BA95C9F7D5
S11316E0620F731F841F951FA01D0895F894FFCFE8
S11316F000002E032000F8696E74657272757074B0
S11317007320666F72206D6370203D20252358205E
S11317100A0D0043414E20636F6E74726F6C6C65EA
S11317207220696E206C6F6F706261636B206D6FE5
S113173064650A0D004A4F59535449434B3A2025D6
S1131740640A0D0043414E4E4F54204944454E54C3
S1131750494659204D45535341474500434245218D
S11317600043616C6962726174696E670A0D00639B
S113177068616E676520696E20656E636F6465726B
S11317802076616C7565203D202536640D000A467F
S1131790696E69736865642063616C6962726174FF
S11317A0696E670A0D004572726F723A2050574D88
S11317B02064757479206379636C6520697320747F
S11317C06F6F206C617267650A0D004E6F6465204F
S11317D032207374617274696E672E2E2E0A0D00A6
S11317E077616974696E6720666F722067616D65E1
S11317F02073746172740A0D0067616D65207374DF
S10D1800617274696E670A0D00003E
S9030000FC
